:020000040800F2
:10000000600600206D0100087501000877010008F6
:10001000790100087B0100087D0100080000000054
:100020000000000000000000000000007F01000848
:10003000810100080000000083010008850100081C
:100040008701000887010008870100088701000870
:100050008701000887010008870100088701000860
:100060008701000887010008870100088701000850
:100070008701000887010008870100088701000840
:100080008701000887010008870100088701000830
:100090008701000887010008870100088701000820
:1000A0008701000887010008870100088701000810
:1000B0008701000887010008870100088701000800
:1000C00087010008870100088701000887010008F0
:1000D00087010008870100088701000887010008E0
:1000E00087010008870100088701000800F002F876
:1000F00000F02CF80AA090E8000C82448344AAF196
:100100000107DA4501D100F021F8AFF2090EBAE893
:100110000F0013F0010F18BFFB1A43F0010318473B
:100120004C0500005C05000000230024002500268B
:10013000103A28BF78C1FBD8520728BF30C148BF4A
:100140000B6070471FB51FBD10B510BD00F031F832
:100150001146FFF7F7FF00F06DFA00F04FF803B417
:10016000FFF7F2FF03BC00F057F800000948804792
:1001700009480047FEE7FEE7FEE7FEE7FEE7FEE789
:10018000FEE7FEE7FEE7FEE704480549054A064BA1
:1001900070470000DD040008ED000008600000204A
:1001A0006006002060020020600200207047704757
:1001B0007047754600F02CF8AE4605006946534678
:1001C00020F00700854618B020B5FFF7DDFFBDE839
:1001D00020404FF000064FF000074FF000084FF0AE
:1001E000000B21F00701AC46ACE8C009ACE8C0093F
:1001F000ACE8C009ACE8C0098D46704710B50446AC
:10020000AFF300802046BDE81040FFF7A8BF000014
:10021000004870470000002001491820ABBEFEE7EF
:10022000260002007047000070B504460DE0094842
:1002300000F0AAF9054600BF064800F0A5F9401BEA
:1002400080B2B0F57A7FF7DB00BF201EA4F1010475
:10025000EDD170BD0004004008B5BDF8000040F4C9
:100260000050ADF8000010208DF8030003208DF839
:1002700002006946014800F003F808BD000801408B
:100280002DE9F0410246002500260020002300242D
:10029000002791F803C00CF00F0591F803C00CF093
:1002A000100CBCF1000F03D091F802C04CEA050518
:1002B00091F800C0BCF1000F31D0146800202BE091
:1002C0004FF0010C0CFA00F3B1F800C00CEA030681
:1002D0009E4220D183004FF00F0C0CFA03F7BC4371
:1002E00005FA03FC4CEA040491F803C0BCF1280FA2
:1002F00006D14FF0010C0CFA00FCC2F814C00AE061
:1003000091F803C0BCF1480F05D14FF0010C0CFA75
:1003100000FCC2F810C0401C0828D1D31460B1F80A
:1003200000C0BCF1FF0F34DD546800202EE000F166
:10033000080C4FF0010808FA0CF3B1F800C00CEA01
:1003400003069E4221D183004FF00F0C0CFA03F7F5
:10035000BC4305FA03FC4CEA040491F803C0BCF169
:10036000280F05D100F1080C08FA0CF8C2F8148027
:1003700091F803C0BCF1480F07D100F1080C4FF011
:10038000010808FA0CF8C2F81080401C0828CED3E7
:100390005460BDE8F0814161704701617047000021
:1003A00029B1064AD2690243044BDA6104E0034AE8
:1003B000D2698243014BDA617047000000100240AD
:1003C00029B1064A92690243044B9A6104E0034A48
:1003D00092698243014B9A6170470000001002400D
:1003E00010B501210220FFF7DBFF01210420FFF7F8
:1003F000E7FF10BD10B500F001F810BD0CB50020EE
:10040000019000903348006840F480303149086022
:1004100000BF3048006800F4003000900198401C94
:100420000190009818B90198B0F5A06FF1D1294852
:10043000006800F4003010B10120009001E00020BD
:1004400000900098012843D12348006840F0100034
:10045000214908600846006820F007000860084647
:10046000006840F0020008601A4840681949486076
:100470000846406848600846406840F4806048602C
:100480000846406820F47C1048600846406840F404
:10049000E81048600846006840F08070086000BFBF
:1004A0000C48006800F000700028F9D00948406846
:1004B00020F00300074948600846406840F0020009
:1004C000486000BF0348406800F00C000828F9D1DC
:1004D0000CBD0000001002400020024010B513487F
:1004E000006840F001001149086008464068104962
:1004F00008400E494860084600680E4908400B490C
:1005000008600846006820F48020086008464068BB
:1005100020F4FE0048604FF41F008860FFF76AFF78
:100520004FF000600449086010BD00000010024058
:100530000000FFF8FFFFF6FE08ED00E021B10288A1
:1005400042F00102028004E002884FF6FE731A4076
:10055000028070470EB50020ADF806000720ADF808
:1005600000004FF6FF70ADF804000020ADF8020067
:1005700001210448FFF7E2FF6946024800F008F84D
:100580000EBD0000000400400146888C704700004A
:10059000002202881D4B98420ED01D4B98420BD072
:1005A000B0F1804F08D01B4B984205D01A4B9842AF
:1005B00002D01A4B984204D14FF68F731A404B88E1
:1005C0001A43174B984207D0164B984204D04FF667
:1005D000FF431A40CB881A4302808B8883850B889F
:1005E00003850A4B98420BD0094B984208D00E4B1A
:1005F000984205D00D4B984202D00D4B984201D144
:100600000B7A03860123838270470000002C01408F
:10061000003401400004004000080040000C00408D
:100620000010004000140040004001400044014020
:1006300000480140FFF7D4FEFFF78CFFFFF70CFEE8
:1006400011E04FF400510848FFF7A7FE4FF47A700D
:10065000FFF7EAFD4FF400510348FFF79CFE4FF40B
:100660007A70FFF7E1FDECE7000801407C06000826
:0C067000000000206006000028010008C7
:040000050800016D81
:00000001FF
