:020000040800F2
:10000000F006002029020008B51D0008651600084A
:10001000B11D000831030008952100080000000010
:100020000000000000000000000000001520000893
:10003000ED03000800000000B91D0008D1200008F1
:10004000430200084302000843020008430200087C
:10005000430200084302000843020008430200086C
:10006000430200084302000843020008430200085C
:10007000430200084302000843020008430200084C
:10008000430200084302000843020008430200083C
:10009000430200084302000843020008430200082C
:1000A000430200084302000843020008430200081C
:1000B000430200084302000843020008430200080C
:1000C00043020008430200084302000843020008FC
:1000D00043020008430200084302000843020008EC
:1000E00043020008430200084302000843020008DC
:1000F00043020008430200084302000843020008CC
:1001000043020008430200084302000843020008BB
:1001100043020008430200084302000843020008AB
:10012000430200084302000843020008430200089B
:10013000430200084302000843020008430200088B
:10014000430200084302000843020008430200087B
:10015000430200084302000843020008430200086B
:10016000430200084302000843020008430200085B
:100170004302000843020008430200080000000098
:10018000430200084302000800F002F800F03CF8C7
:100190000AA090E8000C82448344AAF10107DA45E2
:1001A00001D100F031F8AFF2090EBAE80F0013F0F8
:1001B000010F18BFFB1A43F00103184790210000FC
:1001C000B0210000103A24BF78C878C1FAD852078D
:1001D00024BF30C830C144BF04680C6070470000C1
:1001E0000023002400250026103A28BF78C1FBD840
:1001F000520728BF30C148BF0B6070471FB502F0DF
:1002000078F81FBD10B510BD00F058F81146FFF783
:10021000F5FF01F0C1FF00F076F803B4FFF7F2FF3D
:1002200003BC00F07DF800000948804709480047FA
:10023000FEE7FEE7FEE7FEE7FEE7FEE7FEE7FEE796
:10024000FEE7FEE704480549054A064B70470000F3
:100250008121000889010008F0000020F00600203C
:10026000F0020020F00200204FF0000200B513461B
:1002700094469646203922BFA0E80C50A0E80C50C6
:10028000B1F12001BFF4F7AF090728BFA0E80C5077
:1002900048BF0CC05DF804EB890028BF40F8042B70
:1002A00008BF704748BF20F8022B11F0804F18BFDD
:1002B00000F8012B7047704770477047754600F093
:1002C0002BF8AE4605006946534620F007008546E8
:1002D00018B020B5FFF7B6FFBDE820404FF000068C
:1002E0004FF000074FF000084FF0000BAC46ACE8B1
:1002F000C009ACE8C009ACE8C009ACE8C00921F00D
:1003000007018D46704710B50446AFF300802046C4
:10031000BDE81040FFF781BF004870471000002083
:1003200001491820ABBEFEE726000200704700001E
:10033000FEE700002DE9F04784B040F60048C4F61F
:1003400000088A4606464046042100224FF0000974
:1003500000F04AF9802040F2880540EA4600C2F2E7
:1003600000058DF8090064240DF1090102AA284650
:100370000123009400F0E4FF0DF10B010DF10A02DE
:10038000284601238DF80B90009400F0D9FF9DF8CA
:100390000A7040460421012200F026F9404604215B
:1003A000002227EA0A0700F01FF97E2000EA460033
:1003B0008DF80D000DF10D0103AA284601230094CC
:1003C00000F0BEFF0DF10F010DF10E0228460123D2
:1003D0008DF80F70009400F0B3FF40460421012215
:1003E00000F002F904B0BDE8F0870000704700009B
:1003F000B0B5044600F0FEF8054640F20000C2F237
:1004000000000078611C18BF044400BF00F0F2F83F
:10041000401BA042FAD3B0BD2DE9F04F82B00D6869
:10042000002D00F0DB8041F6000400F13847C4F6EF
:10043000000407224FEAB726A04208BF0622062E74
:1004400038BF4FEAB7224FF0000B0027002600927A
:100450000AE000BF0D68013635FA06F207F102071F
:100460000BF1040B00F0BA80012202FA06FE15EA35
:100470000E08EFD0D1F8049009F0030AAAF10105A3
:10048000022D15D20323826803FA07F5CB68AA432D
:10049000BB401A4382604268C9F3001322EA0E028D
:1004A000B3404FEA460CEC431A43426017E000BFEA
:1004B000BAF1030F0ED1C56AC9F3C00225EA0E05D1
:1004C000B2402A434FF0030AC2620AFA07F2D44349
:1004D000BC4625E0032202FA07F5EC43BC46C2689D
:1004E0008B68224003FA0CF31A43BAF1020FC26080
:1004F00016D16FF0030202EA560202440BF01C050B
:100500000F23D2F820E003FA05F90B692EEA090E51
:10051000AB4043EA0E031362D1F8049009F0030ADA
:1005200002680AFA0CF322401A4319F4403F0260B1
:1005300090D041F26003C4F202031A6840F2004E08
:1005400042F001021A601A68C4F2010E02F00102C0
:100550000192019A26F003024FF608497244CFF641
:10056000FF7952F809C00BF00C050F23009CAB403B
:100570002CEA030304FA05F52B4342F80930DEF8B0
:1005800008204B6842EA080540F20C4CDC0258BFD8
:1005900022EA0805CEF80850C4F2010CDCF800206D
:1005A0009C0242EA080558BF22EA0805CCF8005030
:1005B000DEF804209C0342EA080558BF22EA080539
:1005C000CEF80450DEF80020DB0342EA080558BFED
:1005D00022EA0805CEF800503CE700BF02B000F068
:1005E00000B830BCBDE8C08F1823002A08BF2823FC
:1005F000C150704740F2EC00C2F200000068704742
:1006000040F2000040F2EC01C2F20000C2F2000130
:1006100000780A68104408607047000080B542F214
:100620000000C4F20200016841F4807101600320FF
:1006300000F078F8002000F009F800281CBF012025
:1006400080BD00F029F8002080BD000070B540F2A8
:100650000006C2F200063178E1B1044640F208001B
:10066000C2F200004FF47A720068B2FBF1F1B0FB05
:10067000F1F000F0E1FF0F2C4FF0010508D838B978
:100680004FF0FF3021460022002500F01FF8746073
:10069000284670BD012070BD82B041F25800C4F2FE
:1006A0000200816841F001018160816801F001016F
:1006B00001910199016841F080510160006800F0EA
:1006C00080500090009802B07047000010B54EF6C0
:1006D0000C5CCEF2000CDCF80030C3F3022E8EF07E
:1006E0000704042C28BF0424BEF103034FF0FF3E8F
:1006F0000EFA04F438BF0023A14399400EFA03F325
:100700009A43114300F00F0200F160430901043ADB
:1007100003F564436244002848BF02F10C031970DA
:1007200010BD00004EF60C51CEF200010A684FF6E3
:10073000FF031A4060F30A2242F0806040F0FD702F
:100740000860704747F20001C4F200010A68B0F582
:10075000007F02F4C06031D1B0F5007F2CD0086872
:10076000012262F34A20086040F20800C2F2000051
:100770000068322250434DF68362C4F21B32A0FB64
:100780000202900C4A69520511D5421C0FD04A69E9
:1007900052050CD558B14A69520508D5012806D032
:1007A0004A69520503D50228A0F10400EAD148693C
:1007B000400544BF0320704700207047B0F5806FAC
:1007C000FAD00868022262F34A20086000207047CD
:1007D00047F20000C4F20000006800F4C0607047F7
:1007E00047F20000C4F20000016841F4807101602A
:1007F0007047000041F20000C4F20200016841F0BD
:1008000004010160704700002DE9F04381B0002829
:100810006BD042F20008C4F202080446D8F8000087
:100820000D4600F0070088420CD2D8F8000020F0F6
:1008300007002843C8F80000D8F8000000F00700BF
:10084000A84252D1206841F2080910F00201C4F216
:1008500002090DD0A268D9F8003003F0F0039A42E3
:1008600006D9D9F8003023F0F0031A43C9F8002064
:10087000C2072DD169B1A168D9F8002002F0F002B9
:10088000914206D2D9F8002022F0F0021143C9F8B3
:100890000010D8F8001001F00701A9420CD9D8F8CF
:1008A000001021F007012943C8F80010D8F8001003
:1008B00001F00701A94218D141071BD4000723D436
:1008C000D9F80000D9F8041010F00C002CD131E058
:1008D000606800285ED0022800F07E80032840F087
:1008E000818059F8081C890158D4012001B0BDE865
:1008F000F08300BFD9F80010E26821F4E0611143F1
:10090000C9F800100007DBD5D9F80000216920F4F0
:10091000605040EAC100C9F80000D9F80000D9F8D9
:10092000041010F00C0005D00C2829D101F00301AF
:10093000012925D159F8081C090703D4D9F88C10CE
:10094000090A02E059F8081C090942F21C3201F0B8
:100950000F01C0F6000252F8211000280A4618BF05
:1009600000220C2871D1D9F8040000F003000228FD
:1009700046D0032804BF41F20021C0F27A0143E0CF
:10098000042857D008285BD141F20022C0F27A0235
:100990005BE000BF59F8081C8907A6D5D9F80010FC
:1009A00021F003010843C9F80000FFF723FE0646C3
:1009B00041F28837D9F80000616800F00C00B0EB14
:1009C000810F15D0FFF716FE801BB842F2D9032025
:1009D00001B0BDE8F08300BF59F8081C89037FF51A
:1009E00084AFDBE759F8081C49057FF57EAFD5E7F2
:1009F000206800F0020100297FF43DAF49E700BF05
:100A000042F20041C0F2F401D9F80400D9F8042000
:100A1000C0F30210C2F306225143D9F8042001307A
:100A2000B1FBF0F0C2F34161022202EB4101B0FBE5
:100A3000F1F20AE042F20042C0F2F40205E000BF27
:100A4000002200210C283FF48EAFD9F8000042F2BA
:100A50000C31C0F30310C0F60001085C00F01F0069
:100A600022FA00F140F20400C2F2000040F2080253
:100A70000068C2F20002116001B0BDE8F043FFF768
:100A8000E5BD00002DE9F04383B0002800F00683A7
:100A900041F200060446C4F20206B068F16822780A
:100AA00000F00C09D00601F003081DD42078C0071F
:100AB00000F08180B9F1080F76D0B9F10C0F08BFB2
:100AC000B8F1030F70D06068B0F5803F07D0B0F583
:100AD000A02F40F01982306840F4802030603068E8
:100AE00040F4803030601AE2B9F1000F1ED0B9F145
:100AF0000C0F08BFB8F1010F18D0A16930680029A8
:100B000000F0AE8140F001003060FFF773FD054654
:100B10003068800700F1B681FFF76CFD401B0228AA
:100B20004FF00300F4D903B0BDE8F08330688007CC
:100B300003D5A069002800F0B182256A306800075B
:100B400000F11E81D6F89400000900F0F000854203
:100B500000F21C813068B9F1000F40F008003060ED
:100B6000306820F0F00040EA050030607068E1690C
:100B700020F47F4040EA0120706040F07D82B06D3B
:100B8000C00000F11982B06D40F08050B065B06DCA
:100B900000F0805002900298FFF71AFEB16D21F02C
:100BA0008051B1650AE200BF3068800303D56068F8
:100BB000002800F07382207880072DD5B9F1040F4A
:100BC0001CD0B9F10C0F08BFB8F1020F16D0E168C4
:100BD0003068002900F0B28140F480703060FFF787
:100BE00009FD0546306840050FD4FFF703FD401BA3
:100BF00002284FF00300F5D995E700BF30684005A3
:100C000003D5E068002800F049827068216920F06F
:100C1000F85040EA01607060207800075ED42078C8
:100C2000400771D4A06A002800F0E282022840F058
:100C3000DF80F068E16A00F003028A4240F0F08051
:100C4000226B6FF00F0300F0700103EB0212914270
:100C500040F0E680616B00F4FE42B2EB012F40F001
:100C6000DF80A16B00F40032073918BF01218A42EE
:100C700040F0D680E26B0023CFF6E07303EA025225
:100C800000F4C001A2F50012914240F0C980216C2D
:100C90004FF07E4202EA016100F0C06001F17E4146
:100CA000884240F0BD803068800100F1A182306848
:100CB00040F080703060F06840F08070F060FFF7C6
:100CC00099FC04463068800100F19282FFF792FCA3
:100CD000001B02284FF00300F4D924E76169D6F81D
:100CE000940000296ED040F00100C6F89400FFF790
:100CF00081FC0546D6F89400800790D4FFF77AFC73
:100D0000401B0228F6D9FBE0B06D10F0805808D1E6
:100D1000B06D40F08050B065B06D00F08050009034
:100D2000009847F20007C4F200073868C00513D4E2
:100D3000386840F480703860FFF75CFC054600BFFF
:100D40003868C00508D4FFF755FC401B02284FF057
:100D50000300F5D9E7E600BFA068012808D0052800
:100D600040F0B080D6F8900040F00400C6F8900043
:100D7000D6F8900040F00100C6F89000B1E000BF46
:100D8000306800F0F00085427FF6E4AEB06DC00040
:100D900000F18A80B06D40F08050B065B06D00F019
:100DA000805001900198FFF713FDB16D21F0805143
:100DB000B165B0F5007F00F07D80802D40F2D080DD
:100DC0000320D8E020F00100C6F89400FFF712FCE1
:100DD000054600BFD6F8940080077FF520AFFFF7E7
:100DE00009FC401B02284FF00300F3D99BE600BF2B
:100DF000B9F10C0F00F05281306820F08070306043
:100E0000FFF7F8FB044600BF3068800140F1E48042
:100E1000FFF7F0FB001B02284FF00300F4D982E635
:100E2000B9F10C0F00F03A81306840015CBF3068C6
:100E30005FEAC00000F13281306820F080703060DD
:100E4000FFF7D8FB05463068800140F18F81FFF73E
:100E5000D1FB401B02284FF00300F4D963E600BF2A
:100E600020F001003060FFF7C5FB054630688007C1
:100E70007FF51CAEFFF7BEFB401B02284FF00300BE
:100E8000F4D950E6306840F0080030603068D4E9AA
:100E9000072120F0F00008433060706820F47F40A4
:100EA00040EA0220706001E6FFF792FCB0F5007F97
:100EB0007FF483AF812D5DD30120A02D88BF022058
:100EC00059E000BFD6F89010002821F00101C6F8C3
:100ED0009010D6F8901021F00401C6F8901000F0A0
:100EE0008780FFF787FB054641F28837D6F89000E8
:100EF000800700F18F80FFF77DFB401BB842F5D9DA
:100F0000032003B0BDE8F0833168002821F480316C
:100F10003160316821F48021316000F08580FFF775
:100F200069FB0546306880033FF545AEFFF762FB7D
:100F3000401B64284FF00300F4D9F4E520F48070DE
:100F40003060FFF757FB0546306840057FF564AE1B
:100F5000FFF750FB401B02284FF00300F4D9E2E5F5
:100F6000A5F17000B0FA80F04009802D08BF022082
:100F700001E000BF002042F20001C4F202010A6851
:100F800022F0070202440A60096801F00701814269
:100F900040F08480306840F0080030603068D4E968
:100FA000072120F0F00008433060706820F47F4093
:100FB00040EA022070605FE0FFF70AFCB0F5007FB6
:100FC00006D1812D40D30120A02D88BF022045E00D
:100FD000802D3BD9032041E0F0684FF6FC71CFF63D
:100FE000EE610840F060002003B0BDE8F08300BF70
:100FF000FFF700FB054641F28837D6F890008007DE
:1010000008D5FFF7F7FA401BB8424FF00300F4D9B8
:1010100089E500BFB8F1000F7FF404AEB06D20F099
:101020008050B065FEE500BFFFF7E4FA0546306882
:1010300080037FF5C0ADFFF7DDFA401B64284FF059
:101040000300F4D96FE500BF002007E0A5F17000B0
:10105000B0FA80F04009802D08BF022042F2000162
:10106000C4F202010A6822F0070202440A60096819
:1010700001F00701814211D1B068F16810F00C0055
:1010800005D00C282AD101F00301012926D13168AD
:10109000090707D4D6F89410090A05E0012003B027
:1010A000BDE8F0833168090942F21C3201F00F01FA
:1010B000C0F6000252F8211000280A4618BF00228C
:1010C0000C2837D1F06800F00300022810D0032864
:1010D00004BF41F20021C0F27A010DE004281FD0C4
:1010E000082823D141F20022C0F27A0222E000BF98
:1010F00042F20041C0F2F401F068F268C0F302105D
:10110000C2F306225143F2680130B1FBF0F0C2F3A2
:101110004161022202EB4101B0FBF1F20AE000BFA3
:1011200042F20042C0F2F40204E000BF00220021BB
:101130000C28C7D0B06842F20C31C0F30310C0F6DF
:101140000001085C00F01F0022FA00F140F20400E8
:10115000C2F2000040F208020068C2F20002116010
:10116000FFF774FA00287FF4DEAC9FE4F06848F2E1
:101170008C01CFF69D1104F12C0700EA010C8ECFF3
:10118000D4E90F546FF00F0040F2000E00EB021094
:10119000CFF6E07E41EA0C010EEA05554FF07E42A3
:1011A0000843A5F5001502EA046240EA032002F1B3
:1011B0007E420EF5F014284304EA473710433843C3
:1011C000F060306840F080703060F06840F080700F
:1011D000F060FFF70FFA04463068800108D4FFF78B
:1011E00009FA001B02284FF00300F5D99BE400BF69
:1011F000002003B0BDE8F083002804BF0120704741
:10120000B0B50446406A28B10020206104F1140002
:1012100006E000BF6068B0F5827F03D004F11C00D7
:10122000002101600025A56294F85D0020B92046E8
:1012300084F85C5000F04EF8022084F85D002068CD
:10124000D4F80CE00268BEF5E06F22F040020260C4
:101250004EF4006298BF0125B2F5706F1CBF0023E9
:10126000A3624FEA053CD4E90135D4E9042103F433
:10127000827305F404452B4402F002021A44A36968
:1012800001F00101E569114403F40072114405F015
:101290003802256A114405F08002A56A114405F45C
:1012A0000052114301600421626A0EF4706501EA84
:1012B0001341636B45EA0C0502F01002294303F069
:1012C000080311431943416000200121206684F87E
:1012D0005D10B0BD80B586B0006843F60041C4F231
:1012E0000001884202D006B080BD00BF41F24C0030
:1012F000C4F20200C16841F40041C160C16801F458
:10130000004101910199016841F004010160006808
:1013100001A900F00400019001984FF4E050019001
:1013200002200290002003900320049006200590E4
:1013300040F60000C4F60000FFF76EF806B080BD6E
:101340002DE9F04381B01E4615460F460446FFF7CF
:1013500051F994F85D10814601290DD06068B0F50F
:10136000827F15D1A06800284FF0020008BF042931
:1013700002D001B0BDE8F083002F4FF0010018BF8C
:10138000002DF6D0002EF4D094F85C00012803D193
:10139000022001B0BDE8F083012084F85C0094F8DD
:1013A0005D0004281CBF052084F85D000020206635
:1013B0002564A4F84660A4F84460A763E687C4E9FE
:1013C00013002068A687E1684268B1F5E06F22F457
:1013D0008052134698BF03F58053012E88BF1346F1
:1013E00043600268520603D4026842F04002026081
:1013F0006268731EB2FA82F2B3FA83F3DDF82080DA
:1014000052095B09B1F5E06F43EA02016CD931B1D1
:1014100037F8021BC160A763E08F0138E087012520
:1014200018F1010035D101E0FFF7E4F8E08F20B9B1
:10143000B4F84600002800F0CD8020688168890754
:101440000CD5E18F51B1012D08D1A16B002531F8E8
:10145000022BC260A163E18F0139E1878168C9076E
:10146000E2D0B4F846100029DED0C068216C012516
:1014700021F8020B2164B4F846000138A4F84600B4
:10148000D2E700BFFFF7B6F8A0EB0900404580F0B7
:101490009780E08F20B9B4F84600002800F09A80C9
:1014A0002068816889070CD5E18F51B1012D08D1E1
:1014B000A16B002531F8022BC260A163E18F0139D5
:1014C000E1878168C907DDD0B4F846100029D9D07A
:1014D000C068216C012521F8020B2164B4F8460094
:1014E0000138A4F84600CDE789B1E18F02294FF613
:1014F000FE7103D337F8022BC26004E03A78013161
:101500000273A06B471CA763E08F0844E0870126A5
:1015100008F10105E08F18B9B4F84600002859D049
:1015200020688168890719D5E18FB9B1012E15D1DD
:10153000E28FA16B022A07D331F8022BC260A163AC
:10154000E18F023908E000BF09780173A16B2068C0
:101550000131A163E18F01390026E1878168C90764
:1015600026D0B4F8461019B3B4F84610022913D3A4
:10157000C168226C22F8021B2264B4F846100239BA
:10158000A4F84610B4F84610012910D8416841F477
:10159000805141600BE000BF007B216C0870206C23
:1015A00001302064B4F846000138A4F84600012652
:1015B000FFF720F8002DADD0A0EB09004045A9D3DE
:1015C000012084F85D00002084F85C00032001B055
:1015D000BDE8F08320464FF4C05142464B4600F030
:1015E000EDFB68B9204641464A4600F0ABFC38B9ED
:1015F00020464FF4C06142464B4600F0DFFB68B125
:10160000206E40F02000206620202066002084F814
:101610005C00012001B0BDE8F08300BF012084F828
:101620005D00002084F85C00206E002818BF0120B7
:1016300001B0BDE8F0830000411E0020B0EB116F47
:101640001CBF012070474EF21002CEF20002516022
:101650004EF62351CEF20001F0230B70072190606B
:1016600011607047FEE700002DE9F04184B040F6BC
:101670000045C4F6000504462846042100224FF028
:101680000008FEF7B1FF40F288061A20C2F20006F9
:101690008DF80D0064270DF10D0103AA30460123DA
:1016A0000097FFF74DFE0DF10F010DF10E023046D0
:1016B00001238DF80F800097FFF742FE2846042192
:1016C0000122FEF791FF42F29300208002AF0C202E
:1016D000214602222346009700F084F910B104B09D
:1016E000BDE8F08120786178A278E37848405040E6
:1016F00021795840401A18BF0120400004B0BDE8CD
:10170000F0810000F0B583B040F60044C4F6000458
:10171000204604210122FEF767FFA4F58060042122
:101720000122FEF761FF2046042100220027FEF778
:101730005BFF40F288050220C2F200058DF80B0025
:1017400064260DF10B010DF10A02284601230096D3
:10175000FFF7F6FD0F208DF80B000DF10B010DF1D9
:101760000A02284601230096FFF7EAFD20460421DD
:101770000122FEF739FF204604210022FEF734FF44
:1017800054208DF80B000DF10B010DF10A022846D3
:1017900001230096FFF7D4FD8D208DF80B000DF18D
:1017A0000B010DF10A02284601230096FFF7C8FD40
:1017B000204604210122FEF717FF204604210022C3
:1017C000FEF712FF56208DF80B000DF10B010DF105
:1017D0000A02284601230096FFF7B2FD3E208DF84D
:1017E0000B000DF10B010DF10A02284601230096B2
:1017F000FFF7A6FD204604210122FEF7F5FE204654
:1018000004210022FEF7F0FE5A208DF80B000DF1A6
:101810000B010DF10A02284601230096FFF790FD07
:101820001E208DF80B000DF10B010DF10A02284668
:1018300001230096FFF784FD204604210122FEF7D4
:10184000D3FE204604210022FEF7CEFE58208DF85C
:101850000B000DF10B010DF10A0228460123009641
:10186000FFF76EFD0DF10B010DF10A022846012371
:101870008DF80B700096FFF763FD204604210122CE
:10188000FEF7B2FE204604210022FEF7ADFE2A201C
:101890008DF80B000DF10B010DF10A022846012312
:1018A0000096FFF74DFD40208DF80B000DF10B0168
:1018B0000DF10A02284601230096FFF741FD20465C
:1018C00004210122FEF790FE204604210022FEF7AB
:1018D0008BFE22208DF80B000DF10B010DF10A0299
:1018E000284601230096FFF72BFD3D208DF80B00C5
:1018F0000DF10B010DF10A02284601230096FFF7B6
:101900001FFD204604210122FEF76EFE2046042121
:101910000022FEF769FEA8208DF80B000DF10B01E7
:101920000DF10A02284601230096FFF709FD0DF18B
:101930000B010DF10A02284601238DF80B70009669
:10194000FFF7FEFC204604210122FEF74DFE142085
:10195000032100F061FB03B0F0BD00002DE9F04170
:1019600084B040F60048C4F600080C4605464046E0
:1019700004210022FEF738FE40F288071A20C2F246
:1019800000078DF80D0064260DF10D0103AA3846FD
:1019900001230096FFF7D4FC07208DF80F000DF10E
:1019A0000F010DF10E02384601230096FFF7C8FC27
:1019B000404604210122FEF717FE02AF0C2021460B
:1019C000012223462570009700F00CF80299102997
:1019D000014618BF0221002818BF0221084604B0A2
:1019E000BDE8F0812DE9F04F87B017460C288846F6
:1019F0000293049006D00E2808D1112005901220E1
:101A000007E000BF31200590772002E0012005901B
:101A1000002040F60046C4F60006039000F1800561
:101A200030460421002204244FF00009FEF7DCFDBB
:101A300040F2880AC2F2000A8DF81B4064240DF1BE
:101A40001B010DF11A02504601230094FFF778FCA8
:101A50000DF11B010DF11A02504601238DF81B50A8
:101A60000094FFF76DFC304604210122FEF7BCFD17
:101A700004208021FEF75EFC0A20802100F0CCFAD1
:101A8000304604210022FEF7AFFD02208DF81B0036
:101A90000DF11B010DF11A02504601230094FFF7CE
:101AA0004FFC0DF11B010DF11A02504601238DF878
:101AB0001B900094FFF744FC304604210122FEF7FE
:101AC00093FD67B340F2880AA8F10105C2F2000A4B
:101AD0000DF11B090DF11A0815F801BF304604215C
:101AE00000226424FEF780FD12208DF81B00504672
:101AF0004946424601230094FFF722FC64245046E5
:101B00004946424601238DF81BB00094FFF718FCAC
:101B1000304604210122FEF767FD013FDCD130464B
:101B200004210022FEF760FD40F288070220C2F285
:101B300000078DF81B000DF11B010DF11A0238464C
:101B400001230094FFF7FCFB049D0DF11B010DF137
:101B50001A02384601238DF81B500094FFF7F0FB62
:101B6000304604210122FEF73FFD0C2D03D10D204C
:101B7000802100F051FA4FF6300540F28809CFF687
:101B8000FF754FF088084FF0640AC2F200090DF1AA
:101B90001B0B0DF11A0400BF304604210022FEF792
:101BA00023FD48465946224601238DF81B80CDF877
:101BB00000A0FFF7C5FB00208DF81B0048465946E2
:101BC00022460123CDF800A0FFF7BAFB9DF81A705A
:101BD000304604210122FEF707FD013538D2059871
:101BE0003842D9D00D208021FEF7A4FB30460421D5
:101BF00000224FF00008FEF7F7FC40F288048C202A
:101C0000C2F200048DF81B0064250DF11B010DF1DB
:101C10001A02204601230095FFF792FB0DF11B01EC
:101C20000DF11A02204601238DF81B800095FFF765
:101C300087FB9DF81A40304604210122FEF7D4FCB0
:101C400014F01B0F0ED00225284607B000F0ADB8E7
:101C50000D208021FEF76EFB0225284607B000F01C
:101C6000A4B800BF0398049938400C2900F001057E
:101C7000EAD13046042100224FF00008FEF7B4FC00
:101C800040F288049420C2F200048DF81B004FF04B
:101C9000640A0DF11B010DF11A0220460123CDF853
:101CA00000A0FFF74DFB0DF11B010DF11A022046BC
:101CB00001238DF81B80CDF800A0FFF741FB9DF8B4
:101CC0001A70304604210122FEF78EFC30460421B2
:101CD0000022FEF789FC98208DF81B000DF11B01F6
:101CE0000DF11A0220460123CDF800A0FFF728FBD2
:101CF0000DF11B010DF11A02204601238DF81B8006
:101D0000CDF800A0FFF71CFB9DF81A4030460421D7
:101D10000122FEF769FC14F0070040EAC700A0F1B9
:101D2000080008BFF800102F3C4628BF1024002FE1
:101D3000109908BF0124002C086085D0029840F259
:101D4000880BA0F10108C2F2000B0DF11B070DF189
:101D50001A090595304604210022FEF745FC922021
:101D60008DF81B00584639464A460123CDF800A09D
:101D7000FFF7E6FA00208DF81B00584639464A4620
:101D80000123CDF800A0FFF7DBFA9DF81A5030468A
:101D900004210122FEF728FC013C08F8015FD9D19B
:101DA000059D284607B000F000B830BCBDE8C08FE4
:101DB000FEE70000FEE70000704700002DE9F04755
:101DC00082B000261F4690460D4681468DF803607E
:101DD000FEF710FC381A00EB0807FEF70BFC40F288
:101DE0000801C2F20001096823225143090DD9F804
:101DF000004079430191A168294271D0824618F1CF
:101E0000010037D0B5F5C06F1CD100BF207B8DF825
:101E100003009DF80300FEF7EDFBA0EB0A00B842BB
:101E200062D2019801990028A1F101010191D9F82C
:101E30000010896808BF074611F4C06FE6D100267C
:101E40004EE000BFFEF7D6FBA0EB0A00B8424BD233
:101E5000019801990028A1F101010191D9F8001020
:101E6000896808BF07462942ECD10026304602B0F7
:101E7000BDE8F0870026B5F5C06F25D1207B8DF831
:101E800003009DF80300A06810F4C06FEDD0207B24
:101E90008DF803009DF80300A06810F4C06FE4D033
:101EA000207B8DF803009DF80300A06810F4C06F3C
:101EB000DBD0207B8DF803009DF80300A06810F4B0
:101EC000C06FDBD10CE000BFA0682842CDD0A06875
:101ED0002842CAD0A0682842C7D0A0682842F3D1BF
:101EE000304602B0BDE8F087D9E900014268B1F59B
:101EF000827F22F0E00242600BD1D9F80810B1F5E0
:101F0000004F02D0B1F5806F03D1016821F040018C
:101F10000160D9F82810B1F5005F07D1016821F4FC
:101F200000510160016841F400510160012089F80D
:101F30005D00002089F85C000326304602B0BDE851
:101F4000F0870000F0B581B015460E460446FEF756
:101F500051FB281A8719FEF74DFB40F20801C2F227
:101F600000010968C1F3CB317943009121688A6887
:101F7000120622D50546701C15D000BFFEF73AFBAD
:101F8000401BB8421CD2009800990028A1F1010121
:101F900000912168896808BF07460806EED40CE066
:101FA0008868000609D58868000606D58868000696
:101FB00044BF88685FEA0060F2D4002001B0F0BD41
:101FC000D4E900014268B1F5827F22F0E00242606C
:101FD0000AD1A168B1F5004F02D0B1F5806F03D1ED
:101FE000016821F040010160A16AB1F5005F07D1ED
:101FF000016821F400510160016841F40051016061
:10200000012084F85D00002084F85C00032001B00A
:10201000F0BD0000704700002DE9F04784B040F6A5
:102020000048C4F600088A460646404604210022BD
:102030004FF00009FEF7D8FA802040F2880540EA08
:102040004600C2F200058DF8090064240DF1090173
:1020500002AA284601230094FFF772F90DF10B0143
:102060000DF10A02284601238DF80B900094FFF72A
:1020700067F99DF80A70404604210122FEF7B4FA80
:1020800040460421002247EA0A07FEF7ADFA7E2007
:1020900000EA46008DF80D000DF10D0103AA284657
:1020A00001230094FFF74CF90DF10F010DF10E0221
:1020B000284601238DF80F700094FFF741F9404640
:1020C00004210122FEF790FA04B0BDE8F087000079
:1020D000FEF796BA10B596B005A804302421FEF795
:1020E000C3F800244FF400700494CDE90244CDE914
:1020F0000044FEF727FB28B1EFF3108072B600BF53
:10210000FEE700BFFEF76CFB41F29000C4F2020054
:10211000016821F018010160142090210590012030
:102120000D9102210790CDE90B04CDE90F10052098
:102130001190222012900720CDE91301062015905E
:1021400005A8FEF79FFC28B1EFF3108072B600BF20
:10215000FEE700BF0F200090032001900020CDE992
:102160000200049068460121FEF74EFB20B1EFF318
:10217000108072B6FEE700BFFEF73CFB16B010BD44
:102180004EF68850CEF20000016841F47001016003
:1021900070470000FEE7000086B0FEF73FFAFFF749
:1021A00099FF002641F24C000596C4F20200016836
:1021B00040F6000441F0040101600168C4F6000427
:1021C00001F00401009100990168002241F008012A
:1021D00001600068042100F008000090009820468B
:1021E0004FF0040AFEF700FA04F580652846042142
:1021F00001220127FEF7F8F90DF104084FF0030959
:1022000020464146CDE901A70396CDF81090FEF790
:1022100003F928464146CDE901A7CDE90369FEF758
:10222000FBF840F27005C2F2000543F60041C4F22B
:102230000001284640F8181F4FF482714FF4E06205
:102240004FF400733824C0E90116C0E903260721C2
:102250000822C0E90563C0E90746C0E90966C0E98C
:102260000B164263FEF7C8FF20B1EFF3108072B681
:10227000FEE700BFFFF746FAEC1D4FF0020801E051
:1022800085F8019026202146FFF768FB287020463C
:10229000FFF7EAF92870D5F80700E97AC5F80200D7
:1022A0006420A971FEF7A4F8EE792B7A6A7AA97AEC
:1022B000E87A712E08BFDF2B0AD1312A08D1022912
:1022C00006D19D2804D164206F70FEF791F8D9E7FC
:1022D000732E08BFE92BD3D13B2AD1D1DA29CFD134
:1022E0007B28CDD14FF4FA6085F80180FEF780F8A5
:1022F000C8E7F1EE100A4FF6FF71C0F2C03120EAD4
:10230000010040F04070E1EE100A7047000000004C
:10231000000000000102030406070809A08601006E
:10232000400D0300801A060000350C0040420F00EB
:1023300080841E0000093D0000127A000024F40091
:1023400000366E010048E801006CDC0270230008D2
:102350000000002010000000C401000880230008D5
:1023600010000020E0060000E0010008000000006E
:10237000010000001000000000093D000000000006
:040000050800018965
:00000001FF
