:020000040800F2
:10000000380B0020890100089101000893010008C5
:100010009501000897010008990100080000000000
:100020000000000000000000000000009B0100082C
:100030009D010008000000009F010008A1010008C8
:10004000A3010008A3010008A3010008A301000800
:10005000A3010008A3010008A3010008A3010008F0
:10006000A3010008A3010008A3010008A3010008E0
:10007000A3010008A3010008A3010008A3010008D0
:10008000A3010008A3010008A3010008A3010008C0
:10009000A3010008A3010008A3010008A3010008B0
:1000A000A3010008A3010008A3010008A3010008A0
:1000B000A3010008A3010008A3010008A301000890
:1000C000A3010008A3010008A3010008A301000880
:1000D000A3010008A3010008A3010008A301000870
:1000E000A3010008A3010008A301000800F002F822
:1000F00000F03AF80AA090E8000C82448344AAF188
:100100000107DA4501D100F02FF8AFF2090EBAE885
:100110000F0013F0010F18BFFB1A43F0010318473B
:10012000A01E0000C01E0000103A24BF78C878C18D
:10013000FAD8520724BF30C830C144BF04680C60ED
:10014000704700000023002400250026103A28BF35
:1001500078C1FBD8520728BF30C148BF0B60704739
:100160001FB51FBD10B510BD00F031F81146FFF7E7
:10017000F7FF01F0EEFC00F04FF803B4FFF7F2FFD9
:1001800003BC00F057F800000948804709480047C1
:10019000FEE7FEE7FEE7FEE7FEE7FEE7FEE7FEE737
:1001A000FEE7FEE704480549054A064B7047000094
:1001B000D9060008ED00000838050020380B0020A3
:1001C0003807002038070020704770477047754691
:1001D00000F02CF8AE4605006946534620F00700B3
:1001E000854618B020B5FFF7DDFFBDE820404FF091
:1001F00000064FF000074FF000084FF0000B21F011
:100200000701AC46ACE8C009ACE8C009ACE8C009DD
:10021000ACE8C0098D46704710B50446AFF30080C6
:100220002046BDE81040FFF7A8BF00000048704717
:10023000D404002001491820ABBEFEE726000200CE
:10024000704700000EB50121022000F0A7F8002041
:10025000ADF806000720ADF800004FF6FF70ADF8CE
:1002600004000020ADF802000121044800F064FA07
:100270006946024800F06CFA0EBD00000004004020
:100280002DE9F0410246002500260020002300242D
:10029000002791F803C00CF00F0591F803C00CF093
:1002A000100CBCF1000F03D091F802C04CEA050518
:1002B00091F800C0BCF1000F31D0146800202BE091
:1002C0004FF0010C0CFA00F3B1F800C00CEA030681
:1002D0009E4220D183004FF00F0C0CFA03F7BC4371
:1002E00005FA03FC4CEA040491F803C0BCF1280FA2
:1002F00006D14FF0010C0CFA00FCC2F814C00AE061
:1003000091F803C0BCF1480F05D14FF0010C0CFA75
:1003100000FCC2F810C0401C0828D1D31460B1F80A
:1003200000C0BCF1FF0F34DD546800202EE000F166
:10033000080C4FF0010808FA0CF3B1F800C00CEA01
:1003400003069E4221D183004FF00F0C0CFA03F7F5
:10035000BC4305FA03FC4CEA040491F803C0BCF169
:10036000280F05D100F1080C08FA0CF8C2F8148027
:1003700091F803C0BCF1480F07D100F1080C4FF011
:10038000010808FA0CF8C2F81080401C0828CED3E7
:100390005460BDE8F08101617047000029B1064A50
:1003A000D2690243044BDA6104E0034AD269824312
:1003B000014BDA61704700000010024029B1064A83
:1003C00092690243044B9A6104E0034A92698243B2
:1003D000014B9A61704700000010024000B587B0E1
:1003E00001210820FFF7EAFF01218803FFF7D6FF6C
:1003F0004FF42040ADF8180003208DF81A001820A3
:100400008DF81B0006A92448FFF73AFF4FF48040FF
:10041000ADF8180003208DF81A0004208DF81B0099
:1004200006A91D48FFF72CFF4FF48050ADF81800C7
:1004300003208DF81A0010208DF81B0006A916481D
:10044000FFF71EFF4FF480511348FFF7A4FF182059
:10045000ADF810000020ADF80C00ADF80A00ADF8C2
:100460000800ADF812004FF40070ADF80E004FF424
:100470008270ADF806000020ADF804000720ADF84A
:10048000140001A9054800F095F80121034800F087
:1004900085F807B000BD0000000C014000380040A6
:1004A0007CB5012224A1254800F0FAFD044624B1C0
:1004B000214623A001F097FB7CBD6A4601A91EA03E
:1004C00000F044FD04469CB900984069801E0099E4
:1004D000498900FB01F600984089019900FB01F56C
:1004E00071081CA001F07FFB69081EA001F07BFBD6
:1004F000012220A1224800F003FE044624B1214637
:1005000020A001F070FB0FE003E0224922A001F0DF
:100510006AFB1B4A40211F4800F096FD0028F4D1D9
:10052000174800F0FDFC00BF002203A1104600F0B8
:10053000B7FD00BFC0E70000000000000800002079
:100540004D6F756E74206661696C3A2025640D0AE2
:1005500000000000546F74616C3A20256C75204BCC
:10056000420D0A0046726565203A20256C75204BC5
:10057000420D0A00646174612E74787400000000FA
:10058000380200204F70656E206661696C3A202544
:10059000640D0A00680400202573000021B1028860
:1005A00042F04002028004E002884FF6BF731A4016
:1005B0000280704710B50022028802F441520B8875
:1005C0004C8823438C882343CC8823430C892343C2
:1005D0004C8923438C892343CC8923431A430280CB
:1005E000838B4FF2FF74234083830B8A038210BDF9
:1005F00010B500F001F810BD0CB50020019000907E
:100600003348006840F480303149086000BF30480A
:10061000006800F4003000900198401C01900098A0
:1006200018B90198B0F5A06FF1D12948006800F41D
:10063000003010B10120009001E0002000900098EF
:10064000012843D12348006840F010002149086088
:100650000846006820F0070008600846006840F07F
:10066000020008601A484068194948600846406816
:1006700048600846406840F480604860084640682A
:1006800020F47C1048600846406840F4E810486058
:100690000846006840F08070086000BF0C480068A1
:1006A00000F000700028F9D00948406820F00300ED
:1006B000074948600846406840F00200486000BFB3
:1006C0000348406800F00C000828F9D10CBD000078
:1006D000001002400020024010B51348006840F0AE
:1006E00001001149086008464068104908400E4959
:1006F0004860084600680E4908400B4908600846F3
:10070000006820F4802008600846406820F4FE005D
:1007100048604FF41F008860FFF76AFF4FF00060E9
:100720000449086010BD0000001002400000FFF8FE
:10073000FFFFF6FE08ED00E021B1028842F0010261
:10074000028004E002884FF6FE731A400280704770
:10075000002202881D4B98420ED01D4B98420BD0B0
:10076000B0F1804F08D01B4B984205D01A4B9842ED
:1007700002D01A4B984204D14FF68F731A404B881F
:100780001A43174B984207D0164B984204D04FF6A5
:10079000FF431A40CB881A4302808B8883850B88DD
:1007A00003850A4B98420BD0094B984208D00E4B58
:1007B000984205D00D4B984202D00D4B984201D182
:1007C0000B7A03860123838270470000002C0140CE
:1007D000003401400004004000080040000C0040CC
:1007E000001000400014004000400140004401405F
:1007F0000048014070B504460D460020E070401EE0
:10080000E0622946204601F0D4F908B1042070BD09
:1008100004F22E2001F097F94AF65521884201D0C2
:100820000320F4E794F83000E92807D094F830006A
:10083000EB2817D13220005D902813D104F1660017
:1008400001F075F920F07F400749884201D100206E
:10085000DDE704F1820001F06AF90449884201D120
:100860000020D4E70220D2E74641540046415433E9
:10087000024600E0521C107810B110788842F9D17D
:100880001078704730B502460B46002004460146FA
:100890001CE01A4800EB01100068A8B1174800EBF3
:1008A000011000681568A8420FD1144800EB011030
:1008B00040689568A84208D1104800EB0110806894
:1008C0005569A84201D103E00124491C0229E0D363
:1008D00000BF022906D10CB9022B01D1002030BD86
:1008E0001220FCE733B9054800EB01108089B0F510
:1008F000807F01D11020F2E70020F0E7A80400205B
:10090000014600200BE0074A02EB001212688A42FF
:1009100004D10022034B03EB00131A60401C022891
:10092000F1D37047A8040020F0B503460D461E68B9
:10093000D86A021D680A7789B0FBF7F400BF02CAC3
:1009400009B90020F0BD8C4200D202E0641A121DE9
:10095000F5E700BF10682044F4E70246891E50699D
:10096000801E884201D8002070475389906A01FB9D
:100970000300F9E72DE9F04782468946DAF800409E
:10098000B9F1000F06D1E76817B16069B84215D810
:10099000012713E04946504600F0C1FF0646022EEB
:1009A00002D20120BDE8F087701C08B93046F9E793
:1009B0006069B04201D93046F4E74F463D4600BF7A
:1009C0006D1C6069A84204D80225BD4201D90020EF
:1009D000E8E72946504600F0A2FF064606B909E0BE
:1009E000012E01D0701C08B93046DBE7BD42E7D1CB
:1009F0000020D7E700BF4FF0FF322946204601F024
:100A0000F3F88046B8F1000F08D1B9F1000F05D016
:100A10002A464946204601F0E7F88046B8F1000F23
:100A20000DD1E560D4E90410801E814202D820690E
:100A3000401E2061207940F00100207107E0B8F1EC
:100A4000010F02D14FF0FF3000E00120054628469B
:100A5000A8E700002DE9F05F82468846D8F80070CC
:100A60000AF124050B222021284601F099F80020E4
:100A7000814606464FF0080B00BF3046761C3C5CB2
:100A8000202C00DC36E02F2C01D05C2C08D100E0BB
:100A9000761CB85D2F28FBD0B85D5C28F8D029E023
:100AA0002E2C01D0D9450CD3BBF10B0F01D02E2C2D
:100AB00002D00620BDE8F09F4FF008094FF00B0B65
:100AC000DBE7802C03DBA4F1800015490C5C214698
:100AD00014A0FFF7CDFE08B10620EBE7612C04DB84
:100AE0007A2C02DCA4F12000C4B2484609F10109C5
:100AF0002C54C2E700BFB819C8F80000B9F1000FC4
:100B000001D10620D6E72878E52801D105202870F4
:100B1000202C01DC042000E00020E8720020C9E75E
:100B2000221F0008222A2B2C3A3B3C3D3E3F5B5DB6
:100B30007C7F000010B50246531E1A46022B17D2C6
:100B40000C4B03EB02139989B1F5807F00D1002192
:100B5000002901DD4B1E99B2064B03EB021399816C
:100B600021B90023034C04EB02142360002000E0B1
:100B7000022010BDA80400202DE9F04104460E46D5
:100B8000D4F800800021204600F000F90546EDB9B8
:100B9000002700BF4046E16901F00BF8054605B1AA
:100BA00013E0206A0078E52802D0206A007820B996
:100BB000781C0746B04201D107E0002701212046FA
:100BC00000F040F80546002DE4D000BF042D00D110
:100BD00007252846BDE8F0812DE9F0410446276845
:100BE0000021204600F0D2F8054615B12846BDE8A0
:100BF000F08100BF3846E16900F0DBFF054605B132
:100C00001DE0206A06780EB9042518E0206AC07A33
:100C100000F03F00A071206AC07A00F0080038B9E7
:100C20000B2204F12401206A00F09BFF00B906E0CA
:100C30000021204600F006F80546002DDAD000BF5E
:100C40002846D4E72DE9F0470446894625686069BF
:100C500000F12007E06910B1B7F5001F02D30420AE
:100C6000BDE8F087C7F30800002868D1E069401CA0
:100C7000E061A06938B92889B0EB571F5FD8002020
:100C8000E0610420ECE76889401E00EA5720002854
:100C900055D12046A16900F042FE0646012E01D83A
:100CA0000220DDE7701C08B90120D9E76869B0426D
:100CB0003FD8B9F1000F03D10020E0610420CFE755
:100CC0002046A169FFF756FE06460EB90720C7E782
:100CD000012E01D10220C3E7701C08B90120BFE733
:100CE000284601F0D7F808B10120B9E74FF40072A7
:100CF000002105F1300000F053FF4FF000083146AD
:100D00002846FFF72AFEE8620CE00120E87028463A
:100D100001F0C0F808B10120A2E708F10108E86A73
:100D2000401CE86268894045EFD8E86AA0EB0800FB
:100D3000E862A66131462846FFF70FFEE061676171
:100D4000C7F3080105F1300008442062002087E75E
:100D500070B50446266801212046FFF70DFF0546C1
:100D600095B93046E16900F024FF054665B92022B7
:100D70000021206A00F014FF0B2204F12401206AF4
:100D800000F001FF0120F070284670BD2DE9F04110
:100D900004460D462668B5F5001F02D205F01F0077
:100DA00010B10220BDE8F0816561A7681FB93078F5
:100DB000032800DB776A47B93089B0EB551F01D8AB
:100DC0000220EFE7706AE0611CE070894FEA40287A
:100DD00011E03946204600F0A2FD0746781C08B90C
:100DE0000120DFE7022F02D37069B84201D8022048
:100DF000D8E7A5EB08054545EBD239463046FFF765
:100E0000ACFDE061A761E06908B90220CAE7E069CA
:100E100000EB5520E061C5F3080106F130000844FD
:100E200020620020BEE7000070B504460025084897
:100E3000005D58B901200649085501F10802105D0E
:100E40000A1D52F82420116888470546284670BDBF
:100E5000C80400202DE9F04104460D461646064917
:100E6000085D091F51F8241032460B69294698473E
:100E700007463846BDE8F081D00400202DE9F04156
:100E800004460D4616461F460749085D091F51F8DE
:100E900024103B463246D1F808C02946E047804638
:100EA0004046BDE8F0810000D004002070B5044643
:100EB000044A105D121F52F82420516888470546E5
:100EC000284670BDD00400202DE9F04104460D46AF
:100ED00016461F460749085D091F51F824103B4676
:100EE0003246D1F80CC02946E04780464046BDE86E
:100EF000F0810000D0040020002100E0491C0229FC
:100F000005D2064800EB011000680028F6D102293E
:100F100001D0012070470020FCE70000A804002059
:100F200038B50546284600F0D9FA044664B9694642
:100F3000284600F0D8FF044634B92869FFF7FAFDC7
:100F400004460CB900202860204638BD2DE9F74F33
:100F500086B08946002205A906A800F00FFB82464C
:100F6000BAF1000F6CD10599089801600598D0E995
:100F70000410801E814204D805980069C9F8000059
:100F80005EE000240598007801281BD10225059811
:100F9000009000BF2946684600F0C1FC0646701C60
:100FA00010B94FF0010A0CE0012E02D14FF0020AF5
:100FB00007E006B9641C681C054605994969884222
:100FC000E8D333E0059845690598D0F820B00027AC
:100FD000B84600BF7FB959460BF1010B059800F0E8
:100FE000E8FD8246BAF1000F00D01EE0059800F13E
:100FF00030084FF4007705980078022808D1404661
:1010000000F0A1FD00B9641C08F10208BF1E09E050
:10101000404600F08CFD20F0704000B9641C08F1DF
:1010200004083F1F681E051ED4D100BFC9F8004048
:10103000059804610598007940F001000599087150
:10104000504609B0BDE8F08F2DE9FC4707468846B9
:10105000914600253E4615E06B46012201A948460F
:1010600000F066F90098012800D00FE09DF80440D8
:101070000D2C00D106E006F8014B6D1C0A2C00D1A6
:1010800004E000BFA8F10100A842E5DC00BF002099
:10109000307015B13846BDE8FC870020FBE7000042
:1010A000F7B582B016460398019001A800F0A9FC9C
:1010B0000546002D02DA0B2005B0F0BD0F4850F8B0
:1010C000254024B12046FFF71BFC00202070029829
:1010D00010B10020029908700849029841F82500D3
:1010E000029808B1012E01D00020E5E7002202A9F4
:1010F00003A800F043FA07463846DDE70000002069
:101100002DE9F74F8EB0044616461CB9092011B0E0
:10111000BDE8F08F06F03F06324601A90FA800F0A7
:101120002DFA0546002D79D10198029002A80F9959
:1011300000F0A4FB05468DB99DF8370000F0800053
:1011400008B106250AE026F0010008B1012000E000
:101150000020014602A8FFF795FB054606F01C009B
:1011600000285CD06DB1042D08D1FFF7C5FE18B181
:1011700002A8FFF7EDFD00E01220054646F0080644
:101180000AE09DF80E0000F0110008B1072503E009
:1011900006F0040000B10825002D51D106F008002A
:1011A00000284DD000F02BFC00900A9901F10E00B0
:1011B000009900F014FE0A9901F11600009900F060
:1011C0000EFE20200A99C8720A99019800F09CFC32
:1011D000814600220A99019800F0EFFD0A9901F179
:1011E0001C00002100F0FBFD01200199C870B9F13D
:1011F000000F25D00198C06A00900022494602A83D
:1012000000F08EFD0546DDB9DDE9001000F0D1FCEF
:101210000546A9F101000199C86011E075E07DB9AA
:101220009DF80E0000F0100008B1042508E006F05B
:10123000020028B19DF80E0000F0010000B1072562
:10124000BDB906F0080008B146F040060198C06A32
:1012500060620A98A06226F0010008B1012000E057
:101260000020014602A800F0F1FB2061206900B9CE
:101270000225002D57D10A99019800F045FCA06085
:101280000A9901F11C0000F052FCE0600020E062CD
:10129000019820600198C088A080267500206075A4
:1012A0002062A0614FF40072002104F1300000F0D0
:1012B00077FC06F0200040B3E06830B3E068A0613E
:1012C000019840894FEA402AA768D4F80C800CE0C6
:1012D0003946204600F023FB0746012F00D802259F
:1012E000781C00B90125A8EB0A080DB9D045EFD844
:1012F000E76155B9C8F3080038B139460198FFF7DE
:101300002CFBB0F1000B01D102250CE00BEB5820B7
:101310002062226A01994878012304F13001FFF725
:10132000ADFD00B101250DB1002020602846EEE69C
:101330002DE9FF4F85B0044615469A46DDF818B0F2
:101340000020CAF8000003A9204600F0CCFD04905C
:10135000049810B9607D049018B1049809B0BDE8F4
:10136000F08F207D00F0010008B90720F6E7A169A1
:10137000E068401A01900198854200D9019DA8E0DB
:10138000208BC0F30800002874D103984089401EC8
:10139000A16900EA5129B9F1000F1FD1A06910B964
:1013A000A06802900CE0E06A28B12046A169FFF72E
:1013B000BBFA029004E02046E16900F0B0FA029026
:1013C0000298022802D202206075C7E70298401CEA
:1013D00010B901206075C1E70298E061E1690398E6
:1013E000FFF7BBFA064616B902206075B6E74E4411
:1013F0004FEA5528B8F1000F29D009EB08000399EE
:101400004989884203D903984089A0EB09080399C8
:101410004878434632465946FFF730FD10B1012067
:1014200060759BE7207D00F0800068B1206A801B1A
:10143000404509D2216A891B0BEB41204FF4007211
:1014400004F1300100F09FFB4FEA482737E0206AA3
:10145000B04220D0207D00F0800080B1226A039944
:101460004878012304F13001FFF72EFD18B1012067
:10147000607573E710E0207D00F07F002075039910
:1014800048780123324604F13001FFF7F7FC10B130
:101490000120607562E72662208BC0F30800C0F56A
:1014A0000077AF4200D92F46208BC0F3080204F129
:1014B000300011183A46584600F065FB00BFBB44A7
:1014C000A0693844A061DAF800003844CAF8000086
:1014D000ED1B002D7FF454AF00203FE7F8B5044624
:1014E0006946204600F0FFFC0646002E44D1207DD0
:1014F00000F0400000283FD0207D00F0800070B157
:10150000226A00994878012304F13001FFF7DCFCDE
:1015100008B10120F8BD207D00F07F00207500F0AB
:101520006EFA0746616A009800F043FB06461EBB50
:10153000A56AE87A40F02000E8722946A26820688F
:1015400000F03BFC05F11C00E16800F048FC394666
:1015500005F1160000F043FC002105F1120000F037
:101560004AFC01200099C870009800F04BFC064628
:10157000207D00F0BF0020753046CBE72DE9F74F06
:101580008AB000210B9801600A9800F03AFA08909E
:101590000898002803DA0B200DB0BDE8F08FB3499E
:1015A000089851F820400CB90C20F5E70B9804601E
:1015B0000C9800F0FE000C90207878B16078FFF76E
:1015C00075FC814609F0010040B90C9820B109F082
:1015D000040008B10A20DFE70020DDE700202070CA
:1015E000089860706078FFF71FFC814609F00100E1
:1015F00008B10320D0E70C9820B109F0040008B12D
:101600000A20C9E7002739462046FFF7F3F80546C8
:10161000022D01D02EDA2DE0002614E04FF4DF7009
:1016200000EB061104F13000084409900998007994
:1016300020B10998083000F07AFA00E0002002A9F1
:1016400041F82600761C042EE8D3002606B1761E4B
:1016500000BF02A850F8267027B139462046FFF790
:10166000C9F800E003200546022D03DB701C064686
:101670000428EED3042D01D101208DE7022D01DBDA
:101680000D2089E704F13B0000F05DFAB0F5007F22
:1016900001D00D2080E704F1460000F054FA8046A6
:1016A000B8F1000F04D104F1540000F040FA804674
:1016B000C4F818804020005DA070A078012804D0F4
:1016C000A078022801D00D2066E7A07808FB00F87A
:1016D0003D20005D6081608918B16089411E08402D
:1016E00008B10D2058E704F1410000F02CFA2081E8
:1016F000207A00F00F0008B10D204DE704F14300FF
:1017000000F021FA8246BAF1000F04D104F1500032
:1017100000F00DFA824604F13E0000F014FA019048
:10172000019808B90D2037E701984044218900EB62
:10173000111007900798824501D20D202CE70798D9
:10174000AAEB00006189B0FBF1FBBBF1000F01D1F6
:101750000D2021E703254FF6F570834500D80225BB
:1017600040F6F570834500D801250BF10200606159
:10177000E76101983844206207983844A062032D3D
:1017800013D104F15A0000F0DEF908B10D2003E78F
:10179000208908B10D20FFE604F15C0000F0C7F9D4
:1017A000606260698000069014E0208908B90D200D
:1017B000F2E6206A40446062022D02D16069400076
:1017C00007E0207D00F00100616901EB410100EBC1
:1017D00051000690A169069800F2FF10B1EB502F5E
:1017E00001D20D20D8E64FF0FF302061E06080206C
:1017F0002071032D2CD104F1600000F0A4F9012820
:1018000026D1791C204600F0D4F908BB00202071B5
:1018100004F22E2000F097F94AF65521884217D19C
:1018200004F1300000F083F91149884210D104F529
:10183000057000F07CF90F49884209D104F5067063
:1018400000F075F9206104F5077000F070F9E060B0
:10185000257009480088401C80B207490880E08054
:101860002046FFF74DF8002096E60000000000201B
:101870005252614172724161040000202DE9F3412E
:1018800004462646D6F8008002E00198401C0190EC
:10189000019800782F28F8D0019800785C28F4D0BF
:1018A0000020B06001980078202808D280212F20E5
:1018B000015500212046FFF769FA05462CE000BFDC
:1018C00001A92046FFF7C6F8054605B123E02046EA
:1018D000FFF782F905462F20075D3DB1042D04D1A5
:1018E00000BF07F0040000B9052514E007F004006C
:1018F00000B110E0B07900F0100008B905250AE049
:10190000A08AC0F3080208F130001118404600F028
:10191000FBF8B060D4E700BF2846BDE8FC812DE9A4
:10192000F04781460C46D9F80050022C02D3686972
:10193000A04202D84FF001085EE04FF0FF3828784F
:10194000012804D002282CD0032851D13CE026469F
:1019500006EB5606286A00EB5621284600F029F9C6
:1019600000B148E03046761CC0F3080105F13000B4
:10197000475C286A00EB5621284600F01AF900B1AE
:1019800039E0C6F3080105F13000405C47EA002762
:1019900004F0010008B1380901E0C7F30B008046EC
:1019A00029E0286A00EB1421284600F002F900B172
:1019B00021E040F2FF1101EA440205F13001501824
:1019C00000F0C1F8804616E0286A00EBD4112846E2
:1019D00000F0EFF800B10EE040F2FF1101EA8402DE
:1019E00005F13001501800F0A2F820F0704802E034
:1019F0004FF0010800BF00BF4046BDE8F08700205F
:101A0000704770B502464FF0FF301568DDB11168C0
:101A100000E0491C0D78212D02D30D783A2DF8D124
:101A20000D783A2D0ED1146814F8015BA5F130033E
:101A30000A2B06D28C4204D11BB918464D1C2946EC
:101A4000156070BD002000BFFBE7000010B5024626
:101A50000B46002116E02B4800EB011000681468CB
:101A6000A0420ED1274800EB011040689468A042C4
:101A700007D1244800EB011080685469A04200D1CE
:101A800002E0491C0229E6D300BF022922D100212D
:101A900000E0491C022905D21A4800EB0110006839
:101AA0000028F6D1022901D1002010BD154C04EB0D
:101AB000011410682060134C04EB011490686060FE
:101AC000104C04EB01145069A06000200D4C04EB95
:101AD0000114A08133B10B4800EB0110808908B1DB
:101AE0000020E2E713B14FF4807004E0054800EBFA
:101AF00001108089401C034C04EB0114A081481C98
:101B0000D3E70000A804002070B505460C4604F198
:101B10001A0000F018F806462878032805D104F1C9
:101B2000140000F010F846EA0046304670BD014649
:101B3000C8788A7842EA00204A7842EA00200A7887
:101B400042EA00207047014648780A7842EA0020BD
:101B50007047FEF777FBFEF741FCFEF7A1FC00BFE4
:101B6000FEE7F0B503461D460C46002000BF15F801
:101B7000017B14F801CBA7EB0C00561E321E01D0DE
:101B80000028F4D0F0BD30B503460C463AB100BF92
:101B900014F8015B03F8015B551E2A1EF8D130BD15
:101BA00010B5034600BF03F8011B541E221EFAD1D4
:101BB00010BD70B504460D460026E06AA84210D05C
:101BC000204600F067F906465EB9607801232A4690
:101BD00004F13001FFF752F910B14FF0FF35012643
:101BE000E562304670BD70472DE9F04704460D466A
:101BF00016464FF00209022D74D36069A84271D9CC
:101C00002078012804D0022849D003280DD15EE0B5
:101C10002F4607EB5707206A00EB57212046FFF7B6
:101C2000C8FF8146B9F1000F00D075E038467F1C2F
:101C3000C0F3080104F1300001EB000805F00100D9
:101C400028B1F1B298F8000061F31F1000E03046AF
:101C500088F800000120E070206A00EB5721204640
:101C6000FFF7A7FF8146B9F1000F00D054E0C7F39A
:101C7000080104F1300001EB000805F0010010B18B
:101C8000C6F3071006E098F8000000F0F000C6F375
:101C90000321084388F800000120E0703CE0206A3E
:101CA00000EB15212046FFF784FF8146B9F1000FB4
:101CB00000D031E0B1B240F2FF1202EA450304F174
:101CC0003002981800F097F80120E07024E0206AB4
:101CD00000EBD5112046FFF76CFF8146B9F1000FEC
:101CE00001D019E019E040F2FF1101EA850204F188
:101CF00030015018FFF71BFF66F31B00064640F249
:101D0000FF1101EA850204F130015018314600F05C
:101D100066F80120E07000BF00BF4846BDE8F087CC
:101D20002DE9F04781460E4617464FF00008D9F8D6
:101D30000040022E02D36069B04202D80220BDE802
:101D4000F08767B100BF4FF0FF3239462046FFF7FA
:101D50004BFF8046B8F1000F01D04046EFE700BFCF
:101D600031464846FFF7DBFD054605B922E0012D67
:101D700001D10220E3E7681C08B90120DFE7002257
:101D800031462046FFF730FF8046B8F1000F01D002
:101D90004046D4E7D4E90410801E814206D220696F
:101DA000401C2061207940F0010020712E466069BE
:101DB000B042D5D800BF0020C1E770B506460C463A
:101DC0001546A9B204F11A0000F015F8307803287E
:101DD00004D1290C04F1140000F00DF870BD00F8D6
:101DE000011B090A00F8011B090A00F8011B090A76
:101DF00000F8011B704700F8011B091200F8011BD5
:101E00007047000070B50446204600F043F80546D0
:101E1000002D38D1207803282ED1207901282BD10C
:101E20004202002104F13000FFF7BAFE4AF65521C4
:101E300004F22E20FFF7DFFF144904F13000FFF712
:101E4000CEFF134904F50570FFF7C9FF04F50670CE
:101E50002169FFF7C4FF04F50770E168FFF7BFFFD2
:101E6000E069401CE0626078012304F13001E26A1D
:101E7000FFF72AF800202071607800221146FEF753
:101E8000E9FF00B10125284670BD000052526141B2
:101E9000727241612DE9F04104460027E078F8B103
:101EA000E56A607801232A4604F13001FFF70CF857
:101EB00008B1012714E00020E070206A281AA16907
:101EC00088420DD2A67809E0A06905446078012314
:101ED0002A4604F13001FEF7F7FF761E022EF3D2F8
:101EE0003846BDE8F08170B504460D4609268CB130
:101EF000206878B12068007860B1A0882168C9881E
:101F0000884207D121684878FEF7D0FF00F0010031
:101F100000B900260EB9206800E000202860304695
:101F200070BD4355454141414143454545494949B6
:101F300041414592924F4F4F5555594F554F9C4FE8
:101F40009E9F41494F55A5A5A6A7A8A9AAABACAD90
:101F5000AEAFB0B1B2B3B4414141B8B9BABBBCBD88
:101F6000BEBFC0C1C2C3C4C54141C8C9CACBCCCD24
:101F7000CECFD1D145454549494949D9DADBDCDDE8
:101F800049DF4FE14F4F4F4FE6E8E8555555595956
:101F9000EEEFF0F1F2F3F4F5F6F7F8F9FAFBFCFDE9
:101FA000FEFF0100040010004000000100020000DC
:101FB00001000200040008001000200000000000E2
:101FC000E01F0008000000200800000028010008B1
:101FD000E81F000808000020300B00004401000842
:081FE0000000000000000000F9
:040000050800018965
:00000001FF
