:020000040800F2
:10000000D0070020D5020008111C00089116000836
:100010000D1C0008CD140008DD27000800000000BA
:100020000000000000000000000000003126000871
:10003000D114000800000000151C00083526000837
:10004000EF020008EF020008EF020008EF020008CC
:10005000EF020008EF020008EF020008EF020008BC
:10006000EF020008EF020008EF020008EF020008AC
:10007000EF020008EF020008EF020008EF0200089C
:10008000EF020008EF020008EF020008EF0200088C
:10009000EF020008EF020008EF020008EF0200087C
:1000A000EF020008EF020008EF020008EF0200086C
:1000B000EF020008EF020008EF020008EF0200085C
:1000C000EF020008EF020008EF020008EF0200084C
:1000D000EF020008EF020008EF020008EF0200083C
:1000E000EF020008EF020008EF020008EF0200082C
:1000F000EF020008EF020008EF020008EF0200081C
:10010000EF020008EF020008EF020008EF0200080B
:10011000EF020008EF020008EF020008EF020008FB
:10012000EF020008EF020008EF020008EF020008EB
:10013000EF020008EF020008EF020008EF020008DB
:10014000EF020008EF020008EF020008EF020008CB
:10015000EF020008EF020008EF020008EF020008BB
:10016000EF020008EF020008EF020008EF020008AB
:10017000EF020008EF020008EF0200080000000094
:10018000EF020008EF02000800F002F800F092F819
:100190000AA090E8000C82448344AAF10107DA45E2
:1001A00001D100F087F8AFF2090EBAE80F0013F0A2
:1001B000010F18BFFB1A43F001031847A0520000BB
:1001C000C0520000103A24BF78C878C1FAD852074C
:1001D00024BF30C830C144BF04680C6070470000C1
:1001E0000023002400250026103A28BF78C1FBD840
:1001F000520728BF30C148BF0B6070476E2900F01E
:100200009181702900F0D982662905F00680652960
:1002100005F00380672905F00080612904F0FF875D
:1002200003681B0A28BF41F08001692900F03E8164
:10023000642900F03B81752900F038816F2900F0B6
:100240006782782900F0A582E92900F00182E4297B
:1002500000F0FE81F52900F0FB81EF2900F06482B7
:10026000F82900F0A4820368DB0928BF41F080016F
:10027000632900F0AE87732900F0B387E32900F00B
:10028000BE87F32900F0C387002070471FB504F034
:10029000B7FF01F011F804000020002104F09AFFDC
:1002A000401C60600020002104F07EFFE0601FBD64
:1002B00010B510BD00F0D3FF1146FFF7E7FF04F0C3
:1002C0003FF801F0AFF803B4FFF7F2FF03BC01F011
:1002D000F5F800000948804709480047FEE7FEE7B7
:1002E000FEE7FEE7FEE7FEE7FEE7FEE7FEE7FEE7E6
:1002F00004480549054A064B70470000B527000829
:1003000089010008D0010020D0070020D003002080
:10031000D00300207CB51D4616460C00009007D087
:100320004142A14202D32044401E01E04FF0FF3081
:10033000064B7B442A4669460190304600F00BF993
:10034000002C02D0009A002111707CBD47020000F1
:100350004FF000020429C0F0128010F0030C00F0EE
:100360001B80CCF1040CBCF1020F18BF00F8012B6C
:10037000A8BF20F8022BA1EB0C0100F00DB85FEA3A
:10038000C17C24BF00F8012B00F8012B48BF00F806
:10039000012B70474FF0000200B513469446964675
:1003A000203922BFA0E80C50A0E80C50B1F1200188
:1003B000BFF4F7AF090728BFA0E80C5048BF0CC036
:1003C0005DF804EB890028BF40F8042B08BF704794
:1003D00048BF20F8022B11F0804F18BF00F8012B06
:1003E000704770477047704770B50446856900686C
:1003F000C10601D5302600E02026C00707D070BD19
:10040000D4E9012130469047206A401C20626D1ECD
:10041000F6D570BD70B5044685690078C00707D170
:1004200070BDD4E9012120209047206A401C206241
:100430006D1EF6D570BD09684A0501D540B27047FA
:10044000C905FCD500B2704709684A0501D5C0B29C
:100450007047C905FCD580B2704770B50C4605469B
:10046000012A05D02878800600D5EA69002302E039
:10047000012305E05B1C934202D2E05C0028F9D125
:10048000A869E618C01AA861286A18442862284694
:10049000FFF7AAFF04E0D5E9012114F8010B90470A
:1004A000B442F8D32846FFF7B5FF70BD2DE9F041FF
:1004B0000646002410687529314616A510D0FFF7AE
:1004C000BAFF002802DA404213A507E031688A0724
:1004D00001D512A502E0490704D511A5012401E0C8
:1004E000FFF7B2FF00210A2206F1240709E0B0FB62
:1004F000F2FCB0FBF2F302FB1C00303078541846DB
:10050000491C0028F3D123462A463046BDE8F04175
:1005100000F06ABA000000002D0000002B0000006F
:100520002000000011680268006A530501D50870B8
:100530000AE0D30501D5088006E0130603D5C217EB
:10054000C1E9000200E008600120704701694A1C0F
:1005500002610878704700B58FB0CDE90131002104
:10056000059105497944CDE903101146684600F02C
:100570002FF90FB000BD0000E5FFFFFFD1E9002318
:100580009A4202D2531C0B60107070472DE9FF5F36
:1005900015468A460446DFF8AC80F8440027D8E9BF
:1005A00000103E46CDE9001010E03AF816106A46F9
:1005B00002A800F030FE411C07D02178890603D53F
:1005C000E269391891420DD80744761C20788006DC
:1005D00002D5E069B84205DDAE42E6DB3AF8160026
:1005E0000028E2D1A069C01BA0612046FFF7FCFEF5
:1005F000D8E90010CDE90010002017E03AF81810F3
:100600006A4602A800F007FEB0F1FF3F81460BD01A
:1006100000250DF1080B05E0D4E901211BF80500C8
:1006200090476D1C4D45F7D308F10100B04280465C
:10063000E4DB206A384420622046FFF7EBFE00F03E
:1006400003B80000864C00003FBCBDE8C09F00001E
:100650002DE9F0418046D21D22F007020025D2E9A3
:100660000002F52915A614D0011E72F1000106DA68
:100670000023D0EB030063EB020211A608E0D8F8D8
:1006800000108B0701D50FA602E0490701D50EA681
:1006900001251146002408F1240704E000F05FF969
:1006A00030323A55641C50EA0102F7D12B463246EB
:1006B00021464046BDE8F04100F096B90000000038
:1006C0002D0000002B0000002000000030B40021AD
:1006D00000F1240408E002F00705D208303542EAB0
:1006E0004372DB086554491C52EA0305F3D10468E0
:1006F000002310A2250708D504F020040C4304D0E1
:10070000C46901230CA2641EC46130BC00F06CB942
:1007100010B5044621461068FFF796FE02462046B3
:10072000BDE810400023D1E7D21D22F00701D1E936
:100730000023CBE70000000030000000F0B40D46BD
:100740000188090502D5214C7C4402E01F4C7C4401
:100750000E34002100F1240608E002F00F07120910
:10076000E75D42EA03721B097754491C52EA03070A
:10077000F3D102780023120704D5702D06D009B1F9
:10078000022311342246F0BC00F02EB901231034AC
:10079000F8E770B504460D4621461068FFF754FE91
:1007A000024629462046BDE870400023C6E7D21D18
:1007B00022F00703D3E90023C0E70368126843F07F
:1007C000200303600823C3610023B7E7E04A000069
:1007D0002DE9F05F894604464FF0000ADFF874B156
:1007E000FB44C0F820A02046E1688847002874D068
:1007F000252806D0D4E901219047206A401C2062B8
:10080000F1E700265F462046E16888472028054634
:1008100007DB312D05D2781910F8200C08B10643FA
:10082000F1E7B00701D526F00406C4F81CA00027A4
:10083000C4F818A02A2D09D0284604F0ADFC38B31E
:1008400004EB8708303DC8F8185019E059F8041B2C
:10085000204604EB87029161E1688847012F054635
:1008600018D1E069002820DA26F020061DE0D8F82B
:10087000180000EB800005EB40003038C8F8180085
:100880002046E1688847054604F086FC0028EED142
:10089000012F0AD02E2D08D12046E16888477F1C01
:1008A0000546022F46F02006C4DBA069002803DAC3
:1008B000404246F00106A061F00701D026F0100684
:1008C0006C2D0BD0682D09D04C2D39D06A2D35D028
:1008D000742D35D07A2D33D016E038E0E1682F46FC
:1008E00020468847B842054609D16C2F26D04FF4E0
:1008F0008060E168064320468847054604E06C2F87
:100900001AD04FF4807006430DB3A5F141001928A9
:1009100002D8203546F400664A462946204626601D
:100920004E46FFF76BFC80B101280BD0F61D26F078
:10093000070000F1080956E74020E4E78020D8E7E7
:100940000020D6E706F104094DE7284652E7206A61
:1009500000F002B8704A000030BCBDE8C09F30B55E
:10096000B0F10A0271F100034FEA900E4EEA817E67
:10097000B0EB0E0061EB91014FEA101E4EEA017ED2
:1009800010EB0E0041EB11114FEA102E4EEA016EF2
:1009900010EB0E0041EB11214FEA104E4EEA014ED2
:1009A00010EB0E0041EB1141401841F100014FEAFC
:1009B000D00040EA41704FEAD1014FEA810444EA95
:1009C000907410EB800544EB01046D1944EB0404B2
:1009D000521BA3414FF0000348BF0A3200D530BD7F
:1009E000401C41F1000130BD2DE9F0470D4699460C
:1009F0009246044600F124080168880604D5E0699F
:100A000021F01001216000E00120A84201DD471B18
:100A100000E00027A1697A1902EB0900081AA06119
:100A20002078C00602D42046FFF7DEFC002608E04E
:100A3000D4E901211AF806009047206A401C761C70
:100A400020624E45F4DB2078C0060AD52046FFF729
:100A5000CBFC06E0D4E9012130209047206A401CFD
:100A60002062381EA7F10107F4DC07E0D4E9012178
:100A700018F805009047206A401C2062281EA5F146
:100A80000105F3DC2046FFF7C5FC2078000602D5FF
:100A90000220BDE8F0870120FBE72DE9FF4F0C465F
:100AA0001E464FF0FF378BB0D2E90001DDF86080C1
:100AB0000A908A46C1F30A5505B93D460021084609
:100AC0004FF00000BAF1000F00F4400005DA00EB2F
:100AD00080004FF4400101EA50004FEA9059B9F10B
:100AE000010F00DDB9460A9850EA4A000ED044F6DC
:100AF0001050A5F2FF3545432F14B8F1000F1ED05A
:100B00007542291E1EDDC9F100021CE0B8F1010F7B
:100B10004FF0000001D0302103E0F24305E0215402
:100B2000401CB042FBDB30460022002121540B99CF
:100B3000C1F80880C1E900200FB000F0BCB9BD1BAE
:100B40006D1CDEE74A4600DA694206A800F0F8FBB1
:100B500006AB93E8070003AB83E8070050460A9909
:100B600003F039FF8DE80700A0F500501F38009012
:100B70000398002D0ADD42F21F014A460844002373
:100B800003A90390684604F0A3F909E0A0F500501A
:100B90004A461F38002303A90390684604F0ADF9C4
:100BA0008DE807000004000C03D04FF0FF3041082F
:100BB00000E01046B8F1000F03D000220092154665
:100BC0001EE0751E05D4FFF7CAFE303262556D1E59
:100BD000F9D5B3460122084302D000227F1C04E06D
:100BE0002078302801D100227F1E002A099784D066
:100BF0001DE0112D07DAFFF7B2FE303262556D1C91
:100C000050EA0102F5D1084302D00098C8B10EE0C5
:100C10000021681E05E0235C625C63542254401E80
:100C2000491C8142F7DBAB46A81B401E09900020FF
:100C300004F80B000B98099AC0F80880C0E9002B53
:100C40007AE711264FF0000857E72DE9F04F884664
:100C50000446D21D22F0070191B0D1E90001CDE98F
:100C60000A0104F081FA02460B98C00F01D02D2032
:100C700007E02068810701D52B2002E0202101EA4E
:100C8000C000032A099001D0072A05DB034641462C
:100C9000204600F015FB0BE12078800601D5E069C5
:100CA00000E00620B8F1650F814606D0B8F1660F66
:100CB00018D0B8F1670F70D131E00020B9F1110FF1
:100CC000009001DB112301E009F101030AAA01A947
:100CD0000CA8FFF7E2FEDDE90C70002609F1010522
:100CE000834647E001204B4600904FF000470AAA98
:100CF00001A90CA8FFF7D1FEDDE90DB00C995D4606
:100D0000002610B909F101000D18B9EB050003D454
:100D1000C0F1FF3609F10105A5EB09002BE0B9F19F
:100D2000010F01DA4FF001090020B9F1110F009015
:100D3000484601DD112300E003460AAA01A90CA8D8
:100D4000FFF7ABFEDDE90C704D46002683462078A8
:100D500000070AD4AB4500DA5D4601A8012D04DD89
:100D6000411911F8011C302907D04F4502DA17F15B
:100D7000040F04DA012082460FE06D1EEEE7002F1B
:100D800002DCED1B3E4403E0781CA84200DD7D1C24
:100D9000B81B00F1010A4FF000472078000703D488
:100DA000AA4501DB4FF0FF3A0021B7F1004F0DF1EA
:100DB00043088DF8431024D002202B23002F01DAA2
:100DC0007F422D230A21021EA0F1010000DC5FB149
:100DD00097FBF1FC97FBF1F201FB1C7C17460CF131
:100DE000300C08F801CDEEE7A8F10100037021886E
:100DF000090501D5452100E06521A0F1010800F8B1
:100E0000011C09980FA9A1EB0807FF1D00B10120E3
:100E1000411901EBEA70A1693844081A401EA0612B
:100E20002078C00602D42046FFF7DEFA099828B1E0
:100E3000D4E901219047206A401C20622078C00636
:100E400022D52046FFF7D0FA1EE0002E04DBB34582
:100E500002DD01A8805D00E03020D4E90121904747
:100E6000206A401C2062761CAAF101005FEA000A99
:100E70000AD100F021FAC0680168405CD4E9012180
:100E80009047206A401C2062281EA5F10105DCDC89
:100E900007E0D4E9012118F8010B9047206A401CB3
:100EA0002062381EA7F10107F3DC2046FFF7B2FAF3
:100EB000032011B041E630BCBDE8C08F2DE9F04FF2
:100EC00004460D46D21D22F0070089B0D0E90097F4
:100ED0004846394604F048F90246F80F01D02D2360
:100EE00007E02068810701D52B2302E0202101EAD9
:100EF000C0038DF820300BB1012000E00020032A50
:100F0000824601D0072A04DB2946204600F0D8F9A2
:100F10003FE12078800601D40D2500E0E569C7F3A4
:100F20000A560D2D49DA00214FEA175B08464FF0AB
:100F30000000002F00F4400007DA00EB80004FF4BF
:100F4000400100EBD07001EA60008115012901DD4C
:100F50004FF0FF3100224FEA850CBCF1180F06D389
:100F60001346ACF118004FF08052C24003E04FF43A
:100F7000801323FA0CF30CF10C0CBCF1200F04D3FA
:100F8000ACF1200C09FA0CF001E007FA0CF0002992
:100F90004FF0004801DD18B90FE00ED140450CD3E9
:100FA00019EB02095F4121B9404502D19F4329EA6B
:100FB0000209BBEB175F00D0761C2088000502D524
:100FC0007B48784402E07A487844193808AA3023EC
:100FD00002F80A30037C0AF10101002E0AF1020A2C
:100FE00053546A4602DC4FF0300101E04FF031010A
:100FF0004FF001088DF8001002D0A6F2FF3603E092
:1010000059EA470100D06B4E002D02DC2178090718
:1010100004D54FF002082E218DF80110C44600219E
:101020000BE0C7F303433F01C35C491C6D1E02F88C
:101030000830052908F1010801DA002DF1DC002152
:101040000CE000EB1973491C1B786D1E082902F88F
:1010500008304FEA091908F1010801DA002DF0DC27
:1010600021688B0602D516E0A8F10108E04505DDF0
:1010700002EB080313F8013C302BF5D0B8F1000F58
:1010800009DD02EB080313F8013C2E2B03D10907FD
:1010900001D4A8F10108002D05DD3E2102F8081059
:1010A0006D1E08F10108407C002E02F8080008F1CE
:1010B000010804DA2D20764202F8080002E02B2015
:1010C00002F808000A214FF47A70864208F10108FC
:1010D0000BDB96FBF0F3303302F8083096FBF0F3AD
:1010E00008F1010800FB136601E0642E0CDB6420AC
:1010F00096FBF0F3303302F8083096FBF0F308F17A
:10110000010800FB136601E00A2E06DB96FBF1F0F6
:10111000303002F8080008F1010896FBF1F001FBFD
:101120001060303002F80800A16908F1010808EBEE
:10113000050202EB0A00081AA0612078C00602D45A
:101140002046FFF751F9216A08AE01EB0A00206240
:1011500004E0D4E9012116F8010B9047BAF1010A25
:10116000F7D22078C00602D52046FFF73DF96E463B
:1011700009E016F8010B3E280FD0D4E90121904771
:10118000206A401C2062B8F10108F2D22046FFF725
:1011900041F909B0032000F00FB8206A284420620A
:1011A00003E0D4E90121302090476D1EEBD3F8E72E
:1011B000B242000002FCFFFF30BCBDE8C08F10B59A
:1011C000436913B1AFF3008001E0FFF746F9012056
:1011D00010BD127800F124010A7000224A70012229
:1011E000EDE711684FF0FF32E9E710B5436913B13D
:1011F000AFF3008001E0FFF7C9F9012010BD1288AC
:1012000000F1240182840022C2840122EDE71168EA
:101210004FF0FF32E9E72DE9F04116460C4605464E
:1012200000F042F8036893F80101012807D0FF2C71
:1012300012D8185D80B101202C70BDE8F081D3F880
:1012400007013246214603F20713C7182846BC4659
:10125000BDE8F041002360474FF0FF30EDE77546F1
:1012600000F0EAF8AE4605006946534620F0070054
:10127000854618B020B5FFF73BF8BDE820404FF099
:1012800000064FF000074FF000084FF0000BAC468F
:10129000ACE8C009ACE8C009ACE8C009ACE8C009DA
:1012A00021F007018D46704710B500F005F8001DCC
:1012B00010BD00BF213F00000048704748000020DB
:1012C0002DE9F0411F46044603260168072A01F470
:1012D000006004DB08B116A505E016A503E008B11F
:1012E00015A500E015A521F010002060A069C01E22
:1012F000A0610FB1401EA0612046FFF775F84FB105
:10130000D4E9012138469047206A401C2062C01C65
:10131000206206E0206AFAE7D4E9012115F8010B02
:101320009047761EF8D22046FFF774F8BDE8F081AA
:101330004E414E006E616E00494E4600696E660079
:101340002DE9F047814616468AB0354878440DC8E5
:101350008DE80D0032487844801C03AC0DC884E849
:101360000D0041F69B300844372190FBF1F290FBD1
:10137000F1F5A5F1800501FB12041B3C02D5644286
:10138000012000E00020DFF898A080460027FA4402
:10139000AAF1BE0A0EE0E0070AD03246684607EB23
:1013A000470101230AEB810103F0A7FD8DE8070047
:1013B00064107F1C002CEED1194F7F44AE3F19E022
:1013C000E80715D007EB04100DF1180A90E80E009D
:1013D0008AE80E00C068F04201D1981908903246A0
:1013E000012306A903A803F088FD03AB83E80700E7
:1013F0006D10641C002DE3D14FF0010332466946A5
:10140000B8F1000F03A802D003F062FD01E003F081
:1014100074FDC9E90001C9F808200AB0BDE8F087E9
:10142000B83F000010B50446AFF300802046BDE889
:101430001040FEF748BF0000004870472800002019
:1014400030B44FF0013C50F8042B51F8043BCCFA77
:1014500052F4D51A20D1FCB950F8042B51F8043BB2
:10146000CCFA52F4D51A17D1B4B950F8042B51F86C
:10147000043BCCFA52F4D51A0ED16CB950F8042BB7
:1014800051F8043BCCFA52F4D51A05D1002CDAD02D
:1014900030BC4FF00000704729BAB1FA81F111F069
:1014A0001801D1F120008440F2D1CA40CB4012F0A3
:1014B000FF0213F0FF0330BCD01A70470149182017
:1014C000ABBEFEE72600020070470000FEE700000A
:1014D0007047000080B540F2C003C2F200035A7AA0
:1014E000002A1CBF012080BD93F809C08646002059
:1014F00003F80C005A7A03EB8202C2F804E05A7A2D
:101500001A44107293F809C00CF101025A720CF1DE
:1015100030020A7042F63A72A1F80120C87080BD0C
:1015200040F2000040F2CC11C2F20000C2F2000111
:1015300000780A68104408607047000080B542F2E5
:101540000000C4F20200016841F4807101600320D0
:1015500000F078F8002000F009F800281CBF0120F6
:1015600080BD00F029F8002080BD000070B540F279
:101570000006C2F200063178E1B1044640F20C00E8
:10158000C2F200004FF47A720068B2FBF1F1B0FBD6
:10159000F1F000F067F80F2C4FF0010508D838B9CA
:1015A0004FF0FF3021460022002500F01FF8746044
:1015B000284670BD012070BD82B041F25800C4F2CF
:1015C0000200816841F001018160816801F0010140
:1015D00001910199016841F080510160006800F0BB
:1015E00080500090009802B07047000010B54EF691
:1015F0000C5CCEF2000CDCF80030C3F3022E8EF04F
:101600000704042C28BF0424BEF103034FF0FF3E5F
:101610000EFA04F438BF0023A14399400EFA03F3F5
:101620009A43114300F00F0200F160430901043AAC
:1016300003F564436244002848BF02F10C031970AB
:1016400010BD00004EF60C51CEF200010A684FF6B4
:10165000FF031A4060F30A2242F0806040F0FD7000
:1016600008607047411E0020B0EB116F1CBF0120C5
:1016700070474EF21002CEF2000251604EF6235136
:10168000CEF20001F0230B700721906011607047CB
:10169000FEE700002DE9F04F0C6894FAA4F2B2FACC
:1016A00082F234FA02F363D04FF001084FF0030BDB
:1016B0000BE000BFD1E900470568B7402B403B4332
:1016C0000360013234FA02F352D008FA02F314EA4A
:1016D000030CF6D0D1F80490A9F10103022B1BD220
:1016E0009CFAACF6B6FA86F77E00D0F808A00BFAA2
:1016F00006F3D1E902BE2AEA030A0BFA06F545EA27
:101700000A05856045684FF0030BA5430EFB04F402
:10171000DB432543456007E09CFAACF3B3FA83F75B
:101720007E000BFA06F3DB430D69C468B5401C402C
:101730002543B9F1020FC560BCD14FEA1C2494FACD
:10174000A4F4D1F814E0BCF5807F28BFB4FA84F784
:101750004FF0240438BF202450F804C0BF000F25E8
:10176000BD402CEA05050EFA07F72F430751A1E704
:10177000002000F000B830BCBDE8C08F10B5B0F557
:10178000407F0DD0C0282DD141F20804C4F20204DC
:10179000D4F88000C0F38110DFE800F00E262A3470
:1017A00041F20804C4F20204D4F88000C0F301201E
:1017B000DFE800F0021A1E2800F02EFA216845F238
:1017C00020322368C1F30311C0F60002515CC3F359
:1017D000022245F23033C0F600039A5CC840D04084
:1017E00010BD00BF002010BDBDE8104000F014BACD
:1017F00054F8080C42F200414005C0F2F40101EA3D
:10180000E07010BDD4F888004FF4004101EA803048
:1018100010BD000010B5302820D00C282AD0032895
:101820001CBF002010BD41F20804C4F20204D4F829
:10183000800000F00300DFE800F003513F4900BFE3
:1018400000F0EAF9216845F22032C1F30311C0F635
:1018500000022368515CC3F3C22224E041F2080471
:10186000C4F20204D4F88000C0F30110DFE800F0F5
:101870000E36242E41F20804C4F20204D4F880008B
:10188000C0F38100DFE800F0022A182200F0C4F95A
:10189000216845F22032C1F30311C0F6000223682B
:1018A000515CC3F3022245F23033C0F600039A5C68
:1018B000C840D04010BD00BF54F8080C42F20041AF
:1018C0004005C0F2F40101EAE07010BDD4F88800D0
:1018D0004FF4004101EA803010BD00BFBDE8104068
:1018E00000F09AB92DE9F0470268520644BF012082
:1018F000BDE8F08702684FF6BF73D1E9008E22EA97
:10190000030CD1E9024A4CEA0805D1E9046745EA2B
:101910000E05D1E9063245EA0A052E433343D1F8D4
:1019200020901A433A4342EA09020260426840F6B4
:1019300004739A4342EA174200232243B3EBD42FA5
:10194000426003D1426842F480524260B9F5005FC0
:101950001CBF0020BDE8F087898C01610020BDE834
:10196000F087000040F20C01C2F2000108607047ED
:1019700040F6FF3302460068C4F200039A422DDCB1
:10198000B2F1804F3CD040F20043C4F200039A42CF
:1019900036D040F60003C4F200039A4230D042F63B
:1019A000FF33C4F201039A4234DD43F6FF73C4F2FD
:1019B00001039A423EDD44F20003C4F201039A425D
:1019C00052D044F60003C4F201039A424CD044F2D0
:1019D0000043C4F201039A4246D049E040F6004376
:1019E000C4F200039A420BD043F20043C4F2010355
:1019F0009A4205D042F60043C4F201039A42CED186
:101A00004B6820F07000184342F6FF33C4F2010324
:101A10009A42CADC40F2FF73C4F200039A4217DC18
:101A2000B2F1804F20D040F20043C4F200039A424A
:101A30001AD01DE042F60043C4F201039A4213D0CB
:101A400043F20043C4F201039A420DD010E000BFFC
:101A500040F60003C4F200039A4205D040F600436A
:101A6000C4F200039A4203D1CB6820F440701843BB
:101A700010608868D062A2F18040A0F596300B8893
:101A80004FEAB0200728936207D8012303FA00F039
:101A900010F0E50F1CBF08691063506940F00101A8
:101AA000002051617047000070B504460068C0070F
:101AB00070D10E46206846F6F311CEF6FF7108404D
:101AC000D6E9011CD6E903320843B569184310432F
:101AD00028432060606820F4405040EA0C006060B9
:101AE0007069A16821F440710843A06044F6FF309A
:101AF000C4F2000084424FF0010017DD44F60041BB
:101B0000C4F200018C4223D045F20001C4F200016E
:101B10008C4223D043F60001C4F201018C4218BF6D
:101B200070BD0320FFF776FE10BB33E044F20041A6
:101B3000C4F200018C4217D044F60001C4F2000147
:101B40008C4230D13020FFF765FE88B922E000BF1B
:101B5000C020FFF713FE58B91CE000BF4FF44070DF
:101B6000FFF70CFE20B915E00C20FFF753FE88B1FB
:101B7000316879B1B269B2F5004F0DD14A0802EB74
:101B80004000B0FBF1F04FF6F0710140C0F34200AD
:101B9000084406E0012070BD00EB5100B0FBF1F0FD
:101BA00080B2E060002070BD81B04EF21001CEF234
:101BB00000010A6801300092009A28BF4FF0FF3000
:101BC0000A68D20300EBE27078B10A68D20300EB36
:101BD000E27050B10A68D20300EBE27028B10A68E3
:101BE000D20300EBE2700028EAD101B07047000098
:101BF00010B540F28A04C2F2000440F21000611CE9
:101C0000C2F20000FFF766FC207010BDFEE7000086
:101C1000FEE700007047000041F20001C4F202013B
:101C20008A68C2F3810242F20040C0F2F400DFE8A9
:101C300002F00377151B00BF08680A68000702F06E
:101C4000080025D450BBD1F89400C0F3032045F21E
:101C5000B831C0F6000151F82000704741F2002071
:101C6000C0F27A00704700BFCA6802F00302032A7C
:101C70001ED0022A42D00868012A0A68000702F032
:101C800008001BD460BBD1F89400C0F303202FE000
:101C9000D0B9D1F8940000F4706018E00868002012
:101CA00045F2B831C0F6000151F82000704700BF7E
:101CB00041F20020C0F27A0020E000BFA0B9D1F8C4
:101CC000940000F4706012E0086800F0F000000971
:101CD00045F2B831C0F6000151F82000704700BF4E
:101CE0000868002004E000BF086800F0F000000968
:101CF00045F2B832C0F6000252F82000CA68CB683C
:101D0000C2F302120132B0FBF2F0C968C3F306223B
:101D10005043C1F34161022202EB4101B0FBF1F0FB
:101D200070470000B0B540F21844C4F60004022524
:101D300001202560FFF738FFFF2000F055FCFF2051
:101D400000F052FCFF2000F04FFCFF2000F04CFCA4
:101D5000FF2000F049FCFF2000F046FCFF2000F0CF
:101D600043FCFF2000F040FCFF2000F03DFCFF2082
:101D700000F03AFC01202561FFF716FF402000F03B
:101D800033FC402000F030FC402000F02DFC4020CF
:101D900000F02AFC402000F027FC402000F024FC4A
:101DA0004EF20105CFF6FF75FF2000F01DFC00F09C
:101DB000F7FB012803D0002D05F10105F4D1022025
:101DC000206001200124FFF7EFFEFF2000F00CFC53
:101DD00040F28800C2F200004470B0BDB0B540F2DD
:101DE0009405C2F200054FF4FA70FF24288000BF6A
:101DF000FF2000F0F9FB00F0D3FBFF2803D0298877
:101E00000029F5D104462046B0BD000070B540F26F
:101E100092060C460546C2F20006C820308000BF7C
:101E2000FF2000F0E1FB00F0BBFBFF2804D130886D
:101E30000028F5D1002070BDFE281CBF002070BD19
:101E4000013D0134FF2000F0CFFB00F0A9FB013C75
:101E500005F8010FF6D1FF2000F0C6FB00F0A0FB53
:101E6000FF2000F0C1FB00F09BFB012070BD0000D3
:101E700070B540F294060D460446C2F200064FF4D7
:101E8000FA703080FF2000F0AFFB00F089FBFF28E4
:101E900006D030880028F5D1FF20C0B270BD00BF49
:101EA000204600F0A1FB280E00F09EFBC5F3074082
:101EB00000F09AFBC5F3072000F096FBE8B200F0B3
:101EC00093FB0120482C08BF6FF07800402C08BF1E
:101ED0006FF06A00C0B200F087FB4C2C04D1FF20E9
:101EE00000F082FB00F05CFBFF2000F07DFB00F0C7
:101EF00057FB40B2B0F1FF3F47DCFF2000F074FB1E
:101F000000F04EFB40B2B0F1FF3F3EDCFF2000F09E
:101F10006BFB00F045FB40B2B0F1FF3F35DCFF202A
:101F200000F062FB00F03CFB40B2B0F1FF3F2CDC64
:101F3000FF2000F059FB00F033FB40B2B0F1FF3F4F
:101F400023DCFF2000F050FB00F02AFB40B2B0F190
:101F5000FF3F1ADCFF2000F047FB00F021FB40B2FE
:101F6000B0F1FF3F11DCFF2000F03EFB00F018FB5A
:101F700040B2B0F1FF3F08DCFF2000F035FB00F07D
:101F80000FFB40B2B0F1FF3F02DDC0B270BD00BF39
:101F9000FF2000F029FBBDE8704000F001BB00000D
:101FA00070B540F294060D460446C2F200064FF4A6
:101FB000FA703080FF2000F017FB00F0F1FAFF28E4
:101FC00004D030880028F5D1002070BD284600F0EC
:101FD0000BFBFD2D04BF002070BD4FF4007500BF4A
:101FE0002078013D00F000FB2804F9D1FF2000F02B
:101FF000FBFA00F0D5FAFF2000F0F6FA00F0D0FA74
:10200000002500BFFF2000F0EFFA00F0C9FA00F051
:102010001F04052C04D0402D05F10105F2D300BFAB
:10202000FF2000F0E1FA00F0BBFA0028F8D0601FB2
:10203000B0FA80F0400970BD00281CBF0120704735
:102040002DE9F04140F20805C2F20005287880072A
:1020500000F1B98040F21848C4F60008FFF762FEAC
:1020600002270120C8F81070FFF79EFD40200021D4
:102070000024FFF7FDFE012840F0918040F2920617
:10208000C2F200064FF47A70308048204FF4D571C8
:10209000FFF7EEFE01284FD1FF2000F0A5FA00F077
:1020A0007FFAFF2000F0A0FA00F07AFAFF2000F09B
:1020B0009BFA00F075FA0446FF2000F095FA00F054
:1020C0006FFA012C4FF0000408BFAA2867D101E085
:1020D000308860B177200021FFF7CAFE0128F7D8C9
:1020E00069204FF08041FFF7C3FE0028F0D130880F
:1020F000002853D07A2000210024FFF7B9FE0028E1
:102100004DD1FF2000F070FA00F04AFA0446FF209B
:1021100000F06AFA00F044FAFF2000F065FA00F0DF
:102120003FFAFF2000F060FA00F03AFA60064FF044
:102130000C0458BF042432E077200021FFF798FEFA
:10214000012805D869200021FFF792FE012815D942
:1021500041200021FFF78CFE10B130880028F7D114
:1021600001243088D0B150204FF40071FFF780FE79
:10217000002818BF002412E0308858B177200021D1
:10218000FFF776FE0128F7D869200021FFF770FEDF
:102190000028F1D1022430880028E4D1002440F244
:1021A0008806C2F2000601203470C8F80070FFF7FC
:1021B000FBFCFF2000F018FA00F0F2F934B12878A7
:1021C00000F0FE0028702878BDE8F08100207070D3
:1021D0002878BDE8F08100002DE9F04184B028B1F5
:1021E0000425284604B0BDE8F08100BF14460E4621
:1021F000052911D1207802283CD0012846D000289A
:10220000EED140F28800C2F2000000254570284659
:1022100004B0BDE8F08100BF40F20800C2F2000047
:102220000078C00720D140F21848C4F60008022701
:102230000120C8F81070FFF7B7FC0D2E4FF0040511
:1022400000F2AF80DFE806F0082A32ADADADADADEB
:10225000ADADAD38404800BFFFF7C0FDB0F1FF05A0
:1022600018BF01259DE000BF0325284604B0BDE846
:10227000F08100BF40F28800C2F2000040780025E3
:102280006070284604B0BDE8F08100BFFFF74AFD4A
:102290000025284604B0BDE8F08100BF4920002198
:1022A000FFF7E6FD00283FD001257AE04FF40070EB
:1022B0002080002575E000BF49200021FFF7D8FDF0
:1022C00050B301256DE000BF4A200021FFF7D0FD8B
:1022D00010B3012565E000BF7A200021FFF7C8FD9B
:1022E000B8B9FF2000F080F900F05AF92070FF2003
:1022F00000F07AF900F054F96070FF2000F074F9F2
:1023000000F04EF9A070FF2000F06EF900F048F9DF
:10231000E070042545E000BF20461021FFF776FD60
:10232000B0FA80F045093CE068461021FFF76EFDE9
:10233000A0B19DF8000000F0C000402810D19DF829
:1023400008009DF80910800440EA81204FF6004102
:1023500000F58060C0F2FF31084020E0012520E058
:102360009DF805009DF80A3000F00F0000EBD31037
:102370009DF809309DF808609DF806109DF807202B
:1023800003F0030300EB4300B30901F0030143EA48
:10239000820242EA81210131073801FA00F020600F
:1023A00000250120C8F80070FFF7FEFBFF2000F0B9
:1023B0001BF900F0F5F8284604B0BDE8F0810000F4
:1023C0002DE9F04100284FF0040659D11C46002B9E
:1023D00056D040F20800C2F200000078C0071CBFCF
:1023E0000320BDE8F08140F28800C2F200000078CE
:1023F00040F2184840071746C4F600084FF00200A4
:1024000058BF5702C8F8100001200D46FFF7CCFB5B
:10241000012C0DD151203946FFF72AFD68B9284615
:102420004FF40071FFF7F2FCB0FA80F0460919E0B2
:1024300052203946FFF71CFD30B1012612E000BFE3
:10244000013C05F5007507D028464FF40071FFF7F1
:10245000DDFC0028F4D100E000244C200021FFF72F
:1024600007FD26460220C8F800000120FFF79CFB6C
:10247000FF2000F0B9F800F093F8002E18BF0126F5
:102480003046BDE8F081000000281CBF01207047E5
:1024900040F20800C2F20000007870472DE9F043D6
:1024A00081B04FF0040790BB1D4683B340F2080093
:1024B000C2F200000C460178C90727D10078022734
:1024C000400724D440F28809C2F2000999F80000BC
:1024D00040F2184840071646C4F600084FF00100C5
:1024E00058BF5602C8F81070FFF75EFB012D13D1DC
:1024F00058203146FFF7BCFC002840D12046FE2181
:10250000FFF74EFDB0FA80F0470939E0032738465F
:1025100001B0BDE8F08300BF99F80000800707D53F
:1025200077200021FFF7A4FC57202946FFF7A0FCE5
:1025300059203146FFF79CFC08BB03E0013D04F540
:10254000007405D02046FC21FFF72AFD0028F5D1B4
:1025500040F29404C2F200044FF4FA70208000BFED
:10256000FF2000F041F800F01BF8FF2804D020887D
:102570000028F5D103E000BFFD2000F035F8012769
:102580000220C8F800000120FFF70EFBFF2000F03A
:102590002BF800F005F8384601B0BDE8F0830000E4
:1025A00043F60801C4F200010868C00709D10868B1
:1025B000C00704BF08685FEAC07002D10868C0079E
:1025C000F2D0087904E000BF0A68120658BF7047CD
:1025D0000A68120606D50A68120644BF0A685FEA4E
:1025E0000262F1D47047000043F60801C4F2000112
:1025F0000A68920709D40A6892075CBF0A685FEA12
:10260000827202D40A689207F2D5087104E000BF12
:102610000868000658BF70470868000606D50868B5
:10262000000644BF08685FEA0060F1D4704700000C
:102630007047000040F29000C2F2000001780131C2
:10264000017001780A290ED300210170418811B16F
:102650004188013941808188002908BFFEF760BFA9
:10266000818801398180FEF75BBF000080B542F2AE
:102670000000C4F202000168042262F3020101605A
:10268000016801F0070104290ED0016801F007017B
:10269000042909D0016801F00701042904D0016868
:1026A00001F007010429EBD147F21400C4F2000045
:1026B00050F8141C012262F34A2140F8141C0168EE
:1026C000490509D50168490544BF01685FEA4151E0
:1026D00002D501684905F2D441F20000C4F20200BB
:1026E000016841F4807101600168490509D40168FD
:1026F00049055CBF01685FEA415102D401684905A0
:10270000F2D54168102262F31C614160C16848F251
:102710008C02CFF6FF12114001F60221C160C168A0
:1027200041F08071C160016841F080710160016811
:10273000890109D4016889015CBF01685FEA8111E0
:1027400002D401688901F2D5816841F003018160FA
:10275000816801F00C010C290ED0816801F00C0198
:102760000C2909D0816801F00C010C2904D0816882
:1027700001F00C010C29EBD1816821F0F00181609E
:10278000816821F4E0618160816821F46051816099
:102790004BF20040C0F2C440FFF7E4F80020FEF71F
:1027A000E5FE002808BF80BDEFF3108072B600BFC1
:1027B000FEE700004EF68850CEF20000016841F4BA
:1027C0007001016070470000FFF736BCFFF704BDE1
:1027D000FFF7F6BDFFF758BEFFF760BEFEE700004B
:1027E0002DE9F04F81B0D0F800808946074639B115
:1027F0004046494601F03AFD02280FD201244FE03D
:10280000D8F80CA0BAF1000F03D0D8F81400824514
:102810000CD308F1140B4FF0010A0CE00446013010
:1028200022D0D8F81400CA46844239D3BAF1020F34
:1028300008F1140B1ED20AF101050026DBF8000096
:10284000A91981420AD2386801F010FD044601300E
:1028500026D04CB3012C23D00136EFD300242046E0
:1028600001B000F053B800BF4FF0FF34204601B074
:1028700000F04CB8564600BFDBF800000136864237
:10288000386828BF0226314601F0F0FC04460130CA
:1028900006D06CB1012C03D056454FF00004EBD1AB
:1028A000204601B000F032B80AEB0600441C00E0FC
:1028B0003446404621464FF0FF3201F071FFB9F136
:1028C000000F05D020B940464946224601F068FF76
:1028D00040B10124012808BF4FF0FF34204601B069
:1028E00000F014B8D8E90401C8F80C400239884255
:1028F0009CBF0138C8F8100098F8040040F00100AF
:1029000088F80400204601B000F000B830BCBDE8F3
:10291000C08F00002DE9F04F81B00446C069042546
:10292000B8B10F4661694FF6FF72C0F21F0201F1A4
:10293000200696420DD8B246D4F800906FF35F2A75
:10294000BAF1000F0AD009EB0A003030666120624C
:102950000025E8B201B000F097B800BFA1690130CE
:10296000E06189B1B9F80A00104400F5C00010EA2E
:10297000562FE8D1484601F079FC022810D20225F2
:10298000E8B201B000F080B8B9F80800B0EB561F0B
:10299000D9D80020E0610425E8B201B000F074B895
:1029A0008046013030D0D9F8140080450ED2A8F10D
:1029B000020B02388345C4F8188062D2B9F80A00C5
:1029C000D9F828100BFB00105CE000BF002FE0D00E
:1029D000A1692046FFF704FF8046013003280FD28B
:1029E0004FF6F871C0F2FF0101EAC00040F2017138
:1029F000C0F2020121FA00F5E8B201B000F044B8DB
:102A0000484601F0BBFF28B10125E8B201B000F053
:102A10003BB800BF09F130004FF40071FDF798FC9E
:102A2000D9F81400A8F1020B811EB9F80A208B45D1
:102A300004D2D9F828100BFB021100E000214FF05E
:102A40000007C9F82C10A2B10125484689F80350A7
:102A500001F094FF00287FF47CAFD9F82C00B9F87E
:102A60000A200137411C9742C9F82C10EDD3D9F840
:102A70001400C91BC9F82C1002388345C4F818800B
:102A80009CD30020E0615EE730BCBDE8C08F000051
:102A9000B0B581680568044600206061E1B16889CD
:102AA00088B16B698A1E023B9A4273D2AB6A02FB01
:102AB0000030A161E061F0B96AE000BF022967D38C
:102AC0006869814264D2206801F0D0FB0146013080
:102AD000F4D10120B0BD00BF2878032802D3696A71
:102AE0000029DCD12889002852D0686A00210028FA
:102AF000A161E0614CD005F130002062E169284617
:102B000001F0C8FD50B9206A007850B1E52808D01E
:102B100020460121FFF7FEFE0028EFD004283FD019
:102B2000A0BBE169284601F0B5FD002818BFB0BD83
:102B3000216A0020C861886148610861C8608860B6
:102B400048600860216A94F824200A7094F82520CF
:102B50004A7094F826208A7094F82720CA7094F856
:102B600028200A7194F829204A7194F82A208A7141
:102B700094F82B20CA7194F82C200A7294F82D2016
:102B80004A7294F82E208A720121E970B0BD00BF0C
:102B90000220B0BD0020C4E906100220B0BD00BF75
:102BA0000720B0BD40F2C001C2F200010A5C002A59
:102BB0001CBF0020704701230A180B5401EB800052
:102BC0004168107A0968084740F2C00CC2F2000C54
:102BD0000CEB80035B686044007A1B6918470000B7
:102BE00080B540F2C00CC2F2000C0CEB800EDEF897
:102BF00004E06044007ADEF808C0BDE88040604729
:102C000040F2C001C2F2000101EB800252680844A8
:102C1000007A51680847000080B540F2C00CC2F24B
:102C2000000C0CEB800EDEF804E06044007ADEF865
:102C30000CC0BDE88040604710B5044600F0EEFCD3
:102C4000002818BF10BD4CB3206838B3017829B3F1
:102C5000A188C288914221D14078FFF7D1FFC007F7
:102C60001CD120690138012884BF022010BD40F228
:102C70009801C2F2000101EB0010818AB1F5807267
:102C800018BF0A46002A18BF013A1104828204BF05
:102C9000002181600020206010BD00BF092010BD10
:102CA0002DE9F04F83B016468846029002A801A98C
:102CB000002200F013FD18B103B000F075B800BF9A
:102CC000DDF804B0DBE90404C6F800B0A11E8842B8
:102CD0001AD99BF800C0BCF1010F1BD102260027B6
:102CE00006E000BF0137DBF81400013686424BD204
:102CF0005846314601F0BAFA0028F3D0411C51D0B1
:102D00000128F0D1022040E0C8F80000002003B004
:102D100000F04AB8DBF820A00BF1300900270021B1
:102D2000002214E09678D57853783602107846EA77
:102D30000546334463F31B20B0FA80F043096FF07B
:102D40000306042002443144013C1F441CD019B145
:102D5000BCF1020FE6D10EE05846514601F09AFC54
:102D600098B99BF800C00AF1010A4FF400714A4675
:102D7000BCF1020FD6D110886FF00106B0FA80F0D6
:102D800043090220DEE700BF00209BF80410C8F8CA
:102D9000007041F00101CBF810708BF8041003B003
:102DA00000F002B80120F0E730BCBDE8C08F0000A1
:102DB0002DE9F04782B08046154601200129D8BF91
:102DC0000146A1F1010900240DF106066F46C24635
:102DD0004C451AD02846314601223B4600F09EFA67
:102DE0000098012810D19DF806000D28F2D00AF8AD
:102DF000010B0A2804F10104EAD100208AF800003E
:102E0000404602B0BDE8F087A14600208AF80000E5
:102E1000B9F1000F08BFC846404602B0BDE8F087D0
:102E200010B582B0009129B34FF0FF3E01EB0E0CBC
:102E30009CF80130212B21D33A2B1FD09CF8023073
:102E4000212B27D33A2B25D09CF80330212B39D3C3
:102E50003A2B37D09CF804400EF1040EA4F13A034B
:102E6000B3FA83F34FEA531C212C1AD33A2CDDD149
:102E700017E000BF0B21084602B010BD3A3BB3FA81
:102E800083F34FEA531C0EF1010EBCF1000F0BD17E
:102E900022E000BF3A3BB3FA83F34FEA531C0EF132
:102EA000020EBCF1000F17D00978A1F13003092BF5
:102EB00034D8BEF1010F4FF00B0108BF002BDAD15F
:102EC0000AE000BF3A3BB3FA83F34FEA531C0EF11A
:102ED000030EBCF1000FE7D140F29803C2F20003E9
:102EE000596859B19C688C4204BF00249C609C695D
:102EF0008C4204BF00249C6100240C70002188B126
:102F0000012A01705860B6D1684601A9002200F07C
:102F1000E5FB0146084602B010BD00BF0B21084684
:102F200002B010BD5960084602B010BD2DE9F04F47
:102F30008FB00E9190B102F03F0A154680460EA860
:102F400001A9524600F0CAFB814668B10020C8F8CA
:102F5000000048460FB000F0DDB900BF4FF009098E
:102F600048460FB000F0D6B9019C0E9902A8029411
:102F700000F042FE8146A8B11AF01C0F52D0B9F100
:102F8000000F58D0B9F1040F74D140F29800C2F28A
:102F900000008168002969D08069002866D04FF060
:102FA000120967E09DF9370000282FD440F29800FD
:102FB000C2F200008168029A61B191420AD1C368ED
:102FC000049FBB4206D10369079FBB4202D1002187
:102FD0000DE000BF83695BB393421DD1C269049BBE
:102FE0009A4219D1026A079B9A4215D1012115F024
:102FF0003E0205D100EB0110808AB0F5807FBBD185
:103000001AF01C0F4FF0100934D10BE01AF01C0F0E
:103010004FF006092ED105E051B11AF01C0F4FF008
:10302000120927D1B9F1000F7FF490AF0CE000BF77
:103030001AF01C0F08D09DF80E0010F0110F0DD1E2
:10304000082000EA450917E09DF80E00C10609D4E2
:103050005FEA8A717AD510F0010077D04FF0070946
:1030600074E700BF4FF0040970E700BF02A8FFF744
:103070000FFD81464AF0080AB9F1000F62D11AF03B
:1030800008005FD001F05AF90A99020A8873030C0C
:10309000070E88752020CA730B744F74CA750B769F
:1030A0004F76C8722078B1F81AB0032805D1087D90
:1030B0004A7D000440EA026083440020488322786D
:1030C000032A08BF8882C8610120BBF1000FE070AD
:1030D0003CD0BBF1010F00F01381029D6869584597
:1030E00040F20E81E06A5F46009002E08642374679
:1030F00020D22846394601F0B9F80646013000F0E2
:103100000381BEB1012E00F0FB8028463946002223
:1031100001F046FB002840F0FB80D5E90410821E38
:103120009142E3D22A790131296142F001012971EA
:10313000DCE700BF0099204601F0ACFA8146ABF114
:103140000100E060B9F1000F7FF400AF40F2980198
:10315000E06AC2F20001029A8B68C8F824000A985B
:103160009342C8F8280009D1CF68049EB74205D120
:103170000F69079EB74201D1002321E08E69964274
:103180000AD1CF69049DAF4206D10F6A079DAF42B5
:1031900002D1012314E000BF4FF0000C23B1E6B9C7
:1031A0002746012302E000BF27460023079C01EBCE
:1031B0000316049D34613C46C6E90225A6F814C0F6
:1031C0000AF0080201EB03114AEAC20231F8147F47
:1031D000022A01D2013709E037B10020C8F81000F7
:1031E0004FF00209B2E600BF4FF480770F80591C00
:1031F000C8F810102178458B032905D1017D437D46
:10320000090441EA03610D44C8F80850D0F81CB025
:103210004FF00009C8F80CB0C8F82C90C8F800406E
:10322000E08808F13006A8F8040030464FF4007139
:1032300088F8142088F81590C8F82090C8F81890DD
:10324000FDF786F85FEA8A607FF583AEBBF1000F79
:103250003FF47FAEC8F818B060890027BBEB402F61
:1032600024D90096A2464402A7EB40295E4600BF3F
:10327000D8F80000294600F0F9FF054602284FF073
:10328000000038BF01204700681C08BF0127A6EBDB
:10329000040B27B909EB0600A0425E46E8D8384681
:1032A000002F18BF0120009E544600E00020C8F8FF
:1032B0001C50D8B958466FF35F20B8B16169A81E99
:1032C000023988421CD26189A26A00FB0120B8B190
:1032D00000EB5B22C8F820206078314601234FF0D4
:1032E0000109FFF77DFC00287FF430AE002FB946BE
:1032F0007FF42CAE4FF0000948460FB000F00AB83A
:103300004FF0020922E600BF4FF001091EE600BFA0
:1033100081461BE630BCBDE8C08F00002DE9F04FB0
:1033200081B004460020186004B32068C0B189460B
:103330000178A9B11646A188C288914210D140787F
:103340001D46FFF75DFCC0070AD1677D7FB9207D70
:10335000C00711D10727384601B000F05BB900BFA4
:103360000927384601B000F055B900BF0927384693
:1033700001B000F04FB900BFE068A169401AB04247
:1033800038BF0646002E00F03381D4F800E004F187
:10339000300BCDF800E00EE0DDF800E04FEA482009
:1033A000A1692A68814401440244361A4FF000079B
:1033B000A1612A60DBD00A466FF35F22A2B1C2F599
:1033C0000070B04228BF30460BEB020110F0030240
:1033D000A0F1010C14D011F8013B4F46012A07F867
:1033E000013B11D1624650E0BEF80A005F46013849
:1033F00000EA512BBBF1000F10D0E06974E000BF70
:1034000002464F4641E000BF11F8013B022A89F80D
:10341000013033D109F10207821E36E0002949D07C
:10342000E36A002B48D05A68002A00F0E780206841
:10343000490A4089B1FBF0F003F12401904243D3E3
:1034400051F8183C002B00F0D980801A98423DD3E7
:1034500051F8102C002A00F0D180C01A904237D3C6
:1034600051F8083C002B00F0C980801A984231D3F3
:1034700051F8202BC01A002AE0D1BFE011F8012B2F
:1034800009F1030789F80220C21EBCF1030FFFF403
:1034900087AF3B1F043900BF11F8047F043A03F8DB
:1034A000047F4F785F708F789F70CF78DF70F3D193
:1034B00076E700BFA06810E02068E16900F0D6FE62
:1034C000DDF800E009E000BF1C3904E0143902E037
:1034D0000C3900E00439096808440228C0F08E80E5
:1034E000411C00F09180E061DEF8141002380239CE
:1034F000884280F08380BEF80A10DEF8282000FBA6
:10350000012000287AD05FEA562800EB0B0A47D04A
:103510000BEB080088429EF8010088BFA1EB0B0866
:10352000494652464346FFF75BFB00286CD194F9AD
:103530001400BB46B0F1FF3F3FF72EAF206AA0EB6F
:103540000A004045BFF428AF09EB402000211BF8DA
:1035500001200BEB010342545F78421857709F78AB
:1035600010319770DF78B1F5007FD7701F79177130
:103570005F7957719F799771DF79D7711F7A1772C9
:103580005F7A57729F7A9772DF7AD7721F7B1773B1
:103590005F7B57739F7B9773DB7BD373D7D1FBE63E
:1035A000226ABB4652451DD094F91400B0F1FF3F8A
:1035B0000DDC9EF80100594601230127FFF72CFB83
:1035C000E8B9207DDDF800E000F07F0020759EF86E
:1035D00001005946524601230127FFF701FBDDF8A0
:1035E00000E060B9A269C4F820A06FF35F22E6E6AC
:1035F0000027384601B000F00DB800BF02276775FC
:10360000384601B000F006B801276775384601B0AA
:1036100000F000B830BCBDE8C08F0000F0B581B04C
:1036200090B10446006878B1017869B1A188C28878
:10363000914209D14078FFF7E3FAC00704D1207D19
:10364000410605D4002640E00926304601B0F0BD11
:10365000256840B2B0F1FF3F2EDD00F06FFE616AD9
:103660000746284601F016F8064670BBA06AC17AE4
:1036700041F02001C172A168226841831278032AB7
:1036800003D10A0C090E02754175E1688775C161A5
:10369000390AC175390C0176390E41760021418213
:1036A0000120E870284601F003F9217D01F0BF01F7
:1036B000217501B0F0BD00BF6878226A04F13001C5
:1036C00001230126FFF7A8FA10B1304601B0F0BD82
:1036D000207D00F07F002075BFE700002DE9F04756
:1036E00000230B600368002B44D04FF0FF3700BF6E
:1036F000DE197578212D19D33A2D17D0B578212DE3
:103700001CD33A2D1AD0F578212D1FD33A2D1DD078
:1037100035790437A5F13A06B6FA86F67609212DF1
:1037200001D33A2DE4D166B317E000BFA5F13A0604
:10373000B6FA86F6760901377EB922E0A5F13A0697
:10374000B6FA86F676090237DEB106E0A5F13A064A
:10375000B6FA86F6760903379EB11E78303E092EFA
:1037600008D8012F4FF00B0508BF002E06D02846C1
:10377000BDE8F0870B20BDE8F08700BF3B44013374
:10378000036040F29806C2F200067468002C00F054
:103790000381207802F0FE050C6068B16078FFF7C5
:1037A0002FFAC10708D140070A21002D18BF01EAEE
:1037B000E0752846BDE8F087002020800020FFF754
:1037C000F1F9C1071CBF0320BDE8F087002D1EBF23
:1037D00010F004000A20BDE8F0870020E0704FF0F0
:1037E000FF30E0622046002100F054FF00281CBF9B
:1037F0000120BDE8F087B4F82E024AF6552A50455C
:1038000040F0F68194F83000E92807D0EB2840F02A
:10381000C78094F83200902840F0C28094F8672066
:1038200094F8683094F86610120244F2461042EAA6
:103830000342C0F254001144814206D0D4F88210F1
:1038400000F14C50814240F0AB800027B4F83B00BF
:10385000B0F5007F1CBF0D20BDE8F087B4F846002E
:10386000002808BF606D94F84030A061591E0129FE
:10387000A37000F2BD8194F83D20511E1140B2FAB0
:1038800082F518BF01216D092943628140F0B081A2
:1038900094F8415094F8421045EA01212D07218106
:1038A00040F0A681B4F84350002D08BF256DB4F850
:1038B0003E90B9F1000F00F09B8100FB03FE0EEB80
:1038C00011134B449D42C0F09381ED1A9542C0F014
:1038D0008F81B5FBF2F24FF6F6754FF00308AA425E
:1038E00040F6F57538BF4FF00208AA4298BF4FF076
:1038F000010802F1020C07EB09053B44B8F1030F84
:10390000C4F814C0C4E90775A36240F03F81B4F85D
:103910005A2011431CBF0D20BDE8F08740F2FF1272
:10392000E16D02EB8C02B0EB522F61623CBF0D20C7
:10393000BDE8F0874FF0FF30C4E90300B4F8600041
:1039400080210128217140F04081791C204600F03F
:10395000A1FE002840F03981B4F82E020021504524
:10396000217140F03281206B45F25221C4F2611185
:10397000884240F02A81D4F8140247F27221C6F23C
:103980004111884240F02181D4F81C02D4F8181269
:10399000C4E9030119E100BF0C20BDE8F08700BFB6
:1039A00094F8F201002814BFD4F8F671002794F8B7
:1039B0000202002814BFD4F80652002594F812021F
:1039C000002814BFD4F816924FF0000994F8220290
:1039D000002814BFD4F826824FF000087FB30020DF
:1039E000E0704FF0FF30E0622046394600F052FEB2
:1039F00028BBB4F82E02504521D194F83000E928B4
:103A000005D0EB281BD194F83200902817D194F8F8
:103A1000672094F8683094F86610120244F2461059
:103A200042EA0342C0F25400114481423FF40EAF17
:103A3000D4F8821000F14C5081423FF407AF8DB3AF
:103A40000020E0704FF0FF30E0622046294600F091
:103A500021FE38BBB4F82E02504523D194F8300033
:103A6000E92805D0EB281DD194F83200902819D10F
:103A700094F8672094F8683094F86610120244F2C3
:103A8000461042EA0342C0F254001144814201D17F
:103A90002F46DBE6D4F8821000F14C5081422F46CD
:103AA0003FF4D4AEB9F1000F32D00020E0704FF0F7
:103AB000FF30E0622046494600F0ECFD40BBB4F820
:103AC0002E02504524D194F83000E92805D0EB2887
:103AD0001ED194F8320090281AD194F8672094F8F7
:103AE000683094F86610120244F2461042EA03422B
:103AF000C0F254001144814202D14F46A6E600BFF5
:103B0000D4F8821000F14C5081424F463FF49EAEF3
:103B1000B8F1000F6CD00020E0704FF0FF30E06291
:103B20002046414600F0B6FD00281CBF0120BDE83C
:103B3000F087B4F82E0250455AD194F83000E928A5
:103B400005D0EB2854D194F83200902850D194F845
:103B5000672094F8683094F86610120244F2461018
:103B600042EA0342C0F254001144814202D1474666
:103B70006CE600BFD4F8821000F14C5081424746F9
:103B80001CBF0D20BDE8F08760E600BF81B30CEBE1
:103B90004C0302F0010707EB5303A2F6F672B2F5ED
:103BA000704F38BF4FEA4C0303F2FF1205EB0E01D2
:103BB000B0EB522F61623CBF0D20BDE8F0874FF0A3
:103BC000FF30C4E90300802020713088B1680130E3
:103BD00084F800803080A142E08004BF0020B06003
:103BE000B0690025A04208BFB5612846BDE8F0874E
:103BF0000D20BDE8F08700002DE9F04F83B0D0F82C
:103C0000008004460D4600E0043528785C2801D089
:103C10002F2814D168785C2801D02F280CD1A878DF
:103C20005C2801D02F2809D1E8785C28ECD02F2817
:103C3000EAD0033503E000BF013500E00235002281
:103C4000A2602878202835D2802084F82F0098F8A8
:103C5000000062610328C0F0B982D8F8241000295E
:103C600000F0B482B8F80A00D0B1D8F814308A1E37
:103C7000023B9A4280F0D282D8F8283002FB003012
:103C80000028A161E06140F0AA82CAE20229C0F0E6
:103C9000C882D8F8140081424FF0020080F0AA8256
:103CA000206800F0E3FA01460130EFD1012003B0B3
:103CB00000F0D8BA04F1240A08F1300C04F12C0EFB
:103CC0004FF020304FF0050B4FF00009CAF8070005
:103CD000CAF80400CAF800002878212828D2012751
:103CE00004200026002E00F0AD829AF80010E5298D
:103CF00008BF8AF800B02668B9F1000F84F82F00D9
:103D0000626100F0AF807089002800F07F827369E3
:103D1000A9F10201023B994280F09882B36A01FB4B
:103D200000310029C4F81890E16140F0B18078E2D8
:103D30006B1C0026C7B22E2F00F052812F2F00F0EF
:103D40004D815C2F00F04A81082E00F04A8141B27B
:103D5000B1F1FF3F06DD6FF0210151FA80F15D29DD
:103D60000ED96DE045F23830C0F60000384410F846
:103D7000800C6FF0210151FA80F15D2900F2608022
:103D8000DFE811F034025E005E005E005E005E005F
:103D90005E005E003402340234025E005E005E00AB
:103DA0005E005E005E005E005E005E005E005E0023
:103DB0005E005E0034023402340234023402340203
:103DC0005E005E005E005E005E005E005E005E0003
:103DD0005E005E005E005E005E005E005E005E00F3
:103DE0005E005E005E005E005E005E005E005E00E3
:103DF0005E005E005E0034025E0034025E005E0023
:103E00005E005E005E005E005E005E005E005E00C2
:103E10005E005E005E005E005E005E005E005E00B2
:103E20005E005E005E005E005E005E005E005E00A2
:103E30005E005E005E005E0034025E005E003402E2
:103E4000A0F16101C9B21A2938BF20380AF806006A
:103E5000985D711C21280E46BFF46CAF4F1C0420E6
:103E600043E700BF3078032805D3D6F82490B9F192
:103E7000000F7FF448AF3089002800F0D281716ACA
:103E80004FF000090029C4F81890E16100F0C981E1
:103E900006F1300020623046CDE901EC00F0FAFB7B
:103EA000002840F0A5813D4412E000BF3889B0EB06
:103EB000591F40F2BB8100BF07EB0B00303020627E
:103EC0003046C4F8149000F0E5FB002840F09081E3
:103ED000216A0878002800F0AB81C87A00F03F0220
:103EE000A271CA7A120737D40A789AF800309A4237
:103EF00032D14A7894F825309A422DD18A7894F8B4
:103F000026309A4228D1CA7894F827309A4223D191
:103F10000A7994F828309A421ED14A7994F82930C7
:103F20009A4219D18A7994F82A309A4214D1CA79DE
:103F300094F82B309A420FD10A7A94F82C309A4296
:103F40000AD14A7A94F82D309A4205D1897A94F8A8
:103F50002E20914200F01881E169002900F068816B
:103F6000606900F120094FF6FF70C0F21F00814523
:103F700000F25E81CB4627686FF35F2BBBF1000F29
:103F80009AD1A2690131002AE1618FD078894FF678
:103F9000FF73C0F21F03184400F5C00010EA592F48
:103FA0007FF48AAF3846114600F060F90228C0F06D
:103FB0003881411C3FF47AAE7969884280F03681BD
:103FC000821E02398A42A06104D27889B96A02FB52
:103FD000001100E00021E1616EE700BF771CB6E050
:103FE0002E20C0B22E2840F02D81A8194778212F0D
:103FF00004D2B71C0420082674E600BFE34600F193
:10400000020C0023F8B22E2800F01C812F2800F0AB
:1040100093805C2800F09080032B00F0138179B22C
:104020007246B1F1FF3F06DC45F23831C0F60001BF
:10403000084410F8807C6FF0210050FA87F15D2968
:1040400000F262800620DFE811F0D5005F005F001B
:104050005F005F005F005F005F00D500D500D50006
:104060005F005F005F005F005F005F005F005F0058
:104070005F005F005F005F005F00D500D500D500E6
:10408000D500D500D5005F005F005F005F005F00D6
:104090005F005F005F005F005F005F005F005F0028
:1040A0005F005F005F005F005F005F005F005F0018
:1040B0005F005F005F005F005F005F00D5005F0092
:1040C000D5005F005F005F005F005F005F005F0082
:1040D0005F005F005F005F005F005F005F005F00E8
:1040E0005F005F005F005F005F005F005F005F00D8
:1040F0005F005F005F005F005F005F005F00D50052
:104100005F005F00D50000BFA7F16100C0B21A28B0
:1041100038BF203FD7541CF803709646212F03F177
:104120000103BFF46FAFF018871C04200022DC46A7
:104130004FF0050BD9E500BFF018871C03F1080606
:104140000022DC464FF0050B01E000BF0437E85DBC
:104150005C2801D02F2814D1E81941785C2901D0BE
:104160002F290BD181785C2901D02F2908D1C07863
:104170005C28EBD02F28E9D0033702E0013700E0BC
:1041800002370020AEE500BF94F82F10490729D46C
:10419000C00663D5606902996FF35F20084498F800
:1041A0000010B0F81A90032905D1017D407D090463
:1041B00041EA00608144DDE901ECC4F80890002286
:1041C0004FF020304FF0050B80E500BFB8F8080035
:1041D00038B3D8F824000021A161E06108B308F1E8
:1041E00030002062002003B000F03CB8062001E05F
:1041F00004281DD003B000F035B800BFB9F1020F9C
:104200000FD3706981454FF00200F3D22068494610
:1042100000F02CF881460130F0D147E50020C4E9D8
:104220000610022003B000F01DB800BF0020E061BE
:1042300094F82F0040074FF0040058BF052003B04A
:1042400000F010B8062003B000F00CB80020C4E95C
:104250000690022003B000F005B800BF052003B0AF
:1042600000F000B830BCBDE8C08F0000F0B581B0F0
:10427000022931D3054640690C4688422CD928785A
:1042800003282DD0022847D0012825D1286A04EB25
:10429000540700EB5721284600F0FCF9002842D1D2
:1042A0007E1C6FF35F27296AE81990F8307001EBE4
:1042B0005621284600F0EEF9A8BB6FF35F26A81937
:1042C00090F83000E20747EA002108466FF31F30FC
:1042D00018BF080901B0F0BD012001B0F0BD00BF5A
:1042E000286A00EBD411284600F0D4F9D8B904F0BC
:1042F0007F0005EB800191F8323091F8300091F8A1
:10430000312091F833101B0243EA0141114461F35B
:104310001B2001B0F0BD00BF286A00EB1421284625
:1043200000F0B8F920B14FF0FF3001B0F0BD00BF90
:10433000E0B205EB4000008E01B0F0BD00207047F8
:10434000ADF59D6DFDF7FAF8FEF790F9002541F205
:104350004C06B395C4F20206306840F2004440F0C7
:10436000040030603068C4F6000400F004002290BD
:10437000229830684FF0020840F0800030603068CA
:10438000032700F08000229022983068AEA940F008
:1043900001003060306800F00100229022983068FF
:1043A00040F002003060306800F002002290229855
:1043B0000120C4F81880AF902046CDF8B882CDE92E
:1043C000B075B295FDF766F9F06822A940F4804017
:1043D000F060F06800F48040AE90AE98306840F035
:1043E00002003060306800F00200AE90AE984FF4EA
:1043F0006040CDE92208052027902046CDE92475AC
:104400002695FDF747F94FF48270AF904FF4E060C6
:10441000CDE9B0054FF40070B390202043F60404BA
:10442000CDE9B4050720C4F20004B790201FAEA95F
:10443000AE95B295B695FDF755FA2068AEA920F075
:1044400010002060206840F00800206054F8040C40
:1044500040F0400044F8040CB295CDE9B055CDE9E8
:10446000AE55F0684FF0804440F00100F060F06815
:1044700000F00100229022984F20ADF8B8024FF0D2
:10448000FF30B0904FF08040FDF772FA20684BF695
:10449000F87220F0800020600820C4F2000001685B
:1044A000CFF6FE721140016050F8041C21F070013B
:1044B00040F8041C016821F080010160206822A9F5
:1044C00040F001002060F06B20F0C000F063F06865
:1044D00040F40020F060F06800F40020AE90AE9848
:1044E000306840F001003060306800F00100AE90AC
:1044F000AE98082027904FF09040CDE92278CDE982
:1045000024752695FDF7C6F84FF4E13044F60044D3
:10451000CDE9AE050C20C4F20004CDE9B205AEA988
:104520002046CDE9B055B495FDF7BEFA606820F499
:1045300090406060A06820F02A00A060206840F0F1
:1045400001002060FDF754FB34A000F0E3F84FF4C5
:104550007A70FDF729FB45F25A41C0F60001AEA87A
:104560000122FEF75DFC28B1014632A000F0D2F82E
:10457000FEE700BF45F25A40C0F6000021A920AA7C
:10458000FEF78EFB30B1014630A000F0C3F800BF4B
:10459000FEE700BF2098219A4169408902394143D2
:1045A0005043420845F215404908C0F6000000F0AB
:1045B000B1F82CA122A80122FEF7B8FC30B10146C7
:1045C0002BA000F0A7F800BFFEE700BF45F2E830DF
:1045D000C0F6000000F09EF8684622AA8021FEF78F
:1045E000E7FB70B127A46D4622AE00BF20462946E6
:1045F00000F090F8284680213246FEF7D9FB0028CB
:10460000F4D122A8FEF718FB45F25A41C0F600018A
:1046100000200022FEF704FCFEE700BF0D0A7E200A
:10462000534420636172642064656D6F207E0D0ABF
:104630000D0A0000665F6D6F756E74206572726F93
:104640007220282569290D0A00000000665F676551
:104650007466726565206572726F722028256929FB
:104660000D0A0000646174612E747874000000000B
:10467000665F6F70656E206572726F7220282569A3
:10468000290D0A0052656164206C696E653A202527
:10469000730D0A002DE9F041C66A8E4204BF002066
:1046A000BDE8F0810446C0780D4610B3607804F18F
:1046B00030084146324601230127FEF7ADFA18B112
:1046C0003846BDE8F08100BF216AA269711A002056
:1046D0009142E0700DD2A778022F0AD3A1696078C9
:1046E0000E44414632460123FEF796FA013F012F60
:1046F000F4D8607804F130012A460123FEF770FAFD
:10470000074600281CBF4FF0FF350127E5623846F9
:10471000BDE8F08183B010B581B040F2CC0484468E
:1047200003A8C2F200040EC003AB20464FF4807110
:1047300062460093FBF7EEFD22785AB340F2CC00BC
:1047400044F61C41C2F20000C4F2000103E000BFC5
:1047500010F8012FF2B10B681B0606D40B681B067C
:104760005CBF0B685FEA036310D5D2B28A810A6826
:104770005206EDD40A6852065CBF0A685FEA4262DC
:10478000E6D40A685206F2D5E2E700BF0B681B06C2
:10479000E1D5EAE701B0BDE8104003B07047000082
:1047A0002DE9F047022921D3054640690E4688428B
:1047B0001CD92878144603281CD002283CD0012894
:1047C00014D1286A06EB560700EB57212846FFF75D
:1047D00061FF00283FD105F1300807F1010A16F00A
:1047E00001096FF35F2739D1E0B23DE00220BDE857
:1047F000F08700BF286A00EBD6112846FFF74AFF72
:10480000002818BFBDE8F08706F07F0005EB8000A8
:1048100090F8331004F0706201F0F00142EA016197
:10482000220A80F83120220C090E80F8304080F8EE
:10483000322080F833100AE0286A00EB162128465F
:10484000FFF728FF38B9F0B205EB40000486EE1CF4
:10485000012030700020BDE8F08700BF18F8070085
:1048600000F00F0064F30B10296A08F8070001201C
:104870002E4606F8030F01EB5A212846FFF70AFFE0
:104880000028E8D1B9F1000F6FF35F2A0AD118F8B8
:104890000A00C4F3032100F0F000084408F80A00FD
:1048A000D6E700BFC4F3071008F80A00D0E70000FD
:1048B000F0B581B00446C07818B3E56A607804F1B9
:1048C000300631462A4601230127FEF7A5F918B123
:1048D000384601B0F0BD00BF216AA269691A002004
:1048E0009142E0700DD2A778022F0AD3A1696078B7
:1048F0000D4431462A460123FEF78EF9013F012F70
:10490000F4D8207803282DD1207901282AD104F168
:1049100034004FF4FD71FBF71BFD45F25220C4F249
:104920006110254645F8300F4AF65520A5F8FE01DE
:1049300047F27220C6F24110C5F8E40155E90910AA
:104940000123C5F8E80155F8140CC5F8EC11421C18
:1049500015F82F0C294645F8042CFEF75DF90020C8
:1049600005F82C0C607800210022FEF72DF907468F
:10497000002818BF0127384601B0F0BDF0B581B05E
:104980000446C078F8B1E56A607804F13006314633
:104990002A4601230127FEF73FF9C8B9206AA16919
:1049A000281A00278842E77012D2A778022F0AD36C
:1049B000A16960780D4431462A460123FEF72CF99F
:1049C000013F012FF4D80027384601B0F0BD00BFE9
:1049D000384601B0F0BD5FEA400C08BF91F0000F0F
:1049E0004FEA8C234FEAC12243EA51514FEA1C504F
:1049F00018BF00F5F0404FEA300018BF41F0004109
:104A00005FEA6C5C00F02980BCF1FF3F08BF40F01A
:104A100080407047130C06BF12044FF0100C4FF08B
:104A2000000C130E04BF12020CF1080C130F04BF8C
:104A300012010CF1040C930F04BF92000CF1020C54
:104A4000D30F04BF52000CF1010C11464FF00002CD
:104A5000A0F11F00A0EB0C00704711F0004F08BF41
:104A6000704731F000413FF4D5AF0B0C06BF09048D
:104A70004FF0100C4FF0000C0B0E04BF09020CF1AC
:104A8000080C0B0F04BF09010CF1040C8B0F04BFC1
:104A900089000CF1020CCB0F04BF49000CF1010C92
:104AA000CCF1200322FA03F341EA030102FA0CF2EB
:104AB000A0EB0C0000F101007047000023F07F47DD
:104AC00020F07F4C80EA030000F00040ACEB0703CD
:104AD00003F57C5303F1FF032DE9804909B44FEA44
:104AE000144324EA03484FEA154B25EA0B4E0FF214
:104AF000042606EB13273E7803FB0667C7F500077D
:104B000007FB06F64FEAD64606F102064FEA54378F
:104B100007FB066CCCF1005C4FEA1C472CEA074C03
:104B20000CFB06F507FB06F404EB15464FEA961658
:104B300049085FEA320234BF00204FF000404FEADC
:104B4000D13706FB07FC4FEA1C4C0CFB0BF7D21BC2
:104B500003FB0CF761EB07010CFB0EF7B0EB074012
:104B600072EB17420CFB08F734BFA2EB0742B2EB23
:104B7000074261EB17414FEA0C444FEA910706FBED
:104B800007FC4FEA1C4C0CFB0BF7B0EBC74072EB79
:104B9000573203FB0CF734BFA2EBC742B2EBC7425C
:104BA00061EB57310CFB0EF7B0EBC70072EB57729D
:104BB0000CFB08F734BFA2EBC702B2EBC70261EBF4
:104BC00057714FEA816141EA92114FEA826242EAEB
:104BD00090124FEA806004EBCC04039F4FEAD13778
:104BE00006FB07FC4FEA1C4C0CFB0BF7D21B03FB2C
:104BF0000CF761EB07010CFB0EF7B0EB074072EB13
:104C000017420CFB08F734BFA2EB0742B2EB074296
:104C100061EB17414FEA8C5504EB9C244FEA910756
:104C200006FB07FC4FEA1C4C0CFB0BF7B0EBC74034
:104C300072EB573203FB0CF734BFA2EBC742B2EB67
:104C4000C74261EB57310CFB0EF7B0EBC70072EBBC
:104C500057720CFB08F734BFA2EBC702B2EBC702D6
:104C600061EB57714FEA816141EA92114FEA82622A
:104C700042EA90124FEA806015EB4C2544F10004A3
:104C80004FEAD13706FB07FC4FEA1C4C0CFB0BF735
:104C9000D21B03FB0CF761EB07010CFB0EF7B0EB2B
:104CA000074072EB17420CFB08F734BFA2EB074238
:104CB000B2EB074261EB17414FEA813141EA924181
:104CC0004FEA823242EA90424FEA80304FEA0C7655
:104CD00015EB1C1544F1000448EA03434EEA0B4867
:104CE0004FF0000EB2EB080C71EB030724BF6246D5
:104CF00039464EEB0E0E4FF0000B00185241494161
:104D00004BEB0B0BB2EB080C71EB03077BF1000BC9
:104D100024BF624639464EEB0E0E4FF0000B0018D2
:104D2000524149414BEB0B0BB2EB080C71EB030703
:104D30007BF1000B24BF624639464EEB0E0E51EA62
:104D4000020718BF46F0010616EB0E7655F1000279
:104D500054F1000103D5BDE88901BDE80088BDE834
:104D60008901BDE80048B619524141EB0101A3F1A8
:104D70000103704780807F7E7D7C7B7A79787776AF
:104D800076757473727171706F6E6E6D6C6C6B6A28
:104D90006A696868676666656464636362616160C6
:104DA000605F5F5E5E5D5D5C5C5B5B5A5A59595843
:104DB00058575756565555555454535352525251AD
:104DC000515050504F4F4F4E4E4D4D4D4C4C4C4B03
:104DD0004B4B4A4A4A49494948484847474747464A
:104DE0004646454545444444444343434342424286
:104DF000424141419C46002B30D477002BD04FEAF2
:104E000037071CB503B44FF010004FF01001BAF192
:104E1000000F06D0BCF1000FDCBF40F0080040F0EE
:104E200008014FF000000FBCBDE810400BF1010B72
:104E3000BBF1010F08BF5FEA170722BF12F10102A1
:104E400011F101014FF0004143F1000300F0004077
:104E500043EA00007047F9D35708D0E746EA064610
:104E60004FEA164613F1400F1FDD13F1200FDFBF8D
:104E700016430A46002120335B42BED0C3F120070F
:104E800046EA06464FEA164602FA07F746EA0706DA
:104E900022FA03F2C3F1200701FA07F742EA0702F8
:104EA00021FA03F14FF00003A7E746EA020646EABB
:104EB00006464FEA164646EA0106BCBF46EA0646E3
:104EC000360C4FF000034FF000024FF0000194E762
:104ED0002DE9804C70B49A46934691E8380007C893
:104EE00031EA400C48BF34EA430C03D5FFF7E6FD36
:104EF000FFF780FFF0BCBDE8008C2DE9804C70B45A
:104F00009A46934691E8380007C810F0804F08BFD2
:104F100013F0804F03D100F005F8FFF76BFFF0BCF2
:104F2000BDE8008C20F07F4723F07F4C80EA03002F
:104F300000F0004007EB0C03A3F57C53A3F1FE0344
:104F400092F0000F00F0B38095F0000F00F0778032
:104F50002DE901494FEA114021EA00484FEA144681
:104F600024EA064700FB06FC08FB06F607FB08F8E8
:104F700018EB06484CEB164C00FB07F718EB0748FC
:104F80004CEB17404FEA124B22EA0B4E4FEA154604
:104F900025EA06470BFB06FC0EFB06F607FB0EFE9A
:104FA0001EEB064E4CEB164C0BFB07F71EEB074EA9
:104FB0004CEB174B18EB0B0840F1000018EB0E0BF5
:104FC00058EB000840F100008F1A4FF000014FF03D
:104FD00000063CBFC943661B14BFB5EB040C00219F
:104FE0003CBFC943F61B4FEA174427EA04454FEA82
:104FF0001C472CEA074C04FB076205FB07F70CFB78
:1050000005F616EB074642EB174204FB0CFC16EBC9
:105010000C4642EB1C421BEB060658EB02024141D8
:105020004EEA8E0E46EA9E0601D5BDE80189B61904
:10503000524141EB0101A3F10103BDE801894FEAAF
:10504000144524EA05464FEA114721EA074C05FBBF
:1050500007F406FB07F70CFB06F111EB074144EBE5
:10506000174405FB0CFC11EB0C4144EB1C444FEACC
:10507000124722EA074C05FB07F206FB07F70CFB79
:1050800006F616EB074642EB174205FB0CFC16EB47
:105090000C4642EB1C456A1854F1000148BF7047AA
:1050A000B619524141EB0101A3F10103704795F09C
:1050B000000F37D04FEA114221EA02464FEA144767
:1050C00024EA074C02FB07F106FB07F70CFB06F48A
:1050D00014EB074441EB174102FB0CFC14EB0C44AE
:1050E00041EB1C414FEA154725EA074C02FB07F547
:1050F00006FB07F70CFB06F616EB074645EB1745D4
:1051000002FB0CFC16EB0C4645EB1C42121951F14C
:10511000000148BF7047B619524141EB0101A3F1AC
:10512000010370474FEA144524EA05464FEA114748
:1051300021EA074C05FB07F106FB07F70CFB06F21B
:1051400012EB074241EB174105FB0CFC12EB0C4242
:1051500051EB1C414FF0000648BF7047921841EBDD
:105160000101A3F10103704703B4019841000098C5
:1051700050EAC12018BF04204A0D18BF40F00100BA
:1051800040F2FF72B2EB515F08BF40F0020001280D
:1051900008BF052002B0704730380A2801D201202C
:1051A000704700207047000010B500290AD0087829
:1051B000002807D005487844FCF742F9002801D0C0
:1051C000002010BD0248784410BD0000C602000057
:1051D000BE02000010B500290AD00878002807D0C8
:1051E00005487844FCF72CF9002801D0002010BDB8
:1051F0000248784410BD0000B6020000AE02000074
:10520000F1EE100A4FF6FF71C0F2C03120EA010042
:1052100040F04070E1EE100A7047FBF716BDFBF757
:105220004DBE0000000000000000000030313233AD
:1052300034353637383941424344454640305800CA
:1052400030313233343536373839616263646566FC
:105250004030780004000008000000000000000258
:1052600000010000103031323334353637383961BF
:1052700062636465667870003031323334353637B6
:10528000383941424344454658500000024000002E
:10529000000000A00000000005400000000000C861
:1052A000000000000C4000000000409C00000000D6
:1052B000194000000020BCBE000000003440000087
:1052C000BFC91B8E00000004B5400000504BCFD07A
:1052D0006607E2CF010000006C4100003E8251AA47
:1052E000DFEEA73401000000D9420000DCB5A0E2E7
:1052F0003A301F97FFFFFFFFB4450000FD25A0C80F
:10530000E9A3C14FFFFFFFFFFF3F00000000008047
:1053100000000000FF3F00000000008000000000CF
:105320000000000000000000010203040607080955
:10533000000000000102030443554541414141433F
:1053400045454549494941414592924F4F4F555531
:10535000594F554F9C4F9E9F41494F55A5A5A6A714
:10536000A8A9AAABACADAEAFB0B1B2B3B4414141A4
:10537000B8B9BABBBCBDBEBFC0C1C2C3C4C5414140
:10538000C8C9CACBCCCDCECFD1D145454549494975
:1053900049D9DADBDCDD49DF4FE14F4F4F4FE6E81B
:1053A000E85555555959EEEFF0F1F2F3F4F5F6F7EB
:1053B000F8F9FAFBFCFDFEFFA0860100400D03009A
:1053C000801A060000350C0040420F0080841E0049
:1053D00000093D0000127A000024F40000366E013E
:1053E0000048E801006CDC024920776173206162AB
:1053F0006C6520746F206F70656E20277465737400
:105400002E7478742720666F722072656164696EED
:1054100067210D0A00534420636172642073746134
:1054200074733A0D0A2531306C75204B6942207433
:105430006F74616C20647269766520737061636556
:105440002E0D0A2531306C75204B69422061766142
:10545000696C61626C652E0D0A002F00A85500086A
:105460000000002028000000C4010008D0550008FA
:1054700028000020A8070000E00100081C00000030
:1054800043000000F8FFFFFF0C0000000E000000CA
:105490000F0000002E00000010010000430000007B
:1054A000F8FFFFFF00404040404040404040414145
:1054B00041414140404040404040404040404040E9
:1054C0004040404040050202020202020202020283
:1054D0000202020202202020202020202020200280
:1054E0000202020202029090909090901010101010
:1054F00010101010101010101010101010101010AC
:10550000020202020202888888888888080808083F
:10551000080808080808080808080808080808080B
:105520000202020240000000000000000000000033
:10553000000000000000000000000000000000006B
:10554000000000000000000000000000000000005B
:10555000000000000000000000000000000000004B
:10556000000000000000000000000000000000003B
:10557000000000000000000000000000000000002B
:10558000000000000000000000000000000000001B
:10559000000000000000000000000000000000000B
:1055A00000000000000000000100000010000000EA
:1055B0000100000000093D00C9270008D5270008A8
:1055C000D1270008D9270008CD27000800000000D7
:040000050800018965
:00000001FF
