:020000040800F2
:100000008006002089010008910100089301000882
:100010009501000897010008990100080000000000
:100020000000000000000000000000009B0100082C
:100030009D010008000000009F010008A1010008C8
:10004000A3010008A3010008A3010008A301000800
:10005000A3010008A3010008A3010008A3010008F0
:10006000A3010008A3010008A3010008A3010008E0
:10007000A3010008A3010008A3010008A3010008D0
:10008000A3010008A3010008A3010008A3010008C0
:10009000A3010008A3010008A3010008A3010008B0
:1000A000A3010008A3010008A3010008A3010008A0
:1000B000A3010008A3010008A301000859030008D8
:1000C000A3010008A3010008A301000835070008E8
:1000D000A3010008F90A0008A3010008A301000811
:1000E000A3010008A3010008A301000800F002F822
:1000F00000F03AF80AA090E8000C82448344AAF188
:100100000107DA4501D100F02FF8AFF2090EBAE885
:100110000F0013F0010F18BFFB1A43F0010318473B
:10012000100C0000300C0000103A24BF78C878C1D1
:10013000FAD8520724BF30C830C144BF04680C60ED
:10014000704700000023002400250026103A28BF35
:1001500078C1FBD8520728BF30C148BF0B60704739
:100160001FB51FBD10B510BD00F031F81146FFF7E7
:10017000F7FF00F0D2FD00F04FF803B4FFF7F2FFF5
:1001800003BC00F057F800000948804709480047C1
:10019000FEE7FEE7FEE7FEE7FEE7FEE7FEE7FEE737
:1001A000FEE7FEE704480549054A064B7047000094
:1001B000E9090008ED00000880000020800600200A
:1001C000800200208002002070477047704775460B
:1001D00000F02CF8AE4605006946534620F00700B3
:1001E000854618B020B5FFF7DDFFBDE820404FF091
:1001F00000064FF000074FF000084FF0000B21F011
:100200000701AC46ACE8C009ACE8C009ACE8C009DD
:10021000ACE8C0098D46704710B50446AFF30080C6
:100220002046BDE81040FFF7A8BF00000048704717
:100230002000002001491820ABBEFEE72600020086
:1002400070472DE9F04102460025002600200023DA
:100250000024002791F803C00CF00F0591F803C0AB
:100260000CF0100CBCF1000F03D091F802C04CEA66
:10027000050591F800C0BCF1000F31D014680020D2
:100280002BE04FF0010C0CFA00F3B1F800C00CEABF
:1002900003069E4220D183004FF00F0C0CFA03F7A7
:1002A000BC4305FA03FC4CEA040491F803C0BCF11A
:1002B000280F06D14FF0010C0CFA00FCC2F814C054
:1002C0000AE091F803C0BCF1480F05D14FF0010CD2
:1002D0000CFA00FCC2F810C0401C0828D1D31460EE
:1002E000B1F800C0BCF1FF0F34DD546800202EE0EF
:1002F00000F1080C4FF0010808FA0CF3B1F800C047
:100300000CEA03069E4221D183004FF00F0C0CFA39
:1003100003F7BC4305FA03FC4CEA040491F803C05C
:10032000BCF1280F05D100F1080C08FA0CF8C2F84E
:10033000148091F803C0BCF1480F07D100F1080CFC
:100340004FF0010808FA0CF8C2F81080401C082889
:10035000CED35460BDE8F08110B50F490F4800F0CE
:100360002FF810B100200E4908700B49891E0B4868
:1003700000F026F878B10B480178084800F016F92B
:1003800008480078401C0749087008460078622831
:1003900001DD0020087010BD8200060000540040FE
:1003A000050000200400002021B1028842F4806290
:1003B000028004E002884FF6FF331A400280704743
:1003C00070B502460024002500230020958A138B77
:1003D0001B0445EA030626F07F4404EA01068E4228
:1003E00001D1012000E0002070BD21B1028842F05F
:1003F0000102028004E002884FF6FE731A40028078
:100400007047000000B587B00121480500F008F9E9
:100410000121082000F014F91C208DF81B00C020D9
:10042000ADF8180003208DF81A0006A91C48FFF744
:1004300008FF4FF48060ADF80E000001ADF8100029
:10044000184801904BF6FF70ADF80A000020ADF897
:1004500008001020ADF80C0001A9134800F030F896
:1004600001224FF4C061104800F020F801210E482D
:10047000FFF7BBFF01210C48FFF796FF1F208DF807
:10048000140002208DF8150000208DF816000120C0
:100490008DF8170005A800F08BF807B000BD00002C
:1004A000000C0140A0860100005400401AB183886E
:1004B0000B43838002E083888B4383807047000076
:1004C0002DE9F04385B004460D460026B1460427C9
:1004D000DFF8CC80A6884FF6C0700640684600F072
:1004E000BFF8DDF808802F48B8FBF0F01FFA80F95C
:1004F00046EA0906A68020884FF6FE710840208053
:1005000000262949286888420CD828684000B8FB92
:10051000F0F087B2042F00DA04273E4309F101000E
:10052000208427E0E8884BF6FF71884206D12868CE
:1005300000EB4000B8FBF0F087B209E0286800EB60
:10054000C00101EB0010B8FBF0F087B247F4804720
:10055000C7F30B0008B947F0010747F40040064312
:100560004FF4967009FB00F04FF47A7190FBF1F0B4
:10057000401C2084A683208840F00100208026882B
:100580004FF6F5300640A88869890843064326805F
:10059000A88929890843208105B0BDE8F0830000BF
:1005A00000127A0040420F00A086010001827047CD
:1005B00070B5002100230F22C47804B3154C2468C1
:1005C00004F4E064C4F5E064210AC1F10403CA4004
:1005D000447804FA03F184781440214309010E4C55
:1005E0000678A155047804F01F050124AC40057875
:1005F0006D11AD0005F1E025C5F8004109E0047872
:1006000004F01F050124AC40044D0678761145F82E
:10061000264070BD0CED00E000E400E080E100E069
:1006200029B1064AD2690243044BDA6104E0034A65
:10063000D2698243014BDA6170470000001002402A
:1006400029B1064A92690243044B9A6104E0034AC5
:1006500092698243014B9A6170470000001002408A
:1006600030B500210022002400232D4D6D6805F0D7
:100670000C0121B1042905D0082923D105E0294D19
:10068000056022E0274D05601FE0254D6D6805F4EB
:100690007012234D6D6805F48034022505EB9242FB
:1006A0001CB9214D554305600BE01D4D6D6805F4E7
:1006B00000351DB11C4D5543056002E0194D5543F1
:1006C000056002E0174D056000BF00BF144D6D6866
:1006D00005F0F0010909154D6B5C0568DD404560CA
:1006E0000F4D6D6805F4E061090A104D6B5C4568BB
:1006F000DD4085600A4D6D6805F46051C90A0B4DF7
:100700006B5C4568DD40C560054D6D6805F4404192
:10071000890B074D6B5CC568B5FBF3F5056130BD12
:100720000010024000127A0000093D00090000207C
:100730001900002010B56021094800F094F870B14C
:10074000074800F0BAF8C4B206480078801C054992
:10075000087008460178024800F0B2F800BF10BDEA
:10076000003001400600002000B587B0012141F2B1
:100770000400FFF765FFA020ADF8180004208DF8F5
:100780001B0006A92A48FFF75CFD4020ADF81800C1
:1007900003208DF81A0018208DF81B0006A92448A4
:1007A000FFF74FFD1020ADF8180004208DF81B0056
:1007B00006A91F48FFF745FD0020ADF80400ADF87D
:1007C0000600ADF80800ADF80A00ADF80C00ADF871
:1007D0000E000820ADF810000020ADF8120001A9AD
:1007E000144800F06FF801226021124800F055F81B
:1007F0000121104800F022F800BF02210D4800F04E
:1008000029F80028F9D00C4801780A4800F058F877
:1008100023208DF8000000208DF801008DF80200E3
:1008200001208DF803006846FFF7C2FE07B000BD47
:1008300000080140003001400600002021B102887C
:1008400042F04002028004E002884FF6BF731A4073
:10085000028070470246002013890B400BB1012033
:1008600000E000207047F0B502460020002400237D
:10087000002501F00F070126BE40B4B20B1101267E
:100880009E40B3B2968806EA03051689264016B143
:100890000DB1012000E00020F0BD30B500240023A0
:1008A0000C110125A540ABB21AB185881D43858086
:1008B00002E085889D43858030BD01468889704768
:1008C0008181704710B50022028802F441520B88E2
:1008D0004C8823438C882343CC8823430C892343AF
:1008E0004C8923438C892343CC8923431A430280B8
:1008F000838B4FF2FF74234083830B8A038210BDE6
:1009000010B500F001F810BD0CB50020019000906A
:100910003348006840F480303149086000BF3048F7
:10092000006800F4003000900198401C019000988D
:1009300018B90198B0F5A06FF1D12948006800F40A
:10094000003010B10120009001E0002000900098DC
:10095000012843D12348006840F010002149086075
:100960000846006820F0070008600846006840F06C
:10097000020008601A484068194948600846406803
:1009800048600846406840F4806048600846406817
:1009900020F47C1048600846406840F4E810486045
:1009A0000846006840F08070086000BF0C4800688E
:1009B00000F000700028F9D00948406820F00300DA
:1009C000074948600846406840F00200486000BFA0
:1009D0000348406800F00C000828F9D10CBD000065
:1009E000001002400020024010B51348006840F09B
:1009F00001001149086008464068104908400E4946
:100A00004860084600680E4908400B4908600846DF
:100A1000006820F4802008600846406820F4FE004A
:100A200048604FF41F008860FFF76AFF4FF00060D6
:100A30000449086010BD0000001002400000FFF8EB
:100A4000FFFFF6FE08ED00E000B587B0012144F29B
:100A50000400FFF7F5FD4FF40070ADF81800032017
:100A60008DF81A0018208DF81B0006A92048FFF702
:100A7000E8FB4FF48060ADF8180004208DF81B00EF
:100A800006A91B48FFF7DDFB4FF41650029000202B
:100A9000ADF80C00ADF80E00ADF81000ADF8140084
:100AA0000C20ADF8120002A9124800F0C1F8012292
:100AB00040F225510F4800F096F8012240F22771CC
:100AC0000C4800F090F801210A4800F056F8252063
:100AD0008DF8040001208DF8050000208DF8060037
:100AE00001208DF8070001A8FFF762FD07B000BDE7
:100AF000000801400038014038B540F22771154820
:100B000000F047F8A0B114480478601C124A107035
:100B10002146104800F0FDF80F480078642802DDF7
:100B200001200D49087040F227710A4800F016F8BC
:100B300040F22551074800F02CF850B1054800F06C
:100B4000E3F8C0B2009040F22551024800F006F8E8
:100B500000BF38BD003801400000002010B5002261
:100B6000002340F66A14A14200D100BF0A120124FA
:100B70009440A3B2DC43048010BD21B1828942F4C9
:100B80000052828104E082894DF6FF731A4082810F
:100B9000704770B50246002400230025002040F66F
:100BA0006A16B14200D100BFC1F3421501F01F0324
:100BB000012606FA03F3012D02D19689334006E09F
:100BC000022D02D1168A334001E0968A33400C127E
:100BD000012606FA04F41688344013B10CB1012042
:100BE00000E0002070BDF0B503460024002600257B
:100BF000002040F66A17B94200D100BF1846C1F381
:100C0000421401F01F06012707FA06F5012C01D155
:100C10000C3004E0022C01D1103000E014301AB185
:100C200007682F43076002E00768AF430760F0BD25
:100C30002DE9F04786B005460E460024A24600BFC7
:100C4000A1460027B08900B100BF2F462C8A4CF680
:100C5000FF700440F08804432C82AC894EF6F310F8
:100C60000440B08831890843718908430443AC814A
:100C7000AC8A4FF6FF400440B0890443AC8201A81F
:100C8000FFF7EEFC1F48874202D1DDF810A001E01B
:100C9000DDF80CA0A88900F4004040B10AEBCA00BE
:100CA00000EB0A1031684900B0FBF1F807E00AEBED
:100CB000CA0000EB0A1031688900B0FBF1F864202B
:100CC000B8FBF0F004012009642101FB1089A88918
:100CD00000F4004040B1322000EBC900B0FBF1F05D
:100CE00000F00700044308E0322000EB0910642103
:100CF000B0FBF1F000F00F0004432C8106B0BDE81A
:100D0000F08700000038014001468888C0F30800E1
:100D10007047C1F308028280704708B5FFF794FE60
:100D2000FFF722FDFFF76EFB0020009000BFFEE7FB
:100D3000500D0008000000202000000028010008DD
:100D4000700D00082000002060060000440100082B
:100D5000000001000000010000000000000102038B
:100D60000401020304060708090204060800000043
:040000050800018965
:00000001FF
