:020000040800F2
:10000000680C0020DD02000885370008BD210008CB
:10001000813700088D1E0008094500080000000017
:10002000000000000000000000000000713900081E
:10003000FD1F00080000000089370008D93A0008B9
:10004000F7020008F7020008F7020008F7020008AC
:10005000F7020008F7020008F7020008F70200089C
:10006000F7020008F7020008F7020008F70200088C
:10007000F7020008F7020008F7020008F70200087C
:10008000F7020008F7020008F7020008F70200086C
:10009000F7020008F7020008F7020008F70200085C
:1000A000F7020008F7020008F7020008F70200084C
:1000B000913C0008F7020008F7020008F702000868
:1000C000F7020008F7020008F7020008F70200082C
:1000D000F7020008F7020008F7020008F70200081C
:1000E000F7020008F7020008F7020008F70200080C
:1000F000F7020008F7020008F7020008F7020008FC
:10010000F7020008F7020008F7020008F7020008EB
:10011000F7020008F7020008F7020008F7020008DB
:10012000F7020008F7020008F7020008F7020008CB
:10013000F7020008F7020008F7020008F7020008BB
:10014000F7020008F7020008F7020008F7020008AB
:10015000F7020008F7020008F7020008F70200089B
:10016000F7020008F7020008F7020008F70200088B
:10017000F7020008F7020008F7020008000000007C
:10018000F7020008F702000800F002F800F096F805
:100190000AA090E8000C82448344AAF10107DA45E2
:1001A00001D100F08BF8AFF2090EBAE80F0013F09E
:1001B000010F18BFFB1A43F001031847487C0000E9
:1001C000687C0000103A24BF78C878C1FAD852077A
:1001D00024BF30C830C144BF04680C6070470000C1
:1001E0000023002400250026103A28BF78C1FBD840
:1001F000520728BF30C148BF0B6070476E2900F01E
:10020000F583702900F03D85662907F0A0846529F3
:1002100007F09D84672907F09A84612907F0998483
:1002200003681B0A28BF41F08001692900F0A283FE
:10023000642900F09F83752900F09C836F2900F0EA
:10024000CB84782900F00985E92900F06584E42948
:1002500000F06284F52900F05F84EF2900F0C88483
:10026000F82900F008850368DB0928BF41F0800108
:10027000632901F07E82732901F08382E32901F072
:100280008E82F32901F09382002070471FB507F09A
:1002900051FC9DE8030000F0ADFA01F0A3FC04005E
:1002A0000020002107F030FC401C6060002000218D
:1002B00007F014FCE0601FBD10B510BD01F065FC37
:1002C0001146FFF7E3FF05F049FE01F041FD03B4DD
:1002D000FFF7F2FF03BC01F071FD00000948804701
:1002E00009480047FEE7FEE7FEE7FEE7FEE7FEE718
:1002F000FEE7FEE7FEE7FEE704480549054A064B30
:10030000704700007D3C0008890100086806002055
:10031000680C0020680800206808002070B50646B8
:1003200000F04CFA056806F10B0020F00704B44217
:100330009CBF002070BD2B466A68BAB11068A0420D
:1003400010D304F1080188423CBF5068586007D3BD
:100350005168101941601168091B016058601460F0
:10036000101D70BD13465268002AE7D12146284669
:1003700000F02CFA0028DED170BD00007CB51D46CF
:1003800016460C00009007D04142A14202D32044FF
:10039000401E01E04FF0FF30064B7B442A46694681
:1003A0000190304600F03BFB002C02D0009A002167
:1003B00011707CBDA70600000FB400B58DB010A968
:1003C000099000910B904FF0FF300A9000200C90A4
:1003D000064878440690064878446A4607900F9984
:1003E00009A800F035FD0DB05DF814FB9B0A000074
:1003F000B30A00002DE9FF5F1D464FF0FF3B914619
:100400004FF000085F46D5E90146A96901987F1CB5
:100410008847296A824688470028F6D1BAF1FF3F0B
:100420000CD0002E24F4C06419DD600614D5BAF196
:100430002B0F09D0BAF12D0F0ED103E0584604B0AE
:1004400000F07EB844F48064A96901987F1C884755
:10045000761E8246002E02DDBAF1300F03D0B9F1CC
:10046000000F26D032E0A969761E01987F1C44F463
:1004700000748847002E824605DDBAF1780F06D059
:10048000BAF1580F03D0B9F1000F10D01EE0B9F146
:10049000000F02D0B9F1100F18D1A969761E01988A
:1004A0007F1C24F4007488478246102002E0082054
:1004B00000E00A20814609E0A96908FB0908761EC8
:1004C00001987F1C44F4007488478246002E05DDA5
:1004D0004946504600F0A7FC0028EDDAE96901988A
:1004E0008847A00502D46FF00100A8E7E00725D1F6
:1004F000600613D5600502D5C8F1000000E0404653
:1005000029680A1D2A600968220501D5087015E0CE
:10051000220701D5088011E008600FE02868011D5E
:1005200029600068210502D580F8008006E02107D7
:1005300002D5A0F8008001E0C0F8008038467EE7D0
:1005400030BCBDE8C09F2DE9FF5F4FF00008994621
:10055000144646469169D2E901A7DDF838B0019802
:100560008847054659EA0B0005D009E0A1690198C2
:10057000761C88470546216A284688470028F5D119
:10058000681C03D05FEACA7005D015E04FF0FF3059
:1005900004B000F048B82068011D2160D0F8008048
:1005A0000AE05FEACA7001D108F8015BA169761C14
:1005B00001987F1E88470546002F1ADD681C18D059
:1005C000B9F1000F0DD0E81705EBD060421120F013
:1005D0001F0059F822102A1A012090400142E0D150
:1005E00007E0BBF1000FDCD12846216A88470028CC
:1005F000D7D0E16901988847BBF1000F07D1002EE1
:1006000005DD5FEACA7002D1002188F80010A068F9
:10061000B84203DDBBF1000F03D017B16FF001004A
:10062000B6E73046B4E730BCBDE8C09F40EA0103FE
:1006300010B59B070FD1042A0DD310C808C9121F8B
:100640009C42F8D020BA19BA884201D9012010BDC5
:100650004FF0FF3010BD1AB1D30703D0521C07E092
:10066000002010BD10F8013B11F8014B1B1B07D1F6
:1006700010F8013B11F8014B1B1B01D1921EF1D167
:10068000184610BD40EA0103024630B59B0710D161
:100690004FF0013400E008C208C91D1B9D4315EA54
:1006A000C41FF8D013F0FF0102F8011B0DD01B0A84
:1006B000F8E711F8013B002B02F8013B05D011F8D7
:1006C000013B002B02F8013BF3D130BD4FF000029B
:1006D0000429C0F0128010F0030C00F01B80CCF154
:1006E000040CBCF1020F18BF00F8012BA8BF20F8C2
:1006F000022BA1EB0C0100F00DB85FEAC17C24BF16
:1007000000F8012B00F8012B48BF00F8012B7047BF
:100710004FF0000200B5134694469646203922BF9A
:10072000A0E80C50A0E80C50B1F12001BFF4F7AFE5
:10073000090728BFA0E80C5048BF0CC05DF804EBC7
:10074000890028BF40F8042B08BF704748BF20F835
:10075000022B11F0804F18BF00F8012B704710B525
:10076000044610F0030F08BF11F0030F40F015808E
:100770004FF0013E121FC0F20E8051F8043BA3EB74
:100780000E0C2CEA030C1CEACE1C08BF40F8043BFC
:10079000F0D0A1F1040102F10402521E08DB11F8AD
:1007A000013B00F8013B002BF7D11146FFF78EFF0C
:1007B000204610BD704770477047000000487047E2
:1007C00038000020704770477047704738B50446BE
:1007D0000A4600206946AFF30080002808BF38BDF4
:1007E00002460099204600F067FB012038BD012039
:1007F00001F0C3B9F8B5AFF30080054600200C4600
:10080000102000BF0646A819A0420DD932466946FD
:100810000020AFF30080070008BF01F0AEF9009898
:10082000A04218BF0546C419FFF7C8FF0560074678
:10083000F01D20F007004619284600F00AF8B442DF
:1008400008BFF8BDA21B31463868BDE8F84000F08B
:1008500033BB00210160C0E90110704710207047D0
:1008600070B50446051FFFF7A9FF0068002C14BFF0
:10087000446870BD002C18BFAC423CBF2046646881
:10088000F8D301680A18AA4218BF456003D12A6844
:1008900005461144016028684119A1421CBF6C60E3
:1008A00070BD6168696021680844286070BD70B5DA
:1008B000044685690068C10601D5302600E020267F
:1008C000C00707D070BDD4E9012130469047206AA7
:1008D000401C20626D1EF6D570BD70B5044685695A
:1008E0000078C00707D170BDD4E9012120209047CE
:1008F000206A401C20626D1EF6D570BD09684A054D
:1009000001D540B27047C905FCD500B270470968EF
:100910004A0501D5C0B27047C905FCD580B2704701
:1009200070B50C460546012A05D02878800600D50A
:10093000EA69002302E0012305E05B1C934202D236
:10094000E05C0028F9D1A869E618C01AA861286AF5
:10095000184428622846FFF7AAFF04E0D5E90121E0
:1009600014F8010B9047B442F8D32846FFF7B5FFBF
:1009700070BD00002DE9F04106460024106875297D
:10098000314616A510D0FFF7B9FF002802DA404221
:1009900013A507E031688A0701D512A502E04907CF
:1009A00004D511A5012401E0FFF7B1FF00210A22BF
:1009B00006F1240709E0B0FBF2FCB0FBF2F302FB06
:1009C0001C00303078541846491C0028F3D12346C7
:1009D0002A463046BDE8F04100F0D6BA00000000DB
:1009E0002D0000002B0000002000000011680268AC
:1009F000006A530501D508700AE0D30501D50880C7
:100A000006E0130603D5C217C1E9000200E0086042
:100A10000120704701694A1C02610878704700B5DF
:100A20008FB0CDE901310021059105497944CDE927
:100A300003101146684600F02FF90FB000BD00000A
:100A4000E5FFFFFFD1E900239A4202D2531C0B605D
:100A5000107070472DE9FF5F15468A460446DFF89F
:100A6000AC80F8440027D8E900103E46CDE90010DC
:100A700010E03AF816106A4602A801F05AF8411C34
:100A800007D02178890603D5E269391891420DD83B
:100A90000744761C2078800602D5E069B84205DD5F
:100AA000AE42E6DB3AF816000028E2D1A069C01B8E
:100AB000A0612046FFF7FBFED8E90010CDE9001049
:100AC000002017E03AF818106A4602A801F031F841
:100AD000B0F1FF3F81460BD000250DF1080B05E07A
:100AE000D4E901211BF8050090476D1C4D45F7D353
:100AF00008F10100B0428046E4DB206A38442062FD
:100B00002046FFF7EAFE00F003B80000F270000094
:100B10003FBCBDE8C09F00002DE9F0418046D21DDA
:100B200022F007020025D2E90002F52915A614D00B
:100B3000011E72F1000106DA0023D0EB030063EB23
:100B4000020211A608E0D8F800108B0701D50FA605
:100B500002E0490701D50EA601251146002408F13F
:100B6000240704E000F0C2F930323A55641C50EA20
:100B70000102F7D12B46324621464046BDE8F041FE
:100B800000F002BA000000002D0000002B00000061
:100B90002000000030B4002100F1240408E002F03D
:100BA0000705D208303542EA4372DB086554491C18
:100BB00052EA0305F3D10468002310A2250708D5E3
:100BC00004F020040C4304D0C46901230CA2641E69
:100BD000C46130BC00F0D8B910B504462146106895
:100BE000FFF795FE02462046BDE810400023D1E7FE
:100BF000D21D22F00701D1E90023CBE7000000005D
:100C000030000000F0B40D460188090502D5214CE2
:100C10007C4402E01F4C7C440E34002100F1240689
:100C200008E002F00F071209E75D42EA03721B09B0
:100C30007754491C52EA0307F3D1027800231207C4
:100C400004D5702D06D009B1022311342246F0BC20
:100C500000F09AB901231034F8E770B504460D4648
:100C600021461068FFF753FE024629462046BDE89C
:100C700070400023C6E7D21D22F00703D3E900230A
:100C8000C0E70368126843F0200303600823C361D0
:100C90000023B7E74C6F00002DE9F05F894604465A
:100CA0004FF0000ADFF874B1FB44C0F820A02046E2
:100CB000E1688847002874D0252806D0D4E90121AE
:100CC0009047206A401C2062F1E700265F462046DC
:100CD000E16888472028054607DB312D05D27819C1
:100CE00010F8200C08B10643F1E7B00701D526F053
:100CF0000406C4F81CA00027C4F818A02A2D09D0A7
:100D0000284606F0E3FE38B304EB8708303DC8F808
:100D1000185019E059F8041B204604EB8702916132
:100D2000E1688847012F054618D1E069002820DADC
:100D300026F020061DE0D8F8180000EB800005EB37
:100D400040003038C8F818002046E168884705465A
:100D500006F0BCFE0028EED1012F0AD02E2D08D1BE
:100D60002046E16888477F1C0546022F46F0200692
:100D7000C4DBA069002803DA404246F00106A06106
:100D8000F00701D026F010066C2D0BD0682D09D08D
:100D90004C2D39D06A2D35D0742D35D07A2D33D0E5
:100DA00016E038E0E1682F4620468847B8420546FD
:100DB00009D16C2F26D04FF48060E16806432046AD
:100DC0008847054604E06C2F1AD04FF48070064324
:100DD0000DB3A5F14100192802D8203546F400666C
:100DE0004A462946204626604E46FFF707FA80B15C
:100DF00001280BD0F61D26F0070000F1080956E780
:100E00004020E4E78020D8E70020D6E706F1040977
:100E10004DE7284652E7206A00F002B8DC6E000079
:100E200030BCBDE8C09F3A2800D2303820F0200204
:100E3000412A01D3A2F13700884201D34FF0FF309D
:100E4000704700000268114413780160184670472B
:100E5000D160054979445161044979441162002106
:100E60001161114600F0A8BCEDFFFFFF1901000061
:100E7000426842B1016811F8013B23B1521EC0E93A
:100E80000012184670470121C160881E70474268F1
:100E90005AB1C368016843B983688B4205D0491EC3
:100EA000521CC0E90012002070474FF0FF3070471D
:100EB0000048704730000020034640688C460028F8
:100EC00018BF88423CBF03464068F8D318681844EE
:100ED000884207D00CF1030020F00700001D411AE2
:100EE000521A0146081D0A60FFF7BABC30B5B0F1CE
:100EF0000A0271F100034FEA900E4EEA817EB0EBD8
:100F00000E0061EB91014FEA101E4EEA017E10EBDC
:100F10000E0041EB11114FEA102E4EEA016E10EB5C
:100F20000E0041EB11214FEA104E4EEA014E10EB3C
:100F30000E0041EB1141401841F100014FEAD00091
:100F400040EA41704FEAD1014FEA810444EA9074CB
:100F500010EB800544EB01046D1944EB0404521BB3
:100F6000A3414FF0000348BF0A3200D530BD401CFA
:100F700041F1000130BD10B5044600F02BFE0068C1
:100F8000005D00F0010010BD2DE9F0470D469946C7
:100F90009246044600F124080168880604D5E069F9
:100FA00021F01001216000E00120A84201DD471B73
:100FB00000E00027A1697A1902EB0900081AA06174
:100FC0002078C00602D42046FFF771FC002608E016
:100FD000D4E901211AF806009047206A401C761CCB
:100FE00020624E45F4DB2078C0060AD52046FFF784
:100FF0005EFC06E0D4E9012130209047206A401CC5
:101000002062381EA7F10107F4DC07E0D4E90121D2
:1010100018F805009047206A401C2062281EA5F1A0
:101020000105F3DC2046FFF758FC2078000602D5C6
:101030000220BDE8F0870120FBE72DE9FF4F0C46B9
:101040001E464FF0FF378BB0D2E90001DDF860801B
:101050000A908A46C1F30A5505B93D460021084663
:101060004FF00000BAF1000F00F4400005DA00EB89
:1010700080004FF4400101EA50004FEA9059B9F165
:10108000010F00DDB9460A9850EA4A000ED044F636
:101090001050A5F2FF3545432F14B8F1000F1ED0B4
:1010A0007542291E1EDDC9F100021CE0B8F1010FD6
:1010B0004FF0000001D0302103E0F24305E021545D
:1010C000401CB042FBDB30460022002121540B992A
:1010D000C1F80880C1E900200FB000F0BCB9BD1B09
:1010E0006D1CDEE74A4600DA694206A800F0BEFD44
:1010F00006AB93E8070003AB83E8070050460A9964
:1011000006F003F98DE80700A0F500501F380090A5
:101110000398002D0ADD42F21F014A4608440023CD
:1011200003A90390684606F06DFB09E0A0F50050A6
:101130004A461F38002303A90390684606F077FB50
:101140008DE807000004000C03D04FF0FF30410889
:1011500000E01046B8F1000F03D0002200921546BF
:101160001EE0751E05D4FFF7C1FE303262556D1EBC
:10117000F9D5B3460122084302D000227F1C04E0C7
:101180002078302801D100227F1E002A099784D0C0
:101190001DE0112D07DAFFF7A9FE303262556D1CF4
:1011A00050EA0102F5D1084302D00098C8B10EE020
:1011B0000021681E05E0235C625C63542254401EDB
:1011C000491C8142F7DBAB46A81B401E099000205A
:1011D00004F80B000B98099AC0F80880C0E9002BAE
:1011E0007AE711264FF0000857E72DE9F04F8846BF
:1011F0000446D21D22F0070191B0D1E90001CDE9EA
:101200000A0106F04BFC02460B98C00F01D02D20BE
:1012100007E02068810701D52B2002E0202101EAA8
:10122000C000032A099001D0072A05DB0346414686
:10123000204600F0DBFC0BE12078800601D5E06958
:1012400000E00620B8F1650F814606D0B8F1660FC0
:1012500018D0B8F1670F70D131E00020B9F1110F4B
:10126000009001DB112301E009F101030AAA01A9A1
:101270000CA8FFF7E2FEDDE90C70002609F101057C
:10128000834647E001204B4600904FF000470AAAF2
:1012900001A90CA8FFF7D1FEDDE90DB00C995D4660
:1012A000002610B909F101000D18B9EB050003D4AF
:1012B000C0F1FF3609F10105A5EB09002BE0B9F1FA
:1012C000010F01DA4FF001090020B9F1110F009070
:1012D000484601DD112300E003460AAA01A90CA833
:1012E000FFF7ABFEDDE90C704D4600268346207803
:1012F00000070AD4AB4500DA5D4601A8012D04DDE4
:10130000411911F8011C302907D04F4502DA17F1B5
:10131000040F04DA012082460FE06D1EEEE7002F75
:1013200002DCED1B3E4403E0781CA84200DD7D1C7E
:10133000B81B00F1010A4FF000472078000703D4E2
:10134000AA4501DB4FF0FF3A0021B7F1004F0DF144
:1013500043088DF8431024D002202B23002F01DAFC
:101360007F422D230A21021EA0F1010000DC5FB1A3
:1013700097FBF1FC97FBF1F201FB1C7C17460CF18B
:10138000300C08F801CDEEE7A8F1010003702188C8
:10139000090501D5452100E06521A0F1010800F80B
:1013A000011C09980FA9A1EB0807FF1D00B101203E
:1013B000411901EBEA70A1693844081A401EA06186
:1013C0002078C00602D42046FFF771FA099828B1A8
:1013D000D4E901219047206A401C20622078C00691
:1013E00022D52046FFF763FA1EE0002E04DBB3454A
:1013F00002DD01A8805D00E03020D4E901219047A2
:10140000206A401C2062761CAAF101005FEA000AF3
:101410000AD100F0E7FBC0680168405CD4E9012113
:101420009047206A401C2062281EA5F10105DCDCE3
:1014300007E0D4E9012118F8010B9047206A401C0D
:101440002062381EA7F10107F3DC2046FFF745FABA
:10145000032011B041E630BCBDE8C08F2DE9F04F4C
:1014600004460D46D21D22F0070089B0D0E900974E
:101470004846394606F012FB0246F80F01D02D23EC
:1014800007E02068810701D52B2302E0202101EA33
:10149000C0038DF820300BB1012000E00020032AAA
:1014A000824601D0072A04DB2946204600F09EFB35
:1014B0003FE12078800601D40D2500E0E569C7F3FF
:1014C0000A560D2D49DA00214FEA175B08464FF006
:1014D0000000002F00F4400007DA00EB80004FF41A
:1014E000400100EBD07001EA60008115012901DDA7
:1014F0004FF0FF3100224FEA850CBCF1180F06D3E4
:101500001346ACF118004FF08052C24003E04FF494
:10151000801323FA0CF30CF10C0CBCF1200F04D354
:10152000ACF1200C09FA0CF001E007FA0CF00029EC
:101530004FF0004801DD18B90FE00ED140450CD343
:1015400019EB02095F4121B9404502D19F4329EAC5
:101550000209BBEB175F00D0761C2088000502D57E
:101560007B48784402E07A487844193808AA302346
:1015700002F80A30037C0AF10101002E0AF1020A86
:1015800053546A4602DC4FF0300101E04FF0310164
:101590004FF001088DF8001002D0A6F2FF3603E0EC
:1015A00059EA470100D06B4E002D02DC2178090773
:1015B00004D54FF002082E218DF80110C4460021F9
:1015C0000BE0C7F303433F01C35C491C6D1E02F8E7
:1015D0000830052908F1010801DA002DF1DC0021AD
:1015E0000CE000EB1973491C1B786D1E082902F8EA
:1015F00008304FEA091908F1010801DA002DF0DC82
:1016000021688B0602D516E0A8F10108E04505DD4A
:1016100002EB080313F8013C302BF5D0B8F1000FB2
:1016200009DD02EB080313F8013C2E2B03D1090757
:1016300001D4A8F10108002D05DD3E2102F80810B3
:101640006D1E08F10108407C002E02F8080008F128
:10165000010804DA2D20764202F8080002E02B206F
:1016600002F808000A214FF47A70864208F1010856
:101670000BDB96FBF0F3303302F8083096FBF0F307
:1016800008F1010800FB136601E0642E0CDB642006
:1016900096FBF0F3303302F8083096FBF0F308F1D4
:1016A000010800FB136601E00A2E06DB96FBF1F051
:1016B000303002F8080008F1010896FBF1F001FB58
:1016C0001060303002F80800A16908F1010808EB49
:1016D000050202EB0A00081AA0612078C00602D4B5
:1016E0002046FFF7E4F8216A08AE01EB0A00206209
:1016F00004E0D4E9012116F8010B9047BAF1010A80
:10170000F7D22078C00602D52046FFF7D0F86E4603
:1017100009E016F8010B3E280FD0D4E901219047CB
:10172000206A401C2062B8F10108F2D22046FFF77F
:10173000D4F809B0032000F00FB8206A28442062D2
:1017400003E0D4E90121302090476D1EEBD3F8E788
:101750004666000002FCFFFF30BCBDE8C08F10B53C
:10176000436913B1AFF3008001E0FFF7D9F801201E
:1017700010BD127800F124010A7000224A70012283
:10178000EDE711684FF0FF32E9E710B5436913B197
:10179000AFF3008001E0FFF75DF9012010BD128872
:1017A00000F1240182840022C2840122EDE7116845
:1017B0004FF0FF32E9E700002DE9F34F4FF0000A48
:1017C0000C4656468DB001200C9001F10C000B9098
:1017D00062690B9801219047051E2DD0252D2CD034
:1017E000216A8847C0B162690B9801219047216A3C
:1017F00088470028F7D16269411E0B98904700E0A6
:10180000761CA1690D988847216A88470028F7D17E
:10181000E1690D988847DBE7A1690D988847A842E0
:10182000074601D1761CD3E7E1690D9888477F1CF4
:1018300002D1BAF1000F6FD06BE162690B980027FB
:101840003D46394690472A2804D162690B98012108
:1018500090470125DFF8D08262690B9801219047FB
:10186000A0F130010A290AD24745E5DC07EB8701E0
:1018700000EB4107303FDFD445F01005ECE7E90607
:1018800001D46FF000476C280AD04C2814D0682887
:1018900015D06A280DD074281CD07A281AD01DE0E3
:1018A00062690B98012190476C2802D045F004052D
:1018B00014E045F002050DE045F020050AE06269FC
:1018C0000B9801219047682802D045F0080505E0F3
:1018D00045F4006562690B9801219047C4E90157FE
:1018E00065283DD019DC58287AD00CDC452837D043
:1018F00004DC252826D041289ED131E046282FD06F
:10190000472899D12CE05B2877D0612828D063281C
:101910007CD0642823D15AE0F6E06F2848D008DC58
:1019200066281DD067281BD0692821D06E2816D1C3
:1019300027E0702845D0732868D0752847D07828CC
:101940000DD14DE0A1690D988847252805463FF443
:1019500069AFE1690D9888476D1C3FF46AAFD8E024
:101960000D9923466A466FF00100AFF30080C5E091
:1019700045F0400023464FF000026060A80736D4CF
:101980003EE0E8077FF447AF2068011D2160006852
:10199000290501D506701BE7290701D5068017E741
:1019A000A90703D5F117C0E9006111E706600FE749
:1019B00045F0400023464FF008026060A80716D4A7
:1019C0001EE040F60E0125EA0100606016E045F0D9
:1019D000400023464FF00A026060A80707D40FE0DA
:1019E00045F040006060A80708D5234610220D99F5
:1019F0006FF00100AFF3008080E007E01022234683
:101A00000D996FF00100FEF7F5FC77E04FF000094B
:101A100063284F46C8464B46CB4602D05B2806D0CB
:101A200038E0E80601D40120A060012732E06269B5
:101A3000D4F80CB00B98012190475E2807D14FF0E5
:101A4000010949466269D4F80CB00B9890472169A6
:101A500039B900210A4603AB43F82120491C082963
:101A6000FADBD8B3216949B308F1010862690B9820
:101A7000012190475D28F4D1B9F1000F09D0002071
:101A800003A951F82020D24341F82020401C082807
:101A9000F7DB03AB2069002820794FEA40701ED0A5
:101AA0005B462246CDF80080CDE901970D990028CC
:101AB0006FF0010020DAAFF300801FE0C11703AA26
:101AC00000EBD1614B1121F01F0102EB8302411A9F
:101AD00013680120884003431360C7E719E00D999C
:101AE000224600286FF00100009702DAAFF3008071
:101AF00004E0FEF728FD01E0AFF3008000280ADAD9
:101B0000401C06D10C9820B14FF0FF300FB000F010
:101B10000DB85046FAE7E90701D10AF1010A064477
:101B200000200C9054E60000CCCCCC0C30BCBDE8BE
:101B3000C08F2DE9F04116460C46054600F04AF8E4
:101B4000036893F80101012807D0FF2C12D8185D13
:101B500080B101202C70BDE8F081D3F80701324636
:101B6000214603F20713C7182846BC46BDE8F041DA
:101B7000002360474FF0FF30EDE710B500F0F6F8B6
:101B8000BDE8104000F0EDB870477546FFF790F9DA
:101B9000AE4605006946534620F00700854618B05A
:101BA00020B5FEF7A9FBBDE820404FF000064FF03E
:101BB00000074FF000084FF0000BAC46ACE8C0093E
:101BC000ACE8C009ACE8C009ACE8C00921F00701E5
:101BD0008D46704710B500F005F8001D10BD00BF20
:101BE000295F000000487047500000202DE9F041B7
:101BF0001F46044603260168072A01F4006004DB3F
:101C000008B116A505E016A503E008B115A500E08A
:101C100015A521F010002060A069C01EA0610FB1C1
:101C2000401EA0612046FEF742FE4FB1D4E90121DB
:101C300038469047206A401C2062C01C206206E0A3
:101C4000206AFAE7D4E9012115F8010B9047761EC6
:101C5000F8D22046FEF741FEBDE8F0814E414E002D
:101C60006E616E00494E4600696E66002DE9F047D0
:101C7000814616468AB0354878440DC88DE80D0077
:101C800032487844801C03AC0DC884E80D0041F64E
:101C90009B300844372190FBF1F290FBF1F5A5F160
:101CA000800501FB12041B3C02D56442012000E0C8
:101CB0000020DFF898A080460027FA44AAF1BE0A67
:101CC0000EE0E0070AD03246684607EB47010123E1
:101CD0000AEB810105F0ABFD8DE8070064107F1C65
:101CE000002CEED1194F7F44AE3F19E0E80715D024
:101CF00007EB04100DF1180A90E80E008AE80E00B8
:101D0000C068F04201D1981908903246012306A913
:101D100003A805F08CFD03AB83E807006D10641C7D
:101D2000002DE3D14FF0010332466946B8F1000FB0
:101D300003A802D005F066FD01E005F078FDC9E9D1
:101D40000001C9F808200AB0BDE8F087C05F0000B4
:101D500010B50446AFF300802046BDE81040FEF702
:101D6000B6BA002801D000F029B8704710B5012894
:101D700005D0002103A000F027F8012010BD09A123
:101D8000F8E7000053494752544D454D3A204F75EE
:101D900074206F662068656170206D656D6F727963
:101DA000000000003A2048656170206D656D6F721B
:101DB0007920636F72727570746564000149182030
:101DC000ABBEFEE72600020070B505460C460A20B1
:101DD00000E06D1C00F052F835B128780028F8D1E9
:101DE00002E0641C00F04AF814B120780028F8D111
:101DF000BDE870400A2000F041B80000000000007B
:101E000030B44FF0013C50F8042B51F8043BCCFAAD
:101E100052F4D51A20D1FCB950F8042B51F8043BE8
:101E2000CCFA52F4D51A17D1B4B950F8042B51F8A2
:101E3000043BCCFA52F4D51A0ED16CB950F8042BED
:101E400051F8043BCCFA52F4D51A05D1002CDAD063
:101E500030BC4FF00000704729BAB1FA81F111F09F
:101E60001801D1F120008440F2D1CA40CB4012F0D9
:101E7000FF0213F0FF0330BCD01A704708B5694663
:101E80008DF800000320ABBE08BD0000FEE7000097
:101E90002DE9F04140F618480546C4F60008042034
:101EA00043F60847C8F8100001200C46C4F20007AA
:101EB00000F0B4FD3868800709D4386880075CBF3B
:101EC00038685FEA807002D438688007F2D58020D5
:101ED0006E0040EA45003871386800060AD5386857
:101EE000000644BF38685FEA006003D53868000622
:101EF000F2D400BF3868800709D4386880075CBF17
:101F000038685FEA807002D438688007F2D5002014
:101F100038713868000609D53868000644BF38684B
:101F20005FEA006002D538680006F2D43868C0075E
:101F300009D13868C00704BF38685FEAC07002D1B1
:101F40003868C007F2D038793868C00709D13868D6
:101F5000C00704BF38685FEAC07002D13868C007A4
:101F6000F2D004203D79C8F80000C8F81000012024
:101F7000E44300F053FD3868800709D438688007CF
:101F80005CBF38685FEA807002D438688007F2D599
:101F900006F07E0038713868000609D538680006FA
:101FA00044BF38685FEA006002D538680006F2D4A2
:101FB0003868800709D4386880075CBF38685FEAF2
:101FC000807002D438688007F2D505EA04003871C1
:101FD0003868000609D53868000644BF38685FEAEB
:101FE000006002D538680006F2D401F09DFC01F0D3
:101FF0009BFC0420C8F80000BDE8F0817047000099
:1020000080B540F22833C2F200035A7A002A1CBF7E
:10201000012080BD93F809C08646002003F80C001B
:102020005A7A03EB8202C2F804E05A7A1A44107218
:1020300093F809C00CF101025A720CF130020A70D7
:1020400042F63A72A1F80120C87080BD40F2080043
:1020500040F26461C2F20000C2F2000100780A6836
:10206000104408607047000080B542F20000C4F2DE
:102070000200016841F480710160032000F078F8EB
:10208000002000F009F800281CBF012080BD00F0EE
:1020900029F8002080BD000070B540F20806C2F2A9
:1020A00000063178E1B1044640F21400C2F20000AB
:1020B0004FF47A720068B2FBF1F1B0FBF1F000F07E
:1020C00067F80F2C4FF0010508D838B94FF0FF30F2
:1020D00021460022002500F01FF87460284670BDDC
:1020E000012070BD82B041F25800C4F20200816844
:1020F00041F001018160816801F0010101910199C4
:10210000016841F080510160006800F0805000904B
:10211000009802B07047000010B54EF60C5CCEF28D
:10212000000CDCF80030C3F3022E8EF00704042C00
:1021300028BF0424BEF103034FF0FF3E0EFA04F45F
:1021400038BF0023A14399400EFA03F39A43114389
:1021500000F00F0200F160430901043A03F5644303
:102160006244002848BF02F10C03197010BD000042
:102170004EF60C51CEF200010A684FF6FF031A40EA
:1021800060F30A2242F0806040F0FD700860704702
:10219000411E0020B0EB116F1CBF012070474EF2B2
:1021A0001002CEF2000251604EF62351CEF2000131
:1021B000F0230B700721906011607047FEE700006C
:1021C0002DE9F04F0C6894FAA4F2B2FA82F234FAD4
:1021D00002F363D04FF001084FF0030B0BE000BF98
:1021E000D1E900470568B7402B403B43036001320B
:1021F00034FA02F352D008FA02F314EA030CF6D0D0
:10220000D1F80490A9F10103022B1BD29CFAACF681
:10221000B6FA86F77E00D0F808A00BFA06F3D1E9EB
:1022200002BE2AEA030A0BFA06F545EA0A058560AA
:1022300045684FF0030BA5430EFB04F4DB43254335
:10224000456007E09CFAACF3B3FA83F77E000BFA23
:1022500006F3DB430D69C468B5401C402543B9F162
:10226000020FC560BCD14FEA1C2494FAA4F4D1F843
:1022700014E0BCF5807F28BFB4FA84F74FF0240443
:1022800038BF202450F804C0BF000F25BD402CEA01
:1022900005050EFA07F72F430751A1E7002000F0CC
:1022A00000B830BCBDE8C08F10B5B0F5407F0DD090
:1022B000C0282DD141F20804C4F20204D4F88000F1
:1022C000C0F38110DFE800F00E262A3441F2080442
:1022D000C4F20204D4F88000C0F30120DFE800F06B
:1022E000021A1E2801F052FA216847F65442236868
:1022F000C1F30311C0F60002515CC3F3022247F69A
:102300006443C0F600039A5CC840D04010BD00BFD3
:10231000002010BDBDE8104001F038BA54F8080C98
:1023200042F200414005C0F2F40101EAE07010BD44
:10233000D4F888004FF4004101EA803010BD00005D
:1023400010B5302820D00C282AD003281CBF00202C
:1023500010BD41F20804C4F20204D4F8800000F079
:102360000300DFE800F003513F4900BF01F00EFA1F
:10237000216847F65442C1F30311C0F600022368F6
:10238000515CC3F3C22224E041F20804C4F2020407
:10239000D4F88000C0F30110DFE800F00E36242EE0
:1023A00041F20804C4F20204D4F88000C0F38100B2
:1023B000DFE800F0022A182201F0E8F9216847F668
:1023C0005442C1F30311C0F600022368515CC3F309
:1023D000022247F66443C0F600039A5CC840D0402E
:1023E00010BD00BF54F8080C42F200414005C0F295
:1023F000F40101EAE07010BDD4F888004FF4004108
:1024000001EA803010BD00BFBDE8104001F0BEB948
:102410002DE9F0470268520644BF0120BDE8F0876D
:1024200002684FF6BF73D1E9008E22EA030CD1E9AE
:10243000024A4CEA0805D1E9046745EA0E05D1E9EC
:10244000063245EA0A052E433343D1F820901A4359
:102450003A4342EA09020260426840F604739A4332
:1024600042EA174200232243B3EBD42F426003D148
:10247000426842F480524260B9F5005F1CBF002000
:10248000BDE8F087898C01610020BDE8F08700007D
:1024900040F21401C2F200010860704740F6FF33B9
:1024A00002460068C4F200039A422DDCB2F1804F6C
:1024B0003CD040F20043C4F200039A4236D040F6CA
:1024C0000003C4F200039A4230D042F6FF33C4F254
:1024D00001039A4234DD43F6FF73C4F201039A42CA
:1024E0003EDD44F20003C4F201039A4252D044F6A6
:1024F0000003C4F201039A424CD044F20043C4F2F8
:1025000001039A4246D049E040F60043C4F200037A
:102510009A420BD043F20043C4F201039A4205D021
:1025200042F60043C4F201039A42CED14B6820F038
:102530007000184342F6FF33C4F201039A42CADC2A
:1025400040F2FF73C4F200039A4217DCB2F1804FED
:1025500020D040F20043C4F200039A421AD01DE09A
:1025600042F60043C4F201039A4213D043F20043FF
:10257000C4F201039A420DD010E000BF40F6000300
:10258000C4F200039A4205D040F60043C4F20003AF
:102590009A4203D1CB6820F44070184310608868D9
:1025A000D062A2F18040A0F596300B884FEAB020AF
:1025B0000728936207D8012303FA00F010F0E50F13
:1025C0001CBF08691063506940F00101002051618F
:1025D000704700002DE9F041B1F5805F4FF0010335
:1025E00052DA012900F09680102900F0D980B1F567
:1025F000807F40F09081016A40F2FF1621F48071E3
:102600000162036A4168D0F81CC0146923F4407366
:102610002402B4432343A0F18044D2E900E5A4F5A9
:1026200096344FEAB424072C43EA05231CD801252D
:1026300005FA04F414F0E50F16D002F1140898E836
:10264000600140F2FF77AD0223F440639468BD431C
:102650002B4343EA8423340142F20F0521F4405115
:10266000AC43214341EA48114FF68C74CFF6FE7417
:102670000CEA040747EA0E074160C761D168C163ED
:1026800003620020BDE8F08100F0D480B1F5803F06
:1026900000F00681B1F5801F40F03D81016AA0F194
:1026A000804321F480110162A3F59633056AD0F8C6
:1026B00054E0D2E9004C11694FEAB323072B0DD83F
:1026C000012606FA03F313F0E50F1FBF436896696E
:1026D00023F4802343EA862318BF436025F4401384
:1026E0000025CFF6E07505EA0151194348F6FF438E
:1026F000CFF6FF6303F5407303EA0E0343EA0423B6
:102700004365D26841EA0C51C26501620020BDE810
:10271000F08100BF016A21F001010162036A416892
:10272000D0F818C0146923F0030324F001042343F4
:10273000A0F18044D2E900E5A4F596344FEAB42430
:10274000072C43EA05031AD8012505FA04F414F00E
:10275000E50F14D002F1140898E860016FF0040747
:1027600023F00C03946807EA85052B4343EA8403AE
:1027700021F4407126F40074214341EA48014FF6E8
:102780008C74CFF6FE740CEA040747EA0E0741602A
:102790008761D168416303620020BDE8F08100BF1A
:1027A000016A6FF0100621F010010162036A4168AE
:1027B000D0F818C0146923F0300306EA0414234348
:1027C000A0F18044D2E900E5A4F596344FEAB424A0
:1027D000072C43EA05131CD8012505FA04F414F06C
:1027E000E50F16D002F1140898E860016FF0400779
:1027F00023F0C003946807EA85152B4343EA84134A
:10280000B40040F6030521F44061AC43214341EAA2
:10281000C80148F6FF44CFF6FF640CEA040747EA14
:102820000E2741608761D168816303620020BDE8A3
:10283000F08100BF016AA0F1804621F4805101625D
:10284000A6F59636046A4368C169D2E900EC1569B9
:102850004FEAB626072E0AD8012707FA06F616F021
:10286000E50F1EBF966923F4804343EA86132D03C8
:1028700041F6FF7624F44054B5432C4348F6FF4517
:10288000CFF6FF65294041EA0E214360C161D1685E
:1028900044EA0C32016402620020BDE8F08100BF0E
:1028A000016AA0F1804321F480310162A3F59633DF
:1028B000046AD0F854C0D2E900E511694FEAB323A5
:1028C000072B0DD8012606FA03F313F0E50F1FBFFF
:1028D0004368966923F4803343EA062318BF4360B4
:1028E00024F440330024CFF6E07404F5F01404EA35
:1028F000014119434FF68C73CFF6FE73033303EA9D
:102900000C0343EA0E034365D268836D41EA054137
:102910000023826501621846BDE8F08170B5044667
:102920000068C00770D10E46206846F6F311CEF657
:10293000FF710840D6E9011CD6E903320843B569A6
:102940001843104328432060606820F4405040EA58
:102950000C0060607069A16821F440710843A060B8
:1029600044F6FF30C4F2000084424FF0010017DD4E
:1029700044F60041C4F200018C4223D045F200012C
:10298000C4F200018C4223D043F60001C4F20101DD
:102990008C4218BF70BD0320FFF7D2FC10BB33E0A0
:1029A00044F20041C4F200018C4217D044F6000109
:1029B000C4F200018C4230D13020FFF7C1FC88B94D
:1029C00022E000BFC020FFF76FFC58B91CE000BF39
:1029D0004FF44070FFF768FC20B915E00C20FFF7BA
:1029E000AFFC88B1316879B1B269B2F5004F0DD151
:1029F0004A0802EB4000B0FBF1F04FF6F0710140E5
:102A0000C0F34200084406E0012070BD00EB510015
:102A1000B0FBF1F080B2E060002070BD81B04EF2FA
:102A20001001CEF200010A6801300092009A28BF1E
:102A30004FF0FF300A68D20300EBE27078B10A6809
:102A4000D20300EBE27050B10A68D20300EBE270EF
:102A500028B10A68D20300EBE2700028EAD101B085
:102A60007047000070B582B040F618450446C4F6C1
:102A70000005042043F6084628610120C4F2000640
:102A8000FFF7CCFF3068800709D4306880075CBF4F
:102A900030685FEA807002D430688007F2D51A206F
:102AA00030713068000609D53068000644BF3068D0
:102AB0005FEA006002D530680006F2D43068800713
:102AC00009D4306880075CBF30685FEA807002D448
:102AD00030688007F2D5002030713068000609D5D3
:102AE0003068000644BF30685FEA006002D5306895
:102AF0000006F2D400F018FF00F016FF0420286052
:102B000042F29300208001AE0C202146022223468F
:102B1000009600F0B3FA08B102B070BD2078617879
:102B2000A278E3784840504021795840401A18BFB5
:102B30000120400002B070BDB0B540F618444FF619
:102B40000041C4F600040420CFF6FF7143F60845A7
:102B50002060605020610120C4F20005FFF75EFF95
:102B60002868800709D4286880075CBF28685FEA66
:102B7000807002D428688007F2D502202871286866
:102B8000000609D52868000644BF28685FEA00608F
:102B900002D528680006F2D42868800709D428687E
:102BA00080075CBF28685FEA807002D428688007CD
:102BB000F2D50F2028712868000609D5286800067C
:102BC00044BF28685FEA006002D528680006F2D496
:102BD00000F0AAFE00F0A8FE042020602061012081
:102BE000FFF71CFF2868800709D4286880075CBFAE
:102BF00028685FEA807002D428688007F2D55420E4
:102C000028712868000609D52868000644BF28688E
:102C10005FEA006002D528680006F2D428688007C1
:102C200009D4286880075CBF28685FEA807002D4F6
:102C300028688007F2D58D2028712868000609D5FC
:102C40002868000644BF28685FEA006002D528684B
:102C50000006F2D400F068FE00F066FE042020605A
:102C600020610120FFF7DAFE2868800709D4286870
:102C700080075CBF28685FEA807002D428688007FC
:102C8000F2D5562028712868000609D52868000664
:102C900044BF28685FEA006002D528680006F2D4C5
:102CA0002868800709D4286880075CBF28685FEA25
:102CB000807002D428688007F2D53E2028712868E9
:102CC000000609D52868000644BF28685FEA00604E
:102CD00002D528680006F2D400F026FE00F024FE9B
:102CE0000420206020610120FFF798FE28688007FB
:102CF00009D4286880075CBF28685FEA807002D426
:102D000028688007F2D55A2028712868000609D55E
:102D10002868000644BF28685FEA006002D528687A
:102D20000006F2D42868800709D4286880075CBFB1
:102D300028685FEA807002D428688007F2D51E20D8
:102D400028712868000609D52868000644BF28684D
:102D50005FEA006002D528680006F2D400F0E4FDC6
:102D600000F0E2FD0420206020610120FFF756FE04
:102D70002868800709D4286880075CBF28685FEA54
:102D8000807002D428688007F2D5582028712868FE
:102D9000000609D52868000644BF28685FEA00607D
:102DA00002D528680006F2D42868800709D428686C
:102DB00080075CBF28685FEA807002D428688007BB
:102DC000F2D5002028712868000609D52868000679
:102DD00044BF28685FEA006002D528680006F2D484
:102DE00000F0A2FD00F0A0FD042020602061012081
:102DF000FFF714FE2868800709D4286880075CBFA5
:102E000028685FEA807002D428688007F2D52A20FB
:102E100028712868000609D52868000644BF28687C
:102E20005FEA006002D528680006F2D428688007AF
:102E300009D4286880075CBF28685FEA807002D4E4
:102E400028688007F2D5402028712868000609D537
:102E50002868000644BF28685FEA006002D5286839
:102E60000006F2D400F060FD00F05EFD042020605A
:102E700020610120FFF7D2FD2868800709D4286867
:102E800080075CBF28685FEA807002D428688007EA
:102E9000F2D5222028712868000609D52868000686
:102EA00044BF28685FEA006002D528680006F2D4B3
:102EB0002868800709D4286880075CBF28685FEA13
:102EC000807002D428688007F2D53D2028712868D8
:102ED000000609D52868000644BF28685FEA00603C
:102EE00002D528680006F2D400F01EFD00F01CFD9B
:102EF0000420206020610120FFF790FD28688007F2
:102F000009D4286880075CBF28685FEA807002D413
:102F100028688007F2D5A82028712868000609D5FE
:102F20002868000644BF28685FEA006002D5286868
:102F30000006F2D42868800709D4286880075CBF9F
:102F400028685FEA807002D428688007F2D50020E4
:102F500028712868000609D52868000644BF28683B
:102F60005FEA006002D528680006F2D42868C0072E
:102F700009D12868C00704BF28685FEAC07002D181
:102F80002868C007F2D028792868C00709D12868C6
:102F9000C00704BF28685FEAC07002D12868C00774
:102FA000F2D028790422142003212260BDE8B04029
:102FB00000F0E0BCF0B583B040F618460546C4F614
:102FC0000006042043F60847306101200C46C4F295
:102FD0000007FFF723FD3868800709D438688007A9
:102FE0005CBF38685FEA807002D438688007F2D529
:102FF0001A203871386800060AD53868000644BFC0
:1030000038685FEA006003D538680006F2D400BF74
:103010003868800709D4386880075CBF38685FEA81
:10302000807002D438688007F2D50720387138687C
:10303000000609D53868000644BF38685FEA0060BA
:1030400002D538680006F2D400F06EFC00F06CFC8B
:103050000420306002AF0C20214601222346257057
:10306000009700F00BF802991029014618BF0221C1
:10307000002818BF0221084603B0F0BD2DE9F04F2B
:1030800085B0914604460C288846039306D00E2C42
:1030900008D111200490122607E000BF31207726C6
:1030A000049002E001200490002640F6184AC4F67D
:1030B000000A042043F60845CAF810000120C4F2B3
:1030C0000005FFF7ABFC2868800709D42868800753
:1030D0005CBF28685FEA807002D428688007F2D558
:1030E00004202871286800060AD52868000644BF15
:1030F00028685FEA006003D528680006F2D400BFA4
:103100002868800709D4286880075CBF28685FEAC0
:10311000807002D428688007F2D506F180000294FE
:1031200028712868000609D52868000644BF286869
:103130005FEA006002D528680006F2D400F0F4FBD4
:1031400000F0F2FB042404208021CAF80040FEF7BE
:103150009FFE0A20802100F00DFC0120CAF81040DB
:10316000FFF75CFC2868800709D4286880075CBFEB
:1031700028685FEA807002D428688007F2D50220B0
:1031800028712868000609D52868000644BF286809
:103190005FEA006002D528680006F2D4286880073C
:1031A00009D4286880075CBF28685FEA807002D471
:1031B00028688007F2D5002001962871286800064B
:1031C00009D52868000644BF28685FEA006002D578
:1031D00028680006F2D400F0A7FB00F0A5FB042449
:1031E000B9F1000FCAF8004050D000274FF0120B81
:1031F00009E000BF00F098FB00F096FB01374F4557
:10320000CAF8004042D018F807600120CAF8104000
:10321000FFF704FC286880070AD4286880075CBF91
:1032200028685FEA807003D428688007F2D500BF61
:1032300085F804B0286800060AD52868000644BF4F
:1032400028685FEA006003D528680006F2D400BF52
:10325000286880070AD4286880075CBF28685FEA6E
:10326000807003D428688007F2D500BF2E712868CB
:103270000006BFD52868000644BF28685FEA0060E2
:10328000B8D528680006F2D4B4E700BF0120CAF818
:103290001040FFF7C3FB2868800709D4286880071F
:1032A0005CBF28685FEA807002D428688007F2D586
:1032B00002202871029C2868000609D528680006AB
:1032C00044BF28685FEA006002D528680006F2D48F
:1032D0002868800709D4286880075CBF28685FEAEF
:1032E000807002D428688007F2D52C712868000607
:1032F00009D52868000644BF28685FEA006002D547
:1033000028680006F2D400F00FFB00F00DFB042645
:103310000C2CCAF8006003D10D20802100F02AFB9C
:103320004FF4FA684FF0880B4FF000090120CAF8FB
:103330001060FFF773FB2868800709D428688007AE
:103340005CBF28685FEA807002D428688007F2D5E5
:1033500085F804B0286800060AD52868000644BF2E
:1033600028685FEA006003D528680006F2D400BF31
:10337000286880070AD4286880075CBF28685FEA4D
:10338000807003D428688007F2D500BF85F80490C8
:10339000286800060AD52868000644BF28685FEA46
:1033A000006003D528680006F2D400BF2868C00773
:1033B0000AD12868C00704BF28685FEAC07003D13B
:1033C0002868C007F2D000BF28792868C00709D153
:1033D0002868C00704BF28685FEAC07002D1286867
:1033E000C007F2D02F79B8F10108CAF800606DD09B
:1033F000049838429AD00D208021FEF749FD042020
:10340000CAF810000120FFF709FB2868800709D4DB
:10341000286880075CBF28685FEA807002D428684B
:103420008007F2D58C202871286800060AD5286804
:10343000000644BF28685FEA006003D528680006DC
:10344000F2D400BF2868800709D4286880075CBFD1
:1034500028685FEA807002D428688007F2D50020CF
:1034600028712868000609D52868000644BF286826
:103470005FEA006002D528680006F2D42868C00719
:1034800009D12868C00704BF28685FEAC07002D16C
:103490002868C007F2D028792868C00709D12868B1
:1034A000C00704BF28685FEAC07002D12868C0075F
:1034B000F2D02879042110F01B0FCAF800100FD0A9
:1034C0004FF00209484605B000F049B90D208021AF
:1034D000FEF7DEFC4FF00209484605B000F03FB9A8
:1034E00001980C2C00EA070000F00109EAD1042041
:1034F000CAF810000120FFF791FA2868800709D464
:10350000286880075CBF28685FEA807002D428685A
:103510008007F2D5942028712868000609D528680C
:10352000000644BF28685FEA006002D528680006EC
:10353000F2D42868800709D4286880075CBF28680F
:103540005FEA807002D428688007F2D500202871D5
:103550002868000609D52868000644BF28685FEA85
:10356000006002D528680006F2D42868C00709D197
:103570002868C00704BF28685FEAC07002D12868C5
:10358000C007F2D028792868C00709D12868C00789
:1035900004BF28685FEAC07002D12868C007F2D073
:1035A00004202E79CAF80000CAF810000120FFF7A5
:1035B00035FA2868800709D4286880075CBF286826
:1035C0005FEA807002D428688007F2D598202871BD
:1035D0002868000609D52868000644BF28685FEA05
:1035E000006002D528680006F2D42868800709D454
:1035F000286880075CBF28685FEA807002D428686A
:103600008007F2D5002028712868000609D52868AF
:10361000000644BF28685FEA006002D528680006FB
:10362000F2D42868C00709D12868C00704BF2868F9
:103630005FEAC07002D12868C007F2D028792868F4
:10364000C00709D12868C00704BF28685FEAC070B6
:1036500002D12868C007F2D02879374610F0070059
:1036600040EAC600A0F1080008BFF000102E28BFF5
:103670001027002E4FF0040B0E99CAF800B008BFB7
:103680000127002F08603FF41DAF4FF0000892247F
:10369000002608E02879CAF800B003998855013659
:1036A000BE423FF40FAF0120CAF810B0FFF7B6F9E1
:1036B000286880070AD4286880075CBF28685FEA0A
:1036C000807003D428688007F2D500BF2C71286869
:1036D000000609D52868000644BF28685FEA006034
:1036E00002D528680006F2D4286880070AD4286822
:1036F00080075CBF28685FEA807003D42868800771
:10370000F2D500BF85F80480286800060AD528682D
:10371000000644BF28685FEA006003D528680006F9
:10372000F2D400BF2868C0070AD12868C00704BFC8
:1037300028685FEAC07003D12868C007F2D000BFD4
:1037400028792868C007A5D12868C00704BF286861
:103750005FEAC0709ED12868C007F2D09AE730BCFB
:10376000BDE8C08F10B540F2B904C2F2000440F2C7
:103770001800611CC2F20000FEF742FC207010BD70
:10378000FEE70000FEE700007047000041F2000184
:10379000C4F202018A68C2F3810242F20040C0F220
:1037A000F400DFE802F00377151B00BF08680A6821
:1037B000000702F0080025D450BBD1F89400C0F3F4
:1037C000032047F6EC41C0F6000151F82000704795
:1037D00041F20020C0F27A00704700BFCA6802F0D0
:1037E0000302032A1ED0022A42D00868012A0A686E
:1037F000000702F008001BD460BBD1F89400C0F3AE
:1038000003202FE0D0B9D1F8940000F4706018E0E4
:103810000868002047F6EC41C0F6000151F820008E
:10382000704700BF41F20020C0F27A0020E000BFE4
:10383000A0B9D1F8940000F4706012E0086800F0BC
:10384000F000000947F6EC41C0F6000151F82000F5
:10385000704700BF0868002004E000BF086800F05F
:10386000F000000947F6EC42C0F6000252F82000D2
:10387000CA68CB68C2F302120132B0FBF2F0C96829
:10388000C3F306225043C1F34161022202EB41011E
:10389000B0FBF1F07047000043F60801C4F20001EC
:1038A0000868C00709D10868C00704BF08685FEA54
:1038B000C07002D10868C007F2D0087904E000BFE8
:1038C0000A68120658BF70470A68120606D50A68C9
:1038D000120644BF0A685FEA0262F1D47047000032
:1038E00043F60801C4F200010A68920709D40A6885
:1038F00092075CBF0A685FEA827202D40A68920784
:10390000F2D5087104E000BF0868000658BF704790
:103910000868000606D50868000644BF08685FEA24
:103920000060F1D47047000043F60841C4F2000182
:103930000868C00709D10868C00704BF08685FEAC3
:10394000C07002D10868C007F2D0087904E000BF57
:103950000A68120658BF70470A68120606D50A6838
:10396000120644BF0A685FEA0262F1D470470000A1
:10397000704700002DE9F04140F618460546C4F6B0
:103980000006042043F60847306101208846C4F24F
:103990000007FFF743F83868800709D438688007C4
:1039A0005CBF38685FEA807002D438688007F2D55F
:1039B00080206C0040EA450038713868000609D55F
:1039C0003868000644BF38685FEA006002D538688E
:1039D0000006F2D43868800709D4386880075CBFD5
:1039E00038685FEA807002D438688007F2D500201A
:1039F00038713868000609D53868000644BF386851
:103A00005FEA006002D538680006F2D43868C00763
:103A100009D13868C00704BF38685FEAC07002D1B6
:103A20003868C007F2D038793868C00709D13868DB
:103A3000C00704BF38685FEAC07002D13868C007A9
:103A4000F2D004203D79306030610120FEF7E6FFBE
:103A50003868800709D4386880075CBF38685FEA37
:103A6000807002D438688007F2D504F07E00387187
:103A7000386800060AD53868000644BF38685FEA2F
:103A8000006003D538680006F2D400BF38688007AC
:103A900009D4386880075CBF38685FEA807002D458
:103AA00038688007F2D545EA0800387138680006A2
:103AB00009D53868000644BF38685FEA006002D55F
:103AC00038680006F2D4FFF72FFFFFF72DFF042020
:103AD0003060BDE8F0810000FEF7B8BA80B542F270
:103AE0000000C4F202000168012262F302010160D9
:103AF000016801F0070101290ED0016801F00701FA
:103B0000012909D0016801F00701012904D00168E9
:103B100001F007010129EBD147F20001C4F20001D5
:103B20000868012262F34A2008604869400509D507
:103B30004869400544BF48695FEA405002D548697A
:103B40004005F2D441F20000C4F20200026842F0E3
:103B5000010202600268920709D4026892075CBF02
:103B600002685FEA827202D402689207F2D50268A4
:103B7000062342F008020260026863F30712026043
:103B8000426822F47F4242600A6842F480720A600E
:103B9000D0F8901021F01801C0F89010D0F89010D3
:103BA00041F00101C0F89010D0F8901089070CD4B2
:103BB000D0F8901089075CBFD0F890105FEA81714F
:103BC00003D4D0F890108907EED5016848F28C0232
:103BD00041F004010160C168CFF6FF12114041F6C7
:103BE00001321143C160C16841F08071C160016858
:103BF00041F0807101600168890109D4016889017F
:103C00005CBF01685FEA811102D401688901F2D5C5
:103C1000816841F003018160816801F00C010C2989
:103C20000ED0816801F00C010C2909D0816801F0E7
:103C30000C010C2904D0816801F00C010C29EBD196
:103C40008168082262F307118160816821F4E061D4
:103C50008160816821F4605181604FF6C040C0F2FC
:103C60009B10FEF715FC0020FEF716FA002808BF8F
:103C700080BDEFF3108072B6FEE700004EF688506C
:103C8000CEF20000016841F470010160704700004D
:103C90001021C4F200010868C00764D06FF0010071
:103CA000086040F2E800C2F200000278012A5AD10E
:103CB00040F20002C2F200021378012B06D14368E1
:103CC000312B13D8536814331CE000BF1378022B38
:103CD00010D18368013383608368B3F5FA7F15D30D
:103CE000032313700023836010E000BF02231370CE
:103CF00000230AE01378032B08D14368312B33D813
:103D00005368143B536043680133436053684B620C
:103D1000C1680131C1601178012902D011780329ED
:103D200018D1C16805291ED341782822B1FA81F142
:103D3000490941704178C4F60002103A00294FF059
:103D4000200104BF2822C4F6000211600021C160D6
:103D5000704700BF1078022818BF70472820C4F6AB
:103D6000000020210160704701231370002340F2FE
:103D7000280C03704360C4F6000C2023CCF80030FC
:103D8000C4E7000000281CBF012070472DE9F04364
:103D900081B040F21009C2F2000999F800008007D2
:103DA00000F1F48043F60008C4F20008D8F80000DF
:103DB000062161F3C500C8F80000FF20FFF790FD61
:103DC000FFF76AFDFF20FFF78BFDFFF765FDFF2082
:103DD000FFF786FDFFF760FDFF20FFF781FDFFF78E
:103DE0005BFDFF20FFF77CFDFFF756FDFF20FFF78F
:103DF00077FDFFF751FDFF20FFF772FDFFF74CFD48
:103E0000FF20FFF76DFDFFF747FDFF20FFF768FD7F
:103E1000FFF742FDFF20FFF763FDFFF73DFD0020A8
:103E20000021002503F0C4F840F290070128C2F2F7
:103E3000000740F0908042F62446C4F20106306844
:103E40004FF47A71C7E9010108204FF4D57103F0EE
:103E5000AFF801282ED1FF20FFF742FDFFF71CFD30
:103E6000FF20FFF73DFDFFF717FDFF20FFF738FDAF
:103E7000FFF712FD0446FF20FFF732FDFFF70CFDB0
:103E8000012C4FF0000508BFAA2864D106E000BF4E
:103E9000A9204FF0804103F08BF8A8B33268D7E92E
:103EA0000101121A8A42F3D33268101A884231D3C0
:103EB00050E000BFA920002103F07AF80125022874
:103EC0004FF001003CBF6FF056000225C4B200BFA6
:103ED0003268D7E90101121A8A4207D2204600212E
:103EE00003F066F80028F3D1D7E901013268101A0F
:103EF00088422FD210204FF4007103F059F80028A7
:103F000018BF002527E000BFD7E901013268101A69
:103F100088421FD23A200021002503F049F8D0B989
:103F2000FF20FFF7DDFCFFF7B7FC0446FF20FFF79B
:103F3000D7FCFFF7B1FCFF20FFF7D2FCFFF7ACFC8A
:103F4000FF20FFF7CDFCFFF7A7FC0C25600658BF4C
:103F5000042500E0002540F21840C4F600000221CC
:103F60003D700160FF20FFF7BBFCFFF795FC4FF0B1
:103F700001004DB1D8F8001060F3C501C8F8001079
:103F800099F8000020F0010089F8000099F800007D
:103F900001B0BDE8F083000070B584B020B1042505
:103FA000284604B070BD00BF40F21000C2F200000D
:103FB00014460278D20727D140F21846C4F600060C
:103FC00004294FF0040500F28580DFE801F00321A9
:103FD00083436700022042F624443061FF20C4F28C
:103FE0000104FFF77DFCFFF757FC2568FF20FFF772
:103FF00077FCFFF751FCFF2864D02068401BB0F528
:10400000FA7FF3D355E000BF0325284604B070BD06
:104010000920002102F0CCFF00285AD16846102167
:1040200002F00AFD002854D09DF8000000F0C00006
:10403000402840F05B819DF808109DF809209DF80C
:104040000700890441EA822141EA806000F580602E
:104050007BE100BF40F29005C2F2000528784007DE
:1040600032D40920002102F0A3FF90BB6846102142
:1040700002F0E2FC68B329789DF80A00890700F194
:1040800055819DF80B10C0F3840001F0030249092B
:1040900041EAC20101300131484356E140F290014A
:1040A000C2F20001097811F0060F12D00078C007A3
:1040B0000FD102203060FF20FFF712FCFFF7ECFB6E
:1040C00007E000BF002505E08D20002102F070FF11
:1040D00050B1012502203060FF20FFF701FCFFF7FF
:1040E000DBFB284604B070BDFF20FFF7F9FBFFF7AC
:1040F000D3FB68461021102502F09EFC0028E8D072
:10410000FF20FFF7EDFBFFF7C7FBFF20FFF7E8FB02
:10411000FFF7C2FBFF20FFF7E3FBFFF7BDFBFF202C
:10412000FFF7DEFBFFF7B8FBFF20FFF7D9FBFFF738
:10413000B3FBFF20FFF7D4FBFFF7AEFBFF20FFF739
:10414000CFFBFFF7A9FBFF20FFF7CAFBFFF7A4FB9C
:10415000FF20FFF7C5FBFFF79FFBFF20FFF7C0FB2A
:10416000FFF79AFBFF20FFF7BBFBFFF795FBFF2054
:10417000FFF7B6FBFFF790FBFF20FFF7B1FBFFF760
:104180008BFBFF20FFF7ACFBFFF786FBFF20FFF761
:10419000A7FBFFF781FBFF20FFF7A2FBFFF77CFBEC
:1041A000FF20FFF79DFBFFF777FBFF20FFF798FB52
:1041B000FFF772FBFF20FFF793FBFFF76DFBFF207C
:1041C000FFF78EFBFFF768FBFF20FFF789FBFFF788
:1041D00063FBFF20FFF784FBFFF75EFBFF20FFF789
:1041E0007FFBFFF759FBFF20FFF77AFBFFF754FB3C
:1041F000FF20FFF775FBFFF74FFBFF20FFF770FB7A
:10420000FFF74AFBFF20FFF76BFBFFF745FBFF20A3
:10421000FFF766FBFFF740FBFF20FFF761FBFFF7AF
:104220003BFBFF20FFF75CFBFFF736FBFF20FFF7B0
:1042300057FBFFF731FBFF20FFF752FBFFF72CFB8B
:10424000FF20FFF74DFBFFF727FBFF20FFF748FBA1
:10425000FFF722FBFF20FFF743FBFFF71DFBFF20CB
:10426000FFF73EFBFFF718FBFF20FFF739FBFFF7D7
:1042700013FBFF20FFF734FBFFF70EFBFF20FFF7D8
:104280002FFBFFF709FBFF20FFF72AFBFFF704FBDB
:10429000FF20FFF725FBFFF7FFFAFF20FFF720FBCA
:1042A000FFF7FAFAFF20FFF71BFBFFF7F5FAFF20F5
:1042B000FFF716FBFFF7F0FAFF20FFF711FBFFF700
:1042C000EBFAFF20FFF70CFBFFF7E6FAFF20FFF702
:1042D00007FBFFF7E1FAFF20FFF702FBFFF7DCFA2D
:1042E0009DF80A00000905FA00F02EE09DF805008F
:1042F0009DF80A3000F00F0000EBD3109DF8093054
:104300009DF808509DF806109DF8072003F0030360
:1043100000EB4300AB0901F0030143EA820242EAE9
:1043200081210131073801FA00F00EE09DF80B10F1
:1043300000F03F009DF80D20C90941EA40004FF010
:10434000FF31013001EB9211884020600025C1E669
:1043500070B500284FF004064CD11C46002B49D004
:1043600040F21000C2F200000078C0071CBF03201A
:1043700070BD40F29000C2F2000000780D460007C8
:1043800058BF5202012C0DD11120114602F010FE2F
:1043900068B928464FF4007102F04EFBB0FA80F085
:1043A000460919E01220114602F002FE30B1012642
:1043B00012E000BF013C05F5007507D028464FF418
:1043C000007102F039FB0028F4D100E000240C2039
:1043D000002102F0EDFD264640F21840C4F6000030
:1043E00002210160FF20FFF77BFAFFF755FA002E4C
:1043F00018BF0126304670BD00281CBF0120704741
:1044000040F21000C2F200000078704770B500283A
:104410004FF0040066D11C46002B08BF70BD40F26F
:104420001000C2F200000D460178C9071CBF03202E
:1044300070BD0078400744BF022070BD40F290007C
:10444000C2F2000000781646010758BF5602012C40
:104450000CD11820314602F0ABFD98BB2846FE2156
:1044600002F012FFB0FA80F044092CE010F0060FC1
:1044700003D09720214602F09BFD1920314602F01F
:1044800097FDF8B904E000BF013C05F5007507D0C1
:104490002846FC2102F0F8FE0028F5D101E000BF1B
:1044A000002442F62445C4F201052E68FF20FFF7E0
:1044B00017FAFFF7F1F9FF2816D02868801BB0F52E
:1044C000FA7FF3D3012440F21840C4F60000022121
:1044D0000160FF20FFF704FAFFF7DEF9002C18BF98
:1044E0000124204670BD00BFFD20FFF7F9F9FFF75A
:1044F000D3F9E8E7FFF746BCFFF74EBDFFF728BF4B
:10450000FFF77ABFFFF782BFFEE700002DE9F04F0B
:1045100081B0D0F800808946074639B14046494607
:1045200001F0B2FC02280FD201244FE0D8F80CA011
:10453000BAF1000F03D0D8F8140082450CD308F16B
:10454000140B4FF0010A0CE00446013022D0D8F8D9
:104550001400CA46844239D3BAF1020F08F1140B91
:104560001ED20AF101050026DBF80000A9198142DC
:104570000AD2386801F088FC0446013026D04CB3DA
:10458000012C23D00136EFD30024204601B000F0E7
:1045900053B800BF4FF0FF34204601B000F04CB8D4
:1045A000564600BFDBF8000001368642386828BF57
:1045B0000226314601F068FC0446013006D06CB199
:1045C000012C03D056454FF00004EBD1204601B03A
:1045D00000F032B80AEB0600441C00E034464046C6
:1045E00021464FF0FF3202F09FF9B9F1000F05D0DC
:1045F00020B940464946224602F096F940B10124CE
:10460000012808BF4FF0FF34204601B000F014B875
:10461000D8E90401C8F80C40023988429CBF01382F
:10462000C8F8100098F8040040F0010088F8040071
:10463000204601B000F000B830BCBDE8C08F0000DB
:104640002DE9F04F81B00446C0690425B8B10F468A
:1046500061694FF6FF72C0F21F0201F12006964217
:104660000DD8B246D4F800906FF35F2ABAF1000F6C
:104670000AD009EB0A003030666120620025E8B2FA
:1046800001B000F097B800BFA1690130E06189B1C5
:10469000B9F80A00104400F5C00010EA562FE8D11E
:1046A000484601F0F1FB022810D20225E8B201B021
:1046B00000F080B8B9F80800B0EB561FD9D8002038
:1046C000E0610425E8B201B000F074B88046013022
:1046D00030D0D9F8140080450ED2A8F1020B023870
:1046E0008345C4F8188062D2B9F80A00D9F82810B6
:1046F0000BFB00105CE000BF002FE0D0A16920465A
:10470000FFF704FF8046013003280FD24FF6F871FF
:10471000C0F2FF0101EAC00040F20171C0F20201E3
:1047200021FA00F5E8B201B000F044B8484602F0C2
:104730007DFD28B10125E8B201B000F03BB800BF13
:1047400009F130004FF40071FBF7C0FFD9F81400F5
:10475000A8F1020B811EB9F80A208B4504D2D9F8C2
:1047600028100BFB021100E000214FF00007C9F8F0
:104770002C10A2B10125484689F8035002F056FDDD
:1047800000287FF47CAFD9F82C00B9F80A20013753
:10479000411C9742C9F82C10EDD3D9F81400C91B5D
:1047A000C9F82C1002388345C4F818809CD3002027
:1047B000E0615EE730BCBDE8C08F0000B0B5816845
:1047C0000568044600206061E1B1688988B16B69C1
:1047D0008A1E023B9A4273D2AB6A02FB0030A1618F
:1047E000E061F0B96AE000BF022967D368698142DD
:1047F00064D2206801F048FB01460130F4D1012069
:10480000B0BD00BF2878032802D3696A0029DCD133
:104810002889002852D0686A00210028A161E0613F
:104820004CD005F130002062E169284601F0F6FF26
:1048300050B9206A007850B1E52808D020460121FF
:10484000FFF7FEFE0028EFD004283FD0A0BBE169AF
:10485000284601F0E3FF002818BFB0BD216A002000
:10486000C861886148610861C86088604860086004
:10487000216A94F824200A7094F825204A7094F84C
:1048800026208A7094F82720CA7094F828200A718C
:1048900094F829204A7194F82A208A7194F82B20E0
:1048A000CA7194F82C200A7294F82D204A7294F858
:1048B0002E208A720121E970B0BD00BF0220B0BD78
:1048C0000020C4E906100220B0BD00BF0720B0BD23
:1048D00040F22831C2F200010A5C002A1CBF00200D
:1048E000704701230A180B5401EB80004168107ACD
:1048F0000968084740F2283CC2F2000C0CEB800328
:104900005B686044007A1B691847000080B540F27C
:10491000283CC2F2000C0CEB800EDEF804E0604490
:10492000007ADEF808C0BDE88040604740F22831D8
:10493000C2F2000101EB800252680844007A51681B
:104940000847000080B540F2283CC2F2000C0CEB96
:10495000800EDEF804E06044007ADEF80CC0BDE8AA
:104960008040604710B5044600F066FC002818BF80
:1049700010BD4CB3206838B3017829B3A188C28830
:10498000914221D14078FFF7D1FFC0071CD12069A7
:104990000138012884BF022010BD40F2C001C2F2DC
:1049A000000101EB0010818AB1F5807218BF0A4640
:1049B000002A18BF013A1104828204BF00218160DD
:1049C0000020206010BD00BF092010BD2DE9F04778
:1049D00082B08046154601200129D8BF0146A1F1C9
:1049E000010900240DF106066F46C2464C451AD057
:1049F0002846314601223B4600F09EFA00980128E5
:104A000010D19DF806000D28F2D00AF8010B0A28F3
:104A100004F10104EAD100208AF80000404602B007
:104A2000BDE8F087A14600208AF80000B9F1000F28
:104A300008BFC846404602B0BDE8F08710B582B056
:104A4000009129B34FF0FF3E01EB0E0C9CF80130B2
:104A5000212B21D33A2B1FD09CF80230212B27D3B6
:104A60003A2B25D09CF80330212B39D33A2B37D061
:104A70009CF804400EF1040EA4F13A03B3FA83F358
:104A80004FEA531C212C1AD33A2CDDD117E000BF7A
:104A90000B21084602B010BD3A3BB3FA83F34FEA4C
:104AA000531C0EF1010EBCF1000F0BD122E000BF30
:104AB0003A3BB3FA83F34FEA531C0EF1020EBCF1FA
:104AC000000F17D00978A1F13003092B34D8BEF1BB
:104AD000010F4FF00B0108BF002BDAD10AE000BF35
:104AE0003A3BB3FA83F34FEA531C0EF1030EBCF1C9
:104AF000000FE7D140F2C003C2F20003596859B178
:104B00009C688C4204BF00249C609C698C4204BF5A
:104B100000249C6100240C70002188B1012A0170DE
:104B20005860B6D1684601A9002200F0E5FB0146B5
:104B3000084602B010BD00BF0B21084602B010BDF0
:104B40005960084602B010BD2DE9F04F8FB00E91AC
:104B500090B102F03F0A154680460EA801A95246C0
:104B600000F0CAFB814668B10020C8F80000484642
:104B70000FB000F0DDB900BF4FF0090948460FB093
:104B800000F0D6B9019C0E9902A8029400F042FEF2
:104B90008146A8B11AF01C0F52D0B9F1000F58D0BD
:104BA000B9F1040F74D140F2C000C2F20000816874
:104BB000002969D08069002866D04FF0120967E0AB
:104BC0009DF9370000282FD440F2C000C2F2000047
:104BD0008168029A61B191420AD1C368049FBB42C5
:104BE00006D10369079FBB4202D100210DE000BF3F
:104BF00083695BB393421DD1C269049B9A4219D168
:104C0000026A079B9A4215D1012115F03E0205D197
:104C100000EB0110808AB0F5807FBBD11AF01C0F29
:104C20004FF0100934D10BE01AF01C0F4FF00609B9
:104C30002ED105E051B11AF01C0F4FF0120927D107
:104C4000B9F1000F7FF490AF0CE000BF1AF01C0F19
:104C500008D09DF80E0010F0110F0DD1082000EAC9
:104C6000450917E09DF80E00C10609D45FEA8A7174
:104C70007AD510F0010077D04FF0070974E700BF34
:104C80004FF0040970E700BF02A8FFF797FD8146C7
:104C90004AF0080AB9F1000F62D11AF008005FD09B
:104CA00001F05AF90A99020A8873030C070E8875F5
:104CB0002020CA730B744F74CA750B764F76C87276
:104CC0002078B1F81AB0032805D1087D4A7D000488
:104CD00040EA02608344002048832278032A08BF08
:104CE0008882C8610120BBF1000FE0703CD0BBF1AD
:104CF000010F00F01381029D6869584540F20E8152
:104D0000E06A5F46009002E08642374620D228469D
:104D1000394601F0B9F80646013000F00381BEB112
:104D2000012E00F0FB8028463946002201F0FCFDF0
:104D3000002840F0FB80D5E90410821E9142E3D2A6
:104D40002A790131296142F001012971DCE700BFB4
:104D50000099204601F062FD8146ABF10100E06060
:104D6000B9F1000F7FF400AF40F2C001E06AC2F277
:104D70000001029A8B68C8F824000A989342C8F888
:104D8000280009D1CF68049EB74205D10F69079E5C
:104D9000B74201D1002321E08E6996420AD1CF6942
:104DA000049DAF4206D10F6A079DAF4202D1012395
:104DB00014E000BF4FF0000C23B1E6B927460123F1
:104DC00002E000BF27460023079C01EB0316049D69
:104DD00034613C46C6E90225A6F814C00AF0080270
:104DE00001EB03114AEAC20231F8147F022A01D210
:104DF000013709E037B10020C8F810004FF0020970
:104E0000B2E600BF4FF480770F80591CC8F810102D
:104E10002178458B032905D1017D437D090441EAB1
:104E200003610D44C8F80850D0F81CB04FF00009D9
:104E3000C8F80CB0C8F82C90C8F80040E08808F119
:104E40003006A8F8040030464FF4007188F81420AA
:104E500088F81590C8F82090C8F81890FBF736FC31
:104E60005FEA8A607FF583AEBBF1000F3FF47FAE4F
:104E7000C8F818B060890027BBEB402F24D90096F2
:104E8000A2464402A7EB40295E4600BFD8F80000C6
:104E9000294600F0F9FF054602284FF0000038BF10
:104EA00001204700681C08BF0127A6EB040B27B9A7
:104EB00009EB0600A0425E46E8D83846002F18BF2E
:104EC0000120009E544600E00020C8F81C50D8B9CC
:104ED00058466FF35F20B8B16169A81E0239884255
:104EE0001CD26189A26A00FB0120B8B100EB5B22F1
:104EF000C8F820206078314601234FF00109FFF700
:104F000005FD00287FF430AE002FB9467FF42CAEAB
:104F10004FF0000948460FB000F00AB84FF0020900
:104F200022E600BF4FF001091EE600BF81461BE6E6
:104F300030BCBDE8C08F00002DE9F04F81B00446C1
:104F40000020186004B32068C0B189460178A9B177
:104F50001646A188C288914210D140781D46FFF7BD
:104F6000E5FCC0070AD1677D7FB9207DC00711D15C
:104F70000727384601B000F05BB900BF0927384663
:104F800001B000F055B900BF0927384601B000F064
:104F90004FB900BFE068A169401AB04238BF064669
:104FA000002E00F03381D4F800E004F1300BCDF88E
:104FB00000E00EE0DDF800E04FEA4820A1692A6831
:104FC000814401440244361A4FF00007A1612A606F
:104FD000DBD00A466FF35F22A2B1C2F50070B04287
:104FE00028BF30460BEB020110F00302A0F1010CC8
:104FF00014D011F8013B4F46012A07F8013B11D1AB
:10500000624650E0BEF80A005F46013800EA512BC4
:10501000BBF1000F10D0E06974E000BF02464F46BC
:1050200041E000BF11F8013B022A89F8013033D179
:1050300009F10207821E36E0002949D0E36A002BFD
:1050400048D05A68002A00F0E7802068490A408961
:10505000B1FBF0F003F12401904243D351F8183C26
:10506000002B00F0D980801A98423DD351F8102CC3
:10507000002A00F0D180C01A904237D351F8083C82
:10508000002B00F0C980801A984231D351F8202BB0
:10509000C01A002AE0D1BFE011F8012B09F1030783
:1050A00089F80220C21EBCF1030FFFF487AF3B1F3B
:1050B000043900BF11F8047F043A03F8047F4F78E5
:1050C0005F708F789F70CF78DF70F3D176E700BF85
:1050D000A06810E02068E16900F0D6FEDDF800E08D
:1050E00009E000BF1C3904E0143902E00C3900E08B
:1050F0000439096808440228C0F08E80411C00F081
:105100009180E061DEF8141002380239884280F0A4
:105110008380BEF80A10DEF8282000FB012000285A
:105120007AD05FEA562800EB0B0A47D00BEB080059
:1051300088429EF8010088BFA1EB0B084946524601
:105140004346FFF7E3FB00286CD194F91400BB46FB
:10515000B0F1FF3F3FF72EAF206AA0EB0A004045B9
:10516000BFF428AF09EB402000211BF801200BEB16
:10517000010342545F78421857709F78103197703E
:10518000DF78B1F5007FD7701F7917715F7957719C
:105190009F799771DF79D7711F7A17725F7A57728B
:1051A0009F7A9772DF7AD7721F7B17735F7B577373
:1051B0009F7B9773DB7BD373D7D1FBE6226ABB4619
:1051C00052451DD094F91400B0F1FF3F0DDC9EF85C
:1051D0000100594601230127FFF7B4FBE8B9207D00
:1051E000DDF800E000F07F0020759EF801005946D0
:1051F000524601230127FFF789FBDDF800E060B983
:10520000A269C4F820A06FF35F22E6E600273846C3
:1052100001B000F00DB800BF02276775384601B035
:1052200000F006B801276775384601B000F000B8F5
:1052300030BCBDE8C08F0000F0B581B090B104462D
:10524000006878B1017869B1A188C288914209D11A
:105250004078FFF76BFBC00704D1207D410605D4E1
:10526000002640E00926304601B0F0BD256840B276
:10527000B0F1FF3F2EDD00F06FFE616A0746284661
:1052800001F0CCFA064670BBA06AC17A41F0200159
:10529000C172A168226841831278032A03D10A0CE3
:1052A000090E02754175E1688775C161390AC175DA
:1052B000390C0176390E4176002141820120E870D7
:1052C000284601F04DFF217D01F0BF01217501B09D
:1052D000F0BD00BF6878226A04F130010123012685
:1052E000FFF730FB10B1304601B0F0BD207D00F07B
:1052F0007F002075BFE700002DE9F04700230B6019
:105300000368002B44D04FF0FF3700BFDE197578DB
:10531000212D19D33A2D17D0B578212D1CD33A2D34
:105320001AD0F578212D1FD33A2D1DD035790437A9
:10533000A5F13A06B6FA86F67609212D01D33A2D63
:10534000E4D166B317E000BFA5F13A06B6FA86F6D7
:10535000760901377EB922E0A5F13A06B6FA86F65B
:1053600076090237DEB106E0A5F13A06B6FA86F60E
:10537000760903379EB11E78303E092E08D8012FDA
:105380004FF00B0508BF002E06D02846BDE8F08779
:105390000B20BDE8F08700BF3B440133036040F2BF
:1053A000C006C2F200067468002C00F00381207869
:1053B00002F0FE050C6068B16078FFF7B7FAC1072C
:1053C00008D140070A21002D18BF01EAE0752846E0
:1053D000BDE8F087002020800020FFF779FAC107A0
:1053E0001CBF0320BDE8F087002D1EBF10F0040095
:1053F0000A20BDE8F0870020E0704FF0FF30E06247
:105400002046002101F00AFA00281CBF0120BDE857
:10541000F087B4F82E024AF6552A504540F0F6813E
:1054200094F83000E92807D0EB2840F0C78094F8C2
:105430003200902840F0C28094F8672094F86830D9
:1054400094F86610120244F2461042EA0342C0F297
:1054500054001144814206D0D4F8821000F14C501F
:10546000814240F0AB800027B4F83B00B0F5007FEC
:105470001CBF0D20BDE8F087B4F84600002808BF27
:10548000606D94F84030A061591E0129A37000F2AC
:10549000BD8194F83D20511E1140B2FA82F518BF2B
:1054A00001216D092943628140F0B08194F8415097
:1054B00094F8421045EA01212D07218140F0A68190
:1054C000B4F84350002D08BF256DB4F83E90B9F1F3
:1054D000000F00F09B8100FB03FE0EEB11134B4409
:1054E0009D42C0F09381ED1A9542C0F08F81B5FBCB
:1054F000F2F24FF6F6754FF00308AA4240F6F57542
:1055000038BF4FF00208AA4298BF4FF0010802F1DD
:10551000020C07EB09053B44B8F1030FC4F814C0B3
:10552000C4E90775A36240F03F81B4F85A201143E3
:105530001CBF0D20BDE8F08740F2FF12E16D02EBC9
:105540008C02B0EB522F61623CBF0D20BDE8F087AA
:105550004FF0FF30C4E90300B4F860008021012857
:10556000217140F04081791C204601F057F9002854
:1055700040F03981B4F82E0200215045217140F0ED
:105580003281206B45F25221C4F26111884240F011
:105590002A81D4F8140247F27221C6F241118842DE
:1055A00040F02181D4F81C02D4F81812C4E9030198
:1055B00019E100BF0C20BDE8F08700BF94F8F201AC
:1055C000002814BFD4F8F671002794F802020028CE
:1055D00014BFD4F80652002594F81202002814BF14
:1055E000D4F816924FF0000994F82202002814BF54
:1055F000D4F826824FF000087FB30020E0704FF00F
:10560000FF30E0622046394601F008F928BBB4F8C3
:105610002E02504521D194F83000E92805D0EB281E
:105620001BD194F83200902817D194F8672094F891
:10563000683094F86610120244F2461042EA0342BF
:10564000C0F25400114481423FF40EAFD4F88210EE
:1056500000F14C5081423FF407AF8DB30020E07061
:105660004FF0FF30E0622046294601F0D7F838BB02
:10567000B4F82E02504523D194F83000E92805D023
:10568000EB281DD194F83200902819D194F86720A6
:1056900094F8683094F86610120244F2461042EA18
:1056A0000342C0F254001144814201D12F46DBE68F
:1056B000D4F8821000F14C5081422F463FF4D4AE12
:1056C000B9F1000F32D00020E0704FF0FF30E062FF
:1056D0002046494601F0A2F840BBB4F82E025045DE
:1056E00024D194F83000E92805D0EB281ED194F895
:1056F000320090281AD194F8672094F8683094F812
:105700006610120244F2461042EA0342C0F254000C
:105710001144814202D14F46A6E600BFD4F8821060
:1057200000F14C5081424F463FF49EAEB8F1000F5D
:105730006CD00020E0704FF0FF30E0622046414620
:1057400001F06CF800281CBF0120BDE8F087B4F818
:105750002E0250455AD194F83000E92805D0EB28A4
:1057600054D194F83200902850D194F8672094F8DE
:10577000683094F86610120244F2461042EA03427E
:10578000C0F254001144814202D147466CE600BF8A
:10579000D4F8821000F14C50814247461CBF0D20C6
:1057A000BDE8F08760E600BF81B30CEB4C0302F06C
:1057B000010707EB5303A2F6F672B2F5704F38BF3C
:1057C0004FEA4C0303F2FF1205EB0E01B0EB522F30
:1057D00061623CBF0D20BDE8F0874FF0FF30C4E9A7
:1057E0000300802020713088B168013084F8008087
:1057F0003080A142E08004BF0020B060B069002585
:10580000A04208BFB5612846BDE8F0870D20BDE87D
:10581000F08700002DE9F04F83B0D0F800800446F7
:105820000D4600E0043528785C2801D02F2814D1DB
:1058300068785C2801D02F280CD1A8785C2801D08A
:105840002F2809D1E8785C28ECD02F28EAD003353E
:1058500003E000BF013500E002350022A260287895
:10586000202835D2802084F82F0098F8000062614B
:105870000328C0F0B982D8F82410002900F0B482BF
:10588000B8F80A00D0B1D8F814308A1E023B9A4208
:1058900080F0D282D8F8283002FB00300028A161C5
:1058A000E06140F0AA82CAE20229C0F0C882D8F8BA
:1058B000140081424FF0020080F0AA82206800F0BC
:1058C000E3FA01460130EFD1012003B000F0D8BA6D
:1058D00004F1240A08F1300C04F12C0E4FF02030B2
:1058E0004FF0050B4FF00009CAF80700CAF8040092
:1058F000CAF800002878212828D201270420002691
:10590000002E00F0AD829AF80010E52908BF8AF851
:1059100000B02668B9F1000F84F82F00626100F032
:10592000AF807089002800F07F827369A9F10201BD
:10593000023B994280F09882B36A01FB0031002952
:10594000C4F81890E16140F0B18078E26B1C002649
:10595000C7B22E2F00F052812F2F00F04D815C2F07
:1059600000F04A81082E00F04A8141B2B1F1FF3FB8
:1059700006DD6FF0210151FA80F15D290ED96DE04D
:1059800047F66C40C0F60000384410F8800C6FF009
:10599000210151FA80F15D2900F26080DFE811F009
:1059A00034025E005E005E005E005E005E005E002F
:1059B0003402340234025E005E005E005E005E006F
:1059C0005E005E005E005E005E005E005E005E00E7
:1059D0003402340234023402340234025E005E00C7
:1059E0005E005E005E005E005E005E005E005E00C7
:1059F0005E005E005E005E005E005E005E005E00B7
:105A00005E005E005E005E005E005E005E005E00A6
:105A10005E0034025E0034025E005E005E005E00E6
:105A20005E005E005E005E005E005E005E005E0086
:105A30005E005E005E005E005E005E005E005E0076
:105A40005E005E005E005E005E005E005E005E0066
:105A50005E005E0034025E005E003402A0F161016F
:105A6000C9B21A2938BF20380AF80600985D711C9F
:105A700021280E46BFF46CAF4F1C042043E700BF43
:105A80003078032805D3D6F82490B9F1000F7FF4BD
:105A900048AF3089002800F0D281716A4FF00009C8
:105AA0000029C4F81890E16100F0C98106F13000C6
:105AB00020623046CDE901EC00F0B0FE002840F055
:105AC000A5813D4412E000BF3889B0EB591F40F278
:105AD000BB8100BF07EB0B00303020623046C4F8BA
